:100000000C942A000C945E120C9494120C94CA1254
:100010000C946E0C0C943B0C0C94080C0C94D50BAB
:100020000C94A20B0C946F0B0C943C0B0C94090BCE
:100030000C94EF0F0C94FF070C9447000C94570896
:100040000C9447000C9447000C9447000C94470014
:100050000C94470011241FBECFE5D8E0DEBFCDBF12
:1000600015E0A0E6B0E0E8EEF0E602C005900D92E3
:10007000A83EB107D9F716E0A8EEB5E001C01D9281
:10008000A034B107E1F70E94DF1F0C9472300C948A
:100090000000EF92FF920F931F937B018C0120E0F1
:1000A00030E040E05FE40E94490388238CF0C801FF
:1000B000B70120E030E040E05FE40E94C1010E940F
:1000C000A9039B01AC01205030404040504806C07D
:1000D000C801B7010E94A9039B01AC01B901CA0183
:1000E0001F910F91FF90EF900895A0E0B0E0EBE733
:1000F000F0E00C943B30DC012B01FA019C91923032
:1001000008F439C1EB018881823008F433C194309E
:1001100069F4843009F02FC111969C91119789815F
:10012000981709F428C1ACE9B5E025C1843009F479
:1001300021C18230A9F4923009F01DC19A01AD01AC
:1001400088E0EA010990AE01E90109929E0181501F
:10015000C1F7E201898111969C918923818308C1AD
:10016000923009F407C112962D903C901397EB0141
:100170008A819B811496AD90BD90CD90DC901797AD
:10018000EC80FD800E811F819101281B390BB90184
:1001900037FF04C066277727621B730B6032710537
:1001A0000CF061C0121613066CF537014801062EDB
:1001B00004C096948794779467940A94D2F721E0C8
:1001C00030E040E050E004C0220F331F441F551FB1
:1001D0006A95D2F721503040404050402E213F21B7
:1001E00040235123211531054105510521F021E01E
:1001F00030E040E050E079018A01E628F72808293C
:1002000019293CC0232BD1F1260E371E350146019A
:10021000062E04C096948794779467940A94D2F734
:1002200021E030E040E050E004C0220F331F441FC3
:10023000551F6A95D2F721503040404050402A2146
:100240003B214C215D21211531054105510521F04E
:1002500021E030E040E050E059016A01A628B728CB
:10026000C828D9280BC0821593052CF01C01AA249C
:10027000BB24650103C0EE24FF24870111969C91E5
:10028000D20111968C91981709F445C0992339F041
:10029000A80197012A193B094C095D0906C0A6016E
:1002A00095012E193F09400B510B57FD08C01182D3
:1002B0003382228224833583468357831DC081E0A5
:1002C00081833382228288279927DC01821B930B4A
:1002D000A40BB50B84839583A683B7830DC0220F2F
:1002E000331F441F551F24833583468357838281E0
:1002F000938101979383828324813581468157813D
:10030000DA01C9010197A109B1098F5F9F4FAF4F72
:10031000BF4328F30BC0918333822282EA0CFB1C7B
:100320000C1D1D1DE482F5820683178383E0808304
:10033000248135814681578157FF1AC0C901AA27F8
:1003400097FDA095BA2F81709070A070B0705695EF
:10035000479537952795822B932BA42BB52B848318
:100360009583A683B7838281938101969383828349
:10037000DF0101C0D201CD01CDB7DEB7E2E10C94BF
:100380005730A0E2B0E0E7ECF1E00C94473069832D
:100390007A838B839C832D833E834F835887E9E048
:1003A000EE2EF12CEC0EFD1ECE010196B7010E943F
:1003B000D2048E010F5E1F4FCE010596B8010E9438
:1003C000D2048A8991E089278A8BC701B801AE01DE
:1003D000475E5F4F0E9475000E94FD03A096E6E015
:1003E0000C946330A0E2B0E0E8EFF1E00C94473009
:1003F00069837A838B839C832D833E834F835887C5
:10040000F9E0EF2EF12CEC0EFD1ECE010196B701A6
:100410000E94D2048E010F5E1F4FCE010596B801D7
:100420000E94D204C701B801AE01475E5F4F0E942F
:1004300075000E94FD03A096E6E00C946330A0E2F4
:10044000B0E0E5E2F2E00C943B3069837A838B8381
:100450009C832D833E834F835887CE010196BE0136
:10046000675F7F4F0E94D204CE010596BE016F5E8A
:100470007F4F0E94D2049985923088F0898982301A
:10048000C8F0943019F4823051F404C0843029F457
:10049000923081F48CE995E0C6C0923049F420E0B6
:1004A0009A858A89981321E02A87CE010996BBC0D4
:1004B000823049F420E09A858A89981321E02A8BBA
:1004C000CE014196B0C02D843E844F8458886D88FB
:1004D0007E888F88988CEE24FF248701AA24BB2471
:1004E000650140E050E060E070E0E0E0F0E0C10174
:1004F00081709070892BE9F0E60CF71C081D191D1E
:100500009A01AB012A0D3B1D4C1D5D1D80E090E062
:10051000A0E0B0E0E614F7040805190520F481E036
:1005200090E0A0E0B0E0BA01A901480F591F6A1F8E
:100530007B1FAA0CBB1CCC1CDD1C97FE08C081E0F5
:1005400090E0A0E0B0E0A82AB92ACA2ADB2A3196B6
:10055000E032F10549F0660C771C881C991C569412
:10056000479437942794C3CFFA85EA892B893C892D
:100570008B859C85280F391F2E5F3F4F17C0CA01FE
:1005800081709070892B61F016950795F794E79428
:1005900080E090E0A0E0B0E8E82AF92A0A2B1B2BC3
:1005A00076956795579547952F5F3F4F77FDE7CF36
:1005B0000CC0440F551F661F771F17FD4160EE0CDE
:1005C000FF1C001F111F21503040403090E05907A0
:1005D00090E0690790E4790760F32B8F3C8FDB0193
:1005E000CA018F779070A070B07080349105A1051A
:1005F000B10561F447FD0AC0E114F10401051105DC
:1006000029F0405C5F4F6F4F7F4F40781A8EFE1786
:1006100011F081E08A8F4D8F5E8F6F8F78A383E01A
:10062000898FCE0149960E94FD03A096E2E10C94C9
:100630005730A8E1B0E0EFE1F3E00C944730698374
:100640007A838B839C832D833E834F83588789E0F5
:10065000E82EF12CEC0EFD1ECE010196B7010E9492
:10066000D2048E010F5E1F4FCE010596B8010E9485
:10067000D2048985823040F08989823028F0C70110
:10068000B8010E944A0501C08FEF6896E6E00C941D
:100690006330A8E1B0E0EFE4F3E00C944730698305
:1006A0007A838B839C832D833E834F83588789E095
:1006B000E82EF12CEC0EFD1ECE010196B7010E9432
:1006C000D2048E010F5E1F4FCE010596B8010E9425
:1006D000D2048985823040F08989823028F0C701B0
:1006E000B8010E944A0501C08FEF6896E6E00C94BD
:1006F0006330A8E1B0E0EFE7F3E00C9447306983A2
:100700007A838B839C832D833E834F83588789E034
:10071000E82EF12CEC0EFD1ECE010196B7010E94D1
:10072000D2048E010F5E1F4FCE010596B8010E94C4
:10073000D2048985823040F08989823028F0C7014F
:10074000B8010E944A0501C081E06896E6E00C9479
:100750006330ACE0B0E0EFEAF3E00C944B30698337
:100760007A838B839C83CE010196BE016B5F7F4FA2
:100770000E94D2048D81823061F1823050F1843048
:1007800021F48E81882351F12EC02F81388537FDC9
:1007900020C06E812F3131051CF06623F9F023C093
:1007A0008EE190E0821B930B29853A854B855C8511
:1007B00004C056954795379527958A95D2F76623B5
:1007C000B1F050954095309521953F4F4F4F5F4F79
:1007D0000EC020E030E040E050E009C02FEF3FEFD6
:1007E0004FEF5FE704C020E030E040E050E8B9019F
:1007F000CA012C96E2E00C946730DF92EF92FF92F0
:100800000F931F93FC01E480F58006811781D1804E
:100810008081823048F480E090E0A0E1B0E0E82AF6
:10082000F92A0A2B1B2BA5C0843009F49FC0823003
:1008300021F4EE24FF24870105C0E114F104010531
:10084000110519F4E0E0F0E096C0628173819FEF3A
:10085000623879070CF05BC022E83FEF261B370BAC
:100860002A3131052CF020E030E040E050E02AC091
:10087000B801A701022E04C0769567955795479554
:100880000A94D2F781E090E0A0E0B0E004C0880FC5
:10089000991FAA1FBB1F2A95D2F70197A109B10979
:1008A0008E219F21A023B1230097A105B10521F03E
:1008B00081E090E0A0E0B0E09A01AB01282B392B59
:1008C0004A2B5B2BDA01C9018F779070A070B07052
:1008D00080349105A105B10539F427FF09C0205CDA
:1008E0003F4F4F4F5F4F04C0215C3F4F4F4F5F4F13
:1008F000E0E0F0E02030A0E03A07A0E04A07A0E402
:100900005A0710F0E1E0F0E079018A0127C0603871
:10091000710564F5FB01E158FF4FD801C7018F77DE
:100920009070A070B07080349105A105B10539F4C4
:10093000E7FE0DC080E490E0A0E0B0E004C08FE3EB
:1009400090E0A0E0B0E0E80EF91E0A1F1B1F17FFA1
:1009500005C016950795F794E794319687E01695AC
:100960000795F794E7948A95D1F705C0EE24FF2404
:100970008701EFEFF0E06E2F679566276795902F60
:100980009F77D794DD24D7948E2F8695492F462BB9
:10099000582F5D29B701CA011F910F91FF90EF9069
:1009A000DF900895FC01DB01408151812281622F9B
:1009B0006F7770E0221F2227221F9381892F880FD3
:1009C000822B282F30E0991F9927991F11969C930D
:1009D000119721153105A9F54115510561057105DD
:1009E00011F482E037C082E89FEF13969C938E93B8
:1009F00012979A01AB0167E0220F331F441F551F66
:100A00006A95D1F783E08C930DC0220F331F441FEA
:100A1000551F12968D919C911397019713969C9355
:100A20008E931297203080E0380780E0480780E4FA
:100A3000580758F314962D933D934D935C93179755
:100A400008952F3F310579F4411551056105710570
:100A500019F484E08C93089564FF03C081E08C93C3
:100A600012C01C9210C02F57304013963C932E9307
:100A7000129783E08C9387E0440F551F661F771F02
:100A80008A95D1F7706414964D935D936D937C9322
:100A9000179708951F93DC01FB019C91923008F495
:100AA00047C08081823008F443C0943051F41196DD
:100AB0001C91843099F58181682F70E0611B710968
:100AC0003FC0843021F0923031F48230B9F181811D
:100AD000882389F12DC011961C9111978230F1F075
:100AE00081811817D9F412962D913C911397828128
:100AF00093818217930794F028173907BCF0149656
:100B00008D919D910D90BC91A02D248135814681C0
:100B10005781281739074A075B0718F4112341F05A
:100B20000AC082179307A407B50740F4112319F0F0
:100B300061E070E005C06FEF7FEF02C060E070E041
:100B4000CB011F910895DF93CF9300D00F92CDB7C3
:100B5000DEB71B82ABE2B0E0EBE2F0E080818D7F9C
:100B60008C9383E390E09A838983E0E4F0E0108241
:100B7000E9E2F0E089818083ABE2B0E0EBE2F0E013
:100B800080818E7F8C938B818F7B8B838B818F7EFB
:100B90008B838B818F7D8B838B81877F8B838B81F5
:100BA00082608B838B8184608B83AAE2B0E0EAE26F
:100BB000F0E080818B7F8C938B8180688B83E0E475
:100BC000F0E08B818083AAE2B0E0EAE2F0E080818D
:100BD0008F778C93AAE2B0E0EAE2F0E080818F7B2D
:100BE0008C93AAE2B0E0EAE2F0E080818F7D8C9302
:100BF000AAE2B0E0EAE2F0E0808180618C93AAE2B0
:100C0000B0E0EAE2F0E0808188608C930F900F9072
:100C10000F90CF91DF910895DF93CF9300D000D054
:100C200000D0CDB7DEB78E831D8219821A821B8257
:100C30001C828091EE05882309F044C081E08093F6
:100C4000EE050BC089819A81AB81BC810196A11D03
:100C5000B11D89839A83AB83BC83EBE2F0E0808192
:100C6000882F90E0807290709595879595958795DF
:100C7000959587959595879595958795009761F4B6
:100C800089819A81AB81BC81803127E2920720E083
:100C9000A20720E0B207B1F689819A81AB81BC81BD
:100CA000803127E2920720E0A20720E0B20719F482
:100CB00084E08D8304C0ECE2F0E08E8180831092AA
:100CC000EE0502C083E08D838D8126960FB6F894E1
:100CD000DEBF0FBECDBFCF91DF910895DF93CF93DD
:100CE000CDB7DEB727970FB6F894DEBF0FBECDBFE6
:100CF0009F838E831D8219821A821B821C828E81A1
:100D00009F81009709F446C08091EE05882309F081
:100D10003EC081E08093EE050BC089819A81AB8152
:100D2000BC810196A11DB11D89839A83AB83BC83CD
:100D3000EBE2F0E08081881F8827881F882F90E0F1
:100D40009070009761F489819A81AB81BC81803178
:100D500027E2920720E0A20720E0B207F1F689819E
:100D60009A81AB81BC81803127E2920720E0A20703
:100D700020E0B20719F484E08D8306C0ECE2F0E0D5
:100D80008081EE81FF8180831092EE0505C083E0B3
:100D90008D8302C082E08D838D8127960FB6F894F3
:100DA000DEBF0FBECDBFCF91DF910895DF93CF930C
:100DB000CDB7DEB727970FB6F894DEBF0FBECDBF15
:100DC0009F838E831D8219821A821B821C828E81D0
:100DD0009F81009729F119C029813A818E819F81D5
:100DE000FC01E20FF31F80810E940C068D83898134
:100DF0009A81AB81BC810196A11DB11D89839A8323
:100E0000AB83BC838D81882369F429813A818E81EB
:100E10009F81FC01E20FF31F80818823E9F602C065
:100E200082E08D838D8127960FB6F894DEBF0FBECA
:100E3000CDBFCF91DF910895DF93CF9300D000D045
:100E40000F92CDB7DEB79B838A837D836C83198233
:100E50008091EE05882399F58A819B81009761F145
:100E60008C819D81009741F181E08093EE058A811C
:100E70009B819093E9058093E8058C819D819093F7
:100E8000ED058093EC051092F005ACE2B0E0209106
:100E9000E8053091E9058091F005882F90E0F9018F
:100EA000E80FF91F80818C93AAE2B0E0EAE2F0E05B
:100EB000808180648C9305C082E0898302C083E0D6
:100EC000898389810F900F900F900F900F90CF9191
:100ED000DF910895DF93CF93CDB7DEB72B970FB691
:100EE000F894DEBF0FBECDBF9F838E83488759879E
:100EF0006A877B871D828E819F81009751F11982BD
:100F00001A821B821C8217C029813A818E819F819F
:100F1000820F931F0E946E068D838D818823D9F4E2
:100F200089819A81AB81BC810196A11DB11D898304
:100F30009A83AB83BC8329813A814B815C8188850C
:100F40009985AA85BB85281739074A075B07E0F210
:100F500002C082E08D838D812B960FB6F894DEBFA0
:100F60000FBECDBFCF91DF910895DF93CF93CDB763
:100F7000DEB729970FB6F894DEBF0FBECDBF9B83B7
:100F80008A834C835D836E837F83398728871982A8
:100F90008091EE05882339F58A819B81009701F1C4
:100FA000888599850097E1F081E08093EE058A813C
:100FB0009B819093EB058093EA05888599859093B2
:100FC000ED058093EC058C818093EF051092F00580
:100FD000AAE2B0E0EAE2F0E0808180688C9305C08C
:100FE00082E0898302C083E08983898129960FB6D4
:100FF000F894DEBF0FBECDBFCF91DF9108951F9251
:101000000F920FB60F9211242F933F934F935F933C
:101010006F937F938F939F93AF93BF93EF93FF93C0
:10102000DF93CF93CDB7DEB72091EA053091EB0582
:101030008091F005882F90E0D901A80FB91FECE24C
:10104000F0E080818C938091F0058F5F8093F005B4
:101050009091F0058091EF059817B1F41092F0058A
:101060001092EE058091EC059091ED05009729F026
:10107000E091EC05F091ED050995AAE2B0E0EAE215
:10108000F0E080818F778C93CF91DF91FF91EF918A
:10109000BF91AF919F918F917F916F915F914F9190
:1010A0003F912F910F900FBE0F901F9018951F9298
:1010B0000F920FB60F9211242F933F934F935F938C
:1010C0006F937F938F939F93AF93BF93EF93FF9310
:1010D000DF93CF93CDB7DEB78091F0058F5F80931C
:1010E000F0052091E8053091E9058091F005882F01
:1010F00090E0F901E80FF91F80818823B9F410927C
:10110000F0051092EE058091EC059091ED050097A9
:1011100029F0E091EC05F091ED050995AAE2B0E027
:10112000EAE2F0E080818F7B8C930FC0ACE2B0E00C
:101130002091E8053091E9058091F005882F90E035
:10114000F901E80FF91F80818C93CF91DF91FF9116
:10115000EF91BF91AF919F918F917F916F915F912F
:101160004F913F912F910F900FBE0F901F901895A8
:10117000DF93CF93CDB7DEB7A3E5B0E0E3E5F0E0D2
:10118000808180648C93A3E5B0E0E3E5F0E08081AA
:1011900088608C93A3E5B0E0E3E5F0E080818F7E8A
:1011A0008C93A3E5B0E0E3E5F0E0808180628C936E
:1011B000ECE5F0E01082A3E5B0E0E3E5F0E080814B
:1011C000887F8C93A3E5B0E0E3E5F0E08081846064
:1011D0008C93CF91DF910895DF93CF93CDB7DEB796
:1011E000AFE4B0E0EFE4F0E080818E7F8C93AFE479
:1011F000B0E0EFE4F0E0808182608C93AEE4B0E098
:10120000EEE4F0E0808188608C93AEE4B0E0EEE440
:10121000F0E0808180618C93EAE4F0E0118210823A
:10122000E8E4F0E011821082E6E4F0E08FEF90E075
:1012300091838083AEE4B0E0EEE4F0E080818064EE
:101240008C93AFE4B0E0EFE4F0E080818F7B8C938F
:10125000AFE4B0E0EFE4F0E0808180688C93AFE42D
:10126000B0E0EFE4F0E080818F7E8C93AFE4B0E0FB
:10127000EFE4F0E0808180628C93A9E5B0E0E9E5DD
:10128000F0E080818B7F8C93A9E5B0E0E9E5F0E0A8
:1012900080818F7E8C93A9E5B0E0E9E5F0E0808164
:1012A000877F8C93A9E5B0E0E9E5F0E080818F7D50
:1012B0008C93AEE4B0E0EEE4F0E08081887F8C9324
:1012C000AEE4B0E0EEE4F0E0808182608C93CF91F8
:1012D000DF910895DF93CF93CDB7DEB7A5E4B0E0FB
:1012E000E5E4F0E0808180648C93A5E4B0E0E5E47F
:1012F000F0E0808188608C93A5E4B0E0E5E4F0E064
:1013000080818F7E8C93A5E4B0E0E5E4F0E08081FD
:1013100080628C93E3E4F0E01082A5E4B0E0E5E4C1
:10132000F0E08081887F8C93A5E4B0E0E5E4F0E014
:10133000808184608C93CF91DF910895DF93CF9368
:101340000F92CDB7DEB78983E2E5F0E08981808333
:101350000F90CF91DF910895DF93CF9300D0CDB759
:10136000DEB79A838983ECE4F0E089819A819183E6
:1013700080830F900F90CF91DF910895DF93CF93EB
:101380000F92CDB7DEB78983E4E4F0E089818083F2
:101390000F90CF91DF910895DF93CF930F92CDB748
:1013A000DEB78983ECE5F0E0898180830F90CF91EF
:1013B000DF910895DF93CF9300D0CDB7DEB79A8346
:1013C0008983EAE4F0E089819A81918380830F9098
:1013D0000F90CF91DF910895DF93CF9300D0CDB7D9
:1013E000DEB79A838983E8E4F0E089819A8191836A
:1013F00080830F900F90CF91DF910895DF93CF936B
:101400000F92CDB7DEB78983E3E4F0E08981808372
:101410000F90CF91DF910895DF93CF9300D0CDB798
:10142000DEB79A838983E6E4F0E089819A8191832B
:1014300080830F900F90CF91DF910895DF93CF932A
:10144000CDB7DEB7E2E5F0E08081CF91DF9108957E
:10145000DF93CF93CDB7DEB7ECE4F0E080819181EC
:10146000CF91DF910895DF93CF93CDB7DEB7E4E45A
:10147000F0E08081CF91DF910895DF93CF9300D08A
:10148000CDB7DEB79A838983EAE4F0E089819A8157
:10149000918380830F900F90CF91DF910895DF9318
:1014A000CF93CDB7DEB7AEE4B0E0EEE4F0E08081FC
:1014B00080648C93A9E5B0E0E9E5F0E0808180628A
:1014C0008C93CF91DF910895DF93CF9300D0CDB768
:1014D000DEB78A8319828A81813041F4AEE4B0E0BC
:1014E000EEE4F0E0808180648C930DC08A818823D3
:1014F00041F4AEE4B0E0EEE4F0E080818F7B8C93C9
:1015000002C081E0898389810F900F90CF91DF9194
:101510000895DF93CF93CDB7DEB7A9E5B0E0E9E555
:10152000F0E0808180628C93CF91DF910895DF930A
:10153000CF93CDB7DEB7A9E5B0E0E9E5F0E0808173
:101540008F7D8C93CF91DF910895DF93CF93CDB7AB
:10155000DEB7E6E4F0E080819181CF91DF910895DC
:10156000DF93CF93CDB7DEB7A1E4B0E0E1E4F0E0E4
:101570008081887F8C93A1E4B0E0E1E4F0E0808199
:1015800086608C93CF91DF910895DF93CF93CDB791
:10159000DEB7A1E4B0E0E1E4F0E0808188608C9304
:1015A000CF91DF910895DF93CF93CDB7DEB7A1E45C
:1015B000B0E0E1E4F0E0808188618C93E1E4F0E068
:1015C0001082CF91DF910895DF93CF9300D000D0A8
:1015D000CDB7DEB79B838A836C8319828A819B8116
:1015E000009769F08C81882F90E0880F991FFC018B
:1015F000EF50FA4F8A819B819183808302C082E001
:10160000898389810F900F900F900F90CF91DF9178
:1016100008951F920F920FB60F9211242F933F93AC
:101620004F935F936F937F938F939F93AF93BF93EA
:10163000EF93FF93DF93CF93CDB7DEB7809107068B
:1016400090910806009729F0E0910706F0910806AE
:101650000995CF91DF91FF91EF91BF91AF919F914C
:101660008F917F916F915F914F913F912F910F904B
:101670000FBE0F901F9018951F920F920FB60F92EA
:1016800011242F933F934F935F936F937F938F9387
:101690009F93AF93BF93EF93FF93DF93CF93CDB718
:1016A000DEB78091050690910606009729F0E0913B
:1016B0000506F09106060995CF91DF91FF91EF9114
:1016C000BF91AF919F918F917F916F915F914F915A
:1016D0003F912F910F900FBE0F901F9018951F9262
:1016E0000F920FB60F9211242F933F934F935F9356
:1016F0006F937F938F939F93AF93BF93EF93FF93DA
:10170000DF93CF93CDB7DEB78091030690910406A7
:10171000009729F0E0910306F09104060995CF9116
:10172000DF91FF91EF91BF91AF919F918F917F9149
:101730006F915F914F913F912F910F900FBE0F903E
:101740001F9018951F920F920FB60F9211242F938E
:101750003F934F935F936F937F938F939F93AF9339
:10176000BF93EF93FF93DF93CF93CDB7DEB7809115
:10177000010690910206009729F0E0910106F09190
:1017800002060995CF91DF91FF91EF91BF91AF9143
:101790009F918F917F916F915F914F913F912F9189
:1017A0000F900FBE0F901F9018951F920F920FB6BB
:1017B0000F9211242F933F934F935F936F937F93D7
:1017C0008F939F93AF93BF93EF93FF93DF93CF9349
:1017D000CDB7DEB78091FF0590910006009729F004
:1017E000E091FF05F09100060995CF91DF91FF91FF
:1017F000EF91BF91AF919F918F917F916F915F9189
:101800004F913F912F910F900FBE0F901F90189501
:101810001F920F920FB60F9211242F933F934F9365
:101820005F936F937F938F939F93AF93BF93EF9348
:10183000FF93DF93CF93CDB7DEB78091FD059091F5
:10184000FE05009729F0E091FD05F091FE05099550
:10185000CF91DF91FF91EF91BF91AF919F918F91C8
:101860007F916F915F914F913F912F910F900FBE9C
:101870000F901F9018951F920F920FB60F92112480
:101880002F933F934F935F936F937F938F939F9388
:10189000AF93BF93EF93FF93DF93CF93CDB7DEB7B3
:1018A0008091FB059091FC05009729F0E091FB05E4
:1018B000F091FC050995CF91DF91FF91EF91BF91D8
:1018C000AF919F918F917F916F915F914F913F91D8
:1018D0002F910F900FBE0F901F9018951F920F928F
:1018E0000FB60F9211242F933F934F935F936F93F3
:1018F0007F938F939F93AF93BF93EF93FF93DF9368
:10190000CF93CDB7DEB78091F9059091FA05009796
:1019100029F0E091F905F091FA050995CF91DF9151
:10192000FF91EF91BF91AF919F918F917F916F91B7
:101930005F914F913F912F910F900FBE0F901F908D
:101940001895DF93CF93CDB7DEB7ADE2B0E0EDE20F
:10195000F0E080818F7D8C93ADE2B0E0EDE2F0E0CD
:10196000808180618C9381E065E041E00E945413A6
:1019700081E067E041E00E945413ADE2B0E0EDE2A7
:10198000F0E08081877F8C93ADE2B0E0EDE2F0E0A3
:1019900080818B7F8C93ADE2B0E0EDE2F0E080815E
:1019A00081608C93ADE2B0E0EDE2F0E080818D7F6C
:1019B0008C93AEE2B0E0EEE2F0E080818E7F8C931B
:1019C000ADE2B0E0EDE2F0E080818F778C93ADE2A4
:1019D000B0E0EDE2F0E0808180648C93CF91DF9104
:1019E0000895DF93CF93CDB7DEB761970FB6F89424
:1019F000DEBF0FBECDBF9B838A8319828A819B8104
:101A0000009709F4CDC1EA81FB818581882309F41F
:101A1000C7C1EA81FB818481882309F4C1C1EA81BD
:101A2000FB818681882309F4BBC1EA81FB81828125
:101A3000882309F4B5C1EA81FB818081882309F4F8
:101A4000AFC1EA81FB818381882309F4A9C1EA81BE
:101A5000FB818181882309F4A3C1EA81FB8185810F
:101A6000282F30E0398B288B88899989009731F0AD
:101A7000288939892130310549F010C0ADE2B0E044
:101A8000EDE2F0E080818B7F8C930AC0ADE2B0E0A4
:101A9000EDE2F0E0808184608C9302C081E0898374
:101AA000EA81FB818481282F30E03F872E878E8555
:101AB0009F85009731F02E853F852130310549F013
:101AC00010C0ADE2B0E0EDE2F0E08081877F8C9362
:101AD0000AC0ADE2B0E0EDE2F0E0808188608C9376
:101AE00002C081E08983EA81FB818681282F30E072
:101AF0003D872C878C859D858330910509F46AC0CC
:101B00002C853D852430310584F48C859D8581307C
:101B10009105A1F12C853D85223031050CF044C0A2
:101B20008C859D850097A1F0ADC02C853D85253025
:101B3000310509F47BC08C859D85853091050CF4B9
:101B40005FC02C853D852630310509F485C09AC0DB
:101B5000ADE2B0E0EDE2F0E080818E7F8C93ADE20B
:101B6000B0E0EDE2F0E080818D7F8C93AEE2B0E0FA
:101B7000EEE2F0E0808181608C9386C0ADE2B0E05F
:101B8000EDE2F0E080818E7F8C93ADE2B0E0EDE29B
:101B9000F0E080818D7F8C93AEE2B0E0EEE2F0E089
:101BA00080818E7F8C9370C0ADE2B0E0EDE2F0E01A
:101BB000808181608C93ADE2B0E0EDE2F0E0808165
:101BC0008D7F8C93AEE2B0E0EEE2F0E08081816048
:101BD0008C935AC0ADE2B0E0EDE2F0E0808181602C
:101BE0008C93ADE2B0E0EDE2F0E080818D7F8C93EC
:101BF000AEE2B0E0EEE2F0E080818E7F8C9344C0F4
:101C0000ADE2B0E0EDE2F0E080818E7F8C93ADE25A
:101C1000B0E0EDE2F0E0808182608C93AEE2B0E073
:101C2000EEE2F0E0808181608C932EC0ADE2B0E006
:101C3000EDE2F0E080818E7F8C93ADE2B0E0EDE2EA
:101C4000F0E0808182608C93AEE2B0E0EEE2F0E002
:101C500080818E7F8C9318C0ADE2B0E0EDE2F0E0C1
:101C6000808181608C93ADE2B0E0EDE2F0E08081B4
:101C700082608C93AEE2B0E0EEE2F0E080818E7F95
:101C80008C9302C081E08983EA81FB818281282FC5
:101C900030E03B872A878A859B85009769F02A85F3
:101CA0003B852130310581F4ADE2B0E0EDE2F0E0BA
:101CB00080818F7D8C930AC0ADE2B0E0EDE2F0E070
:101CC000808180628C9302C081E08983EA81FB81FC
:101CD0008381282F30E03987288788859985009768
:101CE00031F0288539852130310549F010C0ADE249
:101CF000B0E0EDE2F0E0808180618C930AC0ADE25B
:101D0000B0E0EDE2F0E080818F7E8C9302C081E054
:101D10008983EA81FB818081282F30E03F832E83F5
:101D20008E819F81009731F02E813F8121303105D6
:101D300049F010C0ADE2B0E0EDE2F0E080818F77D5
:101D40008C930AC0ADE2B0E0EDE2F0E08081806803
:101D50008C9302C081E08983EA81FB818181282FF5
:101D600030E03D832C838C819D81009731F02C8164
:101D70003D812130310549F010C0ADE2B0E0EDE227
:101D8000F0E080818F7B8C930DC0ADE2B0E0EDE29E
:101D9000F0E0808180648C9305C081E0898302C07B
:101DA00082E08983898161960FB6F894DEBF0FBE09
:101DB000CDBFCF91DF910895DF93CF93CDB7DEB73D
:101DC00028970FB6F894DEBF0FBECDBF8E837887FD
:101DD0006F831D8219821A821B821C8280910706E2
:101DE000882309F042C081E080930706EFE2F0E02B
:101DF0008E8180830BC089819A81AB81BC810196E1
:101E0000A11DB11D89839A83AB83BC83EEE2F0E010
:101E10008081881F8827881F882F90E09070009706
:101E200061F489819A81AB81BC81803127E292077C
:101E300020E0A20720E0B207F0F289819A81AB810D
:101E4000BC81803127E2920720E0A20720E0B207A0
:101E500019F484E08D8306C0EFE2F0E08081EF8129
:101E6000F88580831092070602C083E08D838D8100
:101E700028960FB6F894DEBF0FBECDBFCF91DF918D
:101E80000895DF93CF93CDB7DEB727970FB6F894B9
:101E9000DEBF0FBECDBF9C838B837E836D834F835C
:101EA0001A8219828B819C81009709F18D819E8114
:101EB0000097E9F017C08981282F30E08B819C8141
:101EC000FC01E20FF31F40818981282F30E08D81D2
:101ED0009E81280F391F842FB9010E94DC0E898151
:101EE0008F5F898399818F81981728F302C082E0E0
:101EF0008A838A8127960FB6F894DEBF0FBECDBFC6
:101F0000CF91DF910895DF93CF9300D00F92CDB79B
:101F1000DEB79B838A83198280910706882309F0A4
:101F200055C08A819B81009709F44DC0EA81FB81ED
:101F300080819181009709F446C0EA81FB8182810A
:101F40009381009709F43FC0EA81FB8185819681E6
:101F50000097C9F181E080930706EA81FB818081C7
:101F600091819093020680930106EA81FB81828130
:101F700093819093040680930306EA81FB81848118
:101F800080930806EA81FB818581968190930606FD
:101F90008093050610920906AFE2B0E02091010699
:101FA0003091020680910906882F90E0F901E80F30
:101FB000F91F80818C93ADE2B0E0EDE2F0E080812A
:101FC00080688C9305C082E0898302C083E08983A6
:101FD00089810F900F900F90CF91DF9108951F92FC
:101FE0000F920FB60F9211242F933F934F935F934D
:101FF0006F937F938F939F93AF93BF93EF93FF93D1
:10200000DF93CF93CDB7DEB720910306309104065E
:1020100080910906882F90E0D901A80FB91FEFE23F
:10202000F0E080818C93809109068F5F8093090690
:1020300090910906809108069817A9F41092070656
:10204000ADE2B0E0EDE2F0E080818F778C9380919B
:102050000506909106060097A9F0E0910506F0911B
:10206000060609950FC0AFE2B0E02091010630915D
:10207000020680910906882F90E0F901E80FF91F08
:1020800080818C93CF91DF91FF91EF91BF91AF91C0
:102090009F918F917F916F915F914F913F912F9180
:1020A0000F900FBE0F901F901895DF93CF93CDB771
:1020B000DEB7AFE5B0E0EFE5F0E0808180688C93BB
:1020C000CF91DF910895DF93CF93CDB7DEB7AFE522
:1020D000B0E0EFE5F0E080818F778C93CF91DF91D6
:1020E0000895DF93CF93CDB7DEB7A4E5B0E0E4E584
:1020F000F0E0808180648C93CF91DF910895DF932D
:10210000CF9300D000D000D0CDB7DEB789836A83EB
:102110008A81863008F4D3C08A81883008F0CFC025
:102120008A81882F90E00697880F991F8A8389817A
:10213000282F30E03E832D838D819E818130910553
:1021400009F495C02D813E812230310534F48D8112
:102150009E81009709F461C0B2C02D813E8122307A
:10216000310531F08D819E818330910561F1A7C0E9
:10217000A5E5B0E0E5E5F0E08081482F8A81282FD1
:1021800030E081E090E002C0880F991F2A95E2F7C5
:10219000809584238C93A5E5B0E0E5E5F0E08081AF
:1021A000482F8A81882F90E09C012F5F3F4F81E06C
:1021B00090E0022E02C0880F991F0A94E2F78095E2
:1021C00084238C937CC0A5E5B0E0E5E5F0E0808158
:1021D000482F8A81282F30E081E090E002C0880FEC
:1021E000991F2A95E2F7842B8C93A5E5B0E0E5E5ED
:1021F000F0E08081482F8A81882F90E09C012F5F3A
:102200003F4F81E090E0022E02C0880F991F0A9490
:10221000E2F7809584238C9352C0A5E5B0E0E5E514
:10222000F0E08081482F8A81282F30E081E090E023
:1022300002C0880F991F2A95E2F7809584238C931A
:10224000A5E5B0E0E5E5F0E08081482F8A81882FA0
:1022500090E09C012F5F3F4F81E090E0022E02C092
:10226000880F991F0A94E2F7842B8C9328C0A5E568
:10227000B0E0E5E5F0E08081482F8A81282F30E04A
:1022800081E090E002C0880F991F2A95E2F7842B25
:102290008C93A5E5B0E0E5E5F0E08081482F8A81E8
:1022A000882F90E09C012F5F3F4F81E090E0022E4D
:1022B00002C0880F991F0A94E2F7842B8C938A81BD
:1022C0008530F1F48981282F30E03C832B838B818A
:1022D0009C81009731F02B813C812130310549F000
:1022E0000FC0A4E5B0E0E4E5F0E080818F7B8C9343
:1022F00007C0A4E5B0E0E4E5F0E0808180648C9361
:1023000026960FB6F894DEBF0FBECDBFCF91DF91FA
:102310000895DF93CF9300D0CDB7DEB78A831982BB
:102320008A81863031F08A81873019F08A81853040
:10233000A9F4ABE5B0E0EBE5F0E08081482F8A81BD
:10234000282F30E081E090E0022E02C0880F991F14
:102350000A94E2F7809584238C9302C081E08983FC
:1023600089810F900F90CF91DF910895DF93CF93E4
:1023700000D0CDB7DEB78A8319828A81863031F0EA
:102380008A81873019F08A818530A1F4ABE5B0E00D
:10239000EBE5F0E08081482F8A81282F30E081E052
:1023A00090E0022E02C0880F991F0A94E2F7842B56
:1023B0008C9302C081E0898389810F900F90CF9127
:1023C000DF910895DF93CF930F92CDB7DEB7898366
:1023D000AAE5B0E0EAE5F0E08081482F8981282F66
:1023E00030E081E090E0022E02C0880F991F0A942D
:1023F000E2F7842B8C930F90CF91DF910895DF93B8
:10240000CF930F92CDB7DEB78983EAE5F0E0808104
:10241000482F50E08981282F30E081E090E002C011
:10242000880F991F2A95E2F79A0128233923898179
:10243000882F90E0A90102C0559547958A95E2F74B
:10244000CA010F90CF91DF910895DF93CF9300D011
:1024500000D0CDB7DEB79B838A836C8319828A81D3
:102460009B81009709F18C81863039F48A819B81A8
:1024700090930B0680930A0619C08C81873039F43B
:102480008A819B8190930D0680930C060FC08C81EE
:10249000853039F48A819B8190930F0680930E06D4
:1024A00005C081E0898302C081E0898389810F9022
:1024B0000F900F900F90CF91DF9108951F920F9280
:1024C0000FB60F9211242F933F934F935F936F9307
:1024D0007F938F939F93AF93BF93EF93FF93DF937C
:1024E000CF93CDB7DEB780910A0690910B06009787
:1024F00041F0E0910A06F0910B06099586E00E94F2
:10250000E211CF91DF91FF91EF91BF91AF919F9138
:102510008F917F916F915F914F913F912F910F908C
:102520000FBE0F901F9018951F920F920FB60F922B
:1025300011242F933F934F935F936F937F938F93C8
:102540009F93AF93BF93EF93FF93DF93CF93CDB759
:10255000DEB780910C0690910D06009741F0E09156
:102560000C06F0910D06099587E00E94E211CF91CB
:10257000DF91FF91EF91BF91AF919F918F917F91EB
:102580006F915F914F913F912F910F900FBE0F90E0
:102590001F9018951F920F920FB60F9211242F9330
:1025A0003F934F935F936F937F938F939F93AF93DB
:1025B000BF93EF93FF93DF93CF93CDB7DEB78091B7
:1025C0000E0690910F06009741F0E0910E06F091F3
:1025D0000F06099585E00E94E211CF91DF91FF91EE
:1025E000EF91BF91AF919F918F917F916F915F918B
:1025F0004F913F912F910F900FBE0F901F90189504
:10260000DF93CF9300D00F92CDB7DEB79A83898343
:102610006B83EEE3F0E089819A8191838083EDE31F
:10262000F0E08B818083ACE3B0E0ECE3F0E080810C
:1026300084608C93ACE3B0E0ECE3F0E080818260F6
:102640008C93ECE3F0E08081882F90E082709070B2
:102650009595879581309105A1F30F900F900F907C
:10266000CF91DF910895DF93CF9300D0CDB7DEB740
:102670009A838983EEE3F0E089818083EFE3F0E0E1
:1026800089819A81892F99278083ACE3B0E0ECE3BC
:10269000F0E0808181608C93EDE3F0E080810F9029
:1026A0000F90CF91DF910895DF93CF93CDB7DEB731
:1026B00028970FB6F894DEBF0FBECDBF8A836B8319
:1026C0004C8381E089838A81843008F0F1C08B815A
:1026D000883008F0EDC08C81813009F06FC08A81AC
:1026E000282F30E038872F838F819885813091059E
:1026F00049F12F813885223031052CF48F8198855E
:10270000009761F0D6C02F8138852230310571F1F4
:102710008F81988583309105E9F1CBC0AAE3B0E0C1
:10272000EAE3F0E08081482F8B81282F30E081E0C0
:1027300090E0022E02C0880F991F0A94E2F7842BC2
:102740008C93B7C0A7E3B0E0E7E3F0E08081482FC7
:102750008B81282F30E081E090E0022E02C0880FAC
:10276000991F0A94E2F7842B8C93A3C0A4E3B0E0F2
:10277000E4E3F0E08081482F8B81282F30E081E076
:1027800090E0022E02C0880F991F0A94E2F7842B72
:102790008C938FC0A1E3B0E0E1E3F0E08081482FAB
:1027A0008B81282F30E081E090E0022E02C0880F5C
:1027B000991F0A94E2F7842B8C937BC08C81882329
:1027C00009F074C08A81282F30E03E832D838D81EB
:1027D0009E818130910559F12D813E812230310554
:1027E0002CF48D819E81009769F063C02D813E811C
:1027F0002230310589F18D819E818330910509F464
:1028000040C057C0AAE3B0E0EAE3F0E08081482F7F
:102810008B81282F30E081E090E0022E02C0880FEB
:10282000991F0A94E2F7809584238C9342C0A7E312
:10283000B0E0E7E3F0E08081482F8B81282F30E083
:1028400081E090E0022E02C0880F991F0A94E2F7FF
:10285000809584238C932DC0A4E3B0E0E4E3F0E002
:102860008081482F8B81282F30E081E090E0022E7C
:1028700002C0880F991F0A94E2F7809584238C93F5
:1028800018C0A1E3B0E0E1E3F0E08081482F8B8144
:10289000282F30E081E090E0022E02C0880F991FBF
:1028A0000A94E2F7809584238C9303C0198201C0B7
:1028B0001982898128960FB6F894DEBF0FBECDBF6E
:1028C000CF91DF910895DF93CF93CDB7DEB72897EF
:1028D0000FB6F894DEBF0FBECDBF8A836B834C83E7
:1028E00081E089838A81843008F0F1C08B8188304F
:1028F00008F0EDC08C81813009F06FC08A81282FEB
:1029000030E038872F838F8198858130910549F198
:102910002F813885223031052CF48F8198850097DE
:1029200061F0D6C02F8138852230310571F18F8159
:10293000988583309105E9F1CBC0ABE3B0E0EBE3E0
:10294000F0E08081482F8B81282F30E081E090E0FB
:10295000022E02C0880F991F0A94E2F7842B8C93F1
:10296000B7C0A8E3B0E0E8E3F0E08081482F8B81B6
:10297000282F30E081E090E0022E02C0880F991FDE
:102980000A94E2F7842B8C93A3C0A5E3B0E0E5E3BF
:10299000F0E08081482F8B81282F30E081E090E0AB
:1029A000022E02C0880F991F0A94E2F7842B8C93A1
:1029B0008FC0A2E3B0E0E2E3F0E08081482F8B819A
:1029C000282F30E081E090E0022E02C0880F991F8E
:1029D0000A94E2F7842B8C937BC08C81882309F0C6
:1029E00074C08A81282F30E03E832D838D819E81A3
:1029F0008130910559F12D813E81223031052CF431
:102A00008D819E81009769F063C02D813E812230C7
:102A1000310589F18D819E818330910509F440C093
:102A200057C0ABE3B0E0EBE3F0E08081482F8B814F
:102A3000282F30E081E090E0022E02C0880F991F1D
:102A40000A94E2F7809584238C9342C0A8E3B0E017
:102A5000E8E3F0E08081482F8B81282F30E081E08F
:102A600090E0022E02C0880F991F0A94E2F7809529
:102A700084238C932DC0A5E3B0E0E5E3F0E08081F2
:102A8000482F8B81282F30E081E090E0022E02C099
:102A9000880F991F0A94E2F7809584238C9318C0BD
:102AA000A2E3B0E0E2E3F0E08081482F8B81282FA1
:102AB00030E081E090E0022E02C0880F991F0A9456
:102AC000E2F7809584238C9303C0198201C0198298
:102AD000898128960FB6F894DEBF0FBECDBFCF9187
:102AE000DF910895DF93CF93CDB7DEB727970FB669
:102AF000F894DEBF0FBECDBF8A836B835D834C83AA
:102B000081E089838A81843008F0A6C08B81883077
:102B100008F0A2C08A81282F30E03F832E834E81A7
:102B20005F8141305105C1F18E819F8182309105D5
:102B300034F42E813F812115310571F08EC04E8114
:102B40005F814230510509F447C08E819F818330F7
:102B5000910509F461C081C0E9E3F0E08081482F6C
:102B600050E08B81282F30E081E090E002C0880F98
:102B7000991F2A95E2F79A01282339238B81882F00
:102B800090E0A90102C0559547958A95E2F7CA01E0
:102B9000EC81FD81808361C0E6E3F0E08081482F15
:102BA00050E08B81282F30E081E090E002C0880F58
:102BB000991F2A95E2F79A01282339238B81882FC0
:102BC00090E0A90102C0559547958A95E2F7CA01A0
:102BD000EC81FD81808341C0E3E3F0E08081482FF8
:102BE00050E08B81282F30E081E090E002C0880F18
:102BF000991F2A95E2F79A01282339238B81882F80
:102C000090E0A90102C0559547958A95E2F7CA015F
:102C1000EC81FD81808321C0E0E3F0E08081482FDA
:102C200050E08B81282F30E081E090E002C0880FD7
:102C3000991F2A95E2F79A01282339238B81882F3F
:102C400090E0A90102C0559547958A95E2F7CA011F
:102C5000EC81FD81808301C01982898127960FB69E
:102C6000F894DEBF0FBECDBFCF91DF910895DF9303
:102C7000CF9300D000D00F92CDB7DEB78A836B839D
:102C800081E089838A81843008F073C08B81883029
:102C900008F06FC08A81282F30E03D832C838C811F
:102CA0009D818130910549F12C813D812230310592
:102CB0002CF48C819D81009761F05CC02C813D815A
:102CC0002230310571F18C819D8183309105E9F1CC
:102CD00051C0ABE3B0E0EBE3F0E08081482F8B81A3
:102CE000282F30E081E090E0022E02C0880F991F6B
:102CF0000A94E2F784278C933DC0A8E3B0E0E8E3B0
:102D0000F0E08081482F8B81282F30E081E090E037
:102D1000022E02C0880F991F0A94E2F784278C9331
:102D200029C0A5E3B0E0E5E3F0E08081482F8B8186
:102D3000282F30E081E090E0022E02C0880F991F1A
:102D40000A94E2F784278C9315C0A2E3B0E0E2E393
:102D5000F0E08081482F8B81282F30E081E090E0E7
:102D6000022E02C0880F991F0A94E2F784278C93E1
:102D700001C0198289810F900F900F900F900F90D2
:102D8000CF91DF910895DF93CF9300D000D000D092
:102D9000CDB7DEB78A836B834C8381E089838A81D8
:102DA000843008F03EC18B81883008F03AC18A81B6
:102DB000282F30E03E832D838D819E8181309105C7
:102DC00009F45DC02D813E81223031052CF48D81C6
:102DD0009E81009771F026C12D813E812230310500
:102DE00009F493C08D819E818330910509F4D3C08D
:102DF00019C18C81813071F5A0E5B0E0E0E5F0E02B
:102E000080818B7F8C93AAE3B0E0EAE3F0E08081DD
:102E1000482F8B81282F30E081E090E002C0880F9E
:102E2000991F2A95E2F7809584238C93ABE3B0E059
:102E3000EBE3F0E08081482F8B81282F30E081E0A8
:102E400090E0022E02C0880F991F0A94E2F7842BAB
:102E50008C93E8C0ABE3B0E0EBE3F0E08081482F77
:102E60008B81282F30E081E090E0022E02C0880F95
:102E7000991F0A94E2F7809584238C93D3C08C81A8
:102E8000813071F5A0E5B0E0E0E5F0E080818B7F76
:102E90008C93A7E3B0E0E7E3F0E08081482F8B81DB
:102EA000282F30E081E090E002C0880F991F2A951A
:102EB000E2F7809584238C93A8E3B0E0E8E3F0E0A8
:102EC0008081482F8B81282F30E081E090E0022E16
:102ED00002C0880F991F0A94E2F7842B8C93A2C03A
:102EE000A8E3B0E0E8E3F0E08081482F8B81282F51
:102EF00030E081E090E0022E02C0880F991F0A9412
:102F0000E2F7809584238C938DC08C81813071F59C
:102F1000A0E5B0E0E0E5F0E080818B7F8C93A4E356
:102F2000B0E0E4E3F0E08081482F8B81282F30E08F
:102F300081E090E002C0880F991F2A95E2F7809502
:102F400084238C93A5E3B0E0E5E3F0E08081482F93
:102F50008B81282F30E081E090E0022E02C0880FA4
:102F6000991F0A94E2F7842B8C935CC0A5E3B0E030
:102F7000E5E3F0E08081482F8B81282F30E081E06D
:102F800090E0022E02C0880F991F0A94E2F7809504
:102F900084238C9347C08C81813071F5A0E5B0E02B
:102FA000E0E5F0E080818B7F8C93A1E3B0E0E1E38A
:102FB000F0E08081482F8B81282F30E081E090E085
:102FC00002C0880F991F2A95E2F7809584238C937D
:102FD000A2E3B0E0E2E3F0E08081482F8B81282F6C
:102FE00030E081E090E0022E02C0880F991F0A9421
:102FF000E2F7842B8C9316C0A2E3B0E0E2E3F0E0AA
:103000008081482F8B81282F30E081E090E0022ED4
:1030100002C0880F991F0A94E2F7809584238C934D
:1030200001C01982898126960FB6F894DEBF0FBEC3
:10303000CDBFCF91DF910895DF93CF9300D000D023
:103040000F92CDB7DEB78A836B8381E089838A8153
:103050008430A8F58A81282F30E03D832C838C8131
:103060009D8181309105D1F02C813D812230310547
:103070002CF48C819D81009761F01FC02C813D81D3
:103080002230310581F08C819D818330910581F062
:1030900014C0EAE3F0E08B81808312C0E7E3F0E044
:1030A0008B8180830DC0E4E3F0E08B81808308C0D6
:1030B000E1E3F0E08B81808303C0198201C01982B3
:1030C00089810F900F900F900F900F90CF91DF910B
:1030D0000895DF93CF9300D000D00F92CDB7DEB725
:1030E0008A836B8381E089838A818430A8F58A8111
:1030F000282F30E03D832C838C819D818130910588
:10310000D1F02C813D81223031052CF48C819D81C0
:10311000009761F01FC02C813D812230310581F084
:103120008C819D818330910581F014C0EBE3F0E048
:103130008B81808312C0E8E3F0E08B8180830DC037
:10314000E5E3F0E08B81808308C0E2E3F0E08B816F
:10315000808303C0198201C0198289810F900F906A
:103160000F900F900F90CF91DF910895DF93CF9341
:10317000CDB7DEB727970FB6F894DEBF0FBECDBF31
:103180008A837C836B8381E089838A81843008F021
:103190003FC08A81282F30E03F832E838E819F811C
:1031A00081309105E1F02E813F81223031052CF4F0
:1031B0008E819F81009761F027C02E813F81223050
:1031C0003105A1F08E819F8183309105B1F01CC043
:1031D000E9E3F0E08081EB81FC81808316C0E6E3C7
:1031E000F0E08081EB81FC8180830FC0E3E3F0E0BD
:1031F0008081EB81FC81808308C0E0E3F0E0808186
:10320000EB81FC81808301C0198299819D8303C079
:10321000198229812D838D8127960FB6F894DEBF00
:103220000FBECDBFCF91DF910895DF93CF9300D034
:1032300000D0CDB7DEB78A8381E089838A8184306C
:1032400008F03FC08A81282F30E03C832B838B819C
:103250009C8181309105E9F02B813C812230310540
:103260002CF48B819C81009761F02CC02B813C81D8
:1032700022303105B1F08B819C8183309105C9F0FA
:1032800021C0ABE3B0E0EBE3F0E0808180958C936C
:1032900019C0A8E3B0E0E8E3F0E0808180958C936A
:1032A00011C0A5E3B0E0E5E3F0E0808180958C9368
:1032B00009C0A2E3B0E0E2E3F0E0808180958C9366
:1032C00001C0198289810F900F900F900F90CF91BC
:1032D000DF910895DF93CF9300D000D00F92CDB748
:1032E000DEB78A836B8381E089838A81843008F02A
:1032F00062C08B818F708B838A81282F30E03D8361
:103300002C838C819D818130910529F12C813D8117
:10331000223031052CF48C819D81009761F04CC0E6
:103320002C813D812230310531F18C819D818330AA
:10333000910589F141C0ABE3B0E0EBE3F0E08081BF
:10334000807F8C93ABE3B0E0EBE3F0E090818B8186
:10335000892B8C9331C0A8E3B0E0E8E3F0E08081F2
:10336000807F8C93A8E3B0E0E8E3F0E090818B816C
:10337000892B8C9321C0A5E3B0E0E5E3F0E08081E8
:10338000807F8C93A5E3B0E0E5E3F0E090818B8152
:10339000892B8C9311C0A2E3B0E0E2E3F0E08081DE
:1033A000807F8C93A2E3B0E0E2E3F0E090818B8138
:1033B000892B8C9301C0198289810F900F900F90F7
:1033C0000F900F90CF91DF910895DF93CF9300D0AE
:1033D00000D00F92CDB7DEB78A836B8381E08983FB
:1033E0008A81843008F063C08B818295807F8B83D3
:1033F0008A81282F30E03D832C838C819D81813010
:10340000910529F12C813D81223031052CF48C81EC
:103410009D81009761F04CC02C813D8122303105A7
:1034200031F18C819D818330910589F141C0ABE3FD
:10343000B0E0EBE3F0E080818F708C93ABE3B0E021
:10344000EBE3F0E090818B81892B8C9331C0A8E372
:10345000B0E0E8E3F0E080818F708C93A8E3B0E007
:10346000E8E3F0E090818B81892B8C9321C0A5E368
:10347000B0E0E5E3F0E080818F708C93A5E3B0E0ED
:10348000E5E3F0E090818B81892B8C9311C0A2E35E
:10349000B0E0E2E3F0E080818F708C93A2E3B0E0D3
:1034A000E2E3F0E090818B81892B8C9301C019823B
:1034B00089810F900F900F900F900F90CF91DF9117
:1034C0000895DF93CF9300D000D00F92CDB7DEB731
:1034D0008A836B8381E089838A81843008F062C0AB
:1034E0008B818F708B838A81282F30E03D832C83E2
:1034F0008C819D818130910529F12C813D81223083
:1035000031052CF48C819D81009761F04CC02C8199
:103510003D812230310531F18C819D8183309105CF
:1035200089F141C0AAE3B0E0EAE3F0E08081807F66
:103530008C93AAE3B0E0EAE3F0E090818B81892BE1
:103540008C9331C0A7E3B0E0E7E3F0E08081807FB7
:103550008C93A7E3B0E0E7E3F0E090818B81892BC7
:103560008C9321C0A4E3B0E0E4E3F0E08081807FAD
:103570008C93A4E3B0E0E4E3F0E090818B81892BAD
:103580008C9311C0A1E3B0E0E1E3F0E08081807FA3
:103590008C93A1E3B0E0E1E3F0E090818B81892B93
:1035A0008C9301C0198289810F900F900F900F901A
:1035B0000F90CF91DF910895DF93CF9300D000D08B
:1035C0000F92CDB7DEB78A836B8381E089838A81CE
:1035D000843008F063C08B818295807F8B838A81E1
:1035E000282F30E03D832C838C819D818130910593
:1035F00029F12C813D81223031052CF48C819D8173
:10360000009761F04CC02C813D812230310531F1B1
:103610008C819D818330910589F141C0AAE3B0E09E
:10362000EAE3F0E080818F708C93AAE3B0E0EAE3F4
:10363000F0E090818B81892B8C9331C0A7E3B0E0BF
:10364000E7E3F0E080818F708C93A7E3B0E0E7E3DD
:10365000F0E090818B81892B8C9321C0A4E3B0E0B2
:10366000E4E3F0E080818F708C93A4E3B0E0E4E3C6
:10367000F0E090818B81892B8C9311C0A1E3B0E0A5
:10368000E1E3F0E080818F708C93A1E3B0E0E1E3AF
:10369000F0E090818B81892B8C9301C01982898104
:1036A0000F900F900F900F900F90CF91DF91089592
:1036B000DF93CF9300D00F92CDB7DEB769837A83C3
:1036C0008B8389819A81692F41E00E9454130F9066
:1036D0000F900F90CF91DF910895DF93CF9300D09B
:1036E0000F92CDB7DEB769837A838B838B8181306C
:1036F00039F489819A81692F41E00E94631409C0DD
:103700008B81882331F489819A81692F40E00E945E
:1037100063140F900F900F90CF91DF910895DF9376
:10372000CF9300D00F92CDB7DEB769837A838B83B6
:103730008B81813039F489819A81692F40E00E9420
:10374000631409C08B81882331F489819A81692FA0
:1037500041E00E9463140F900F900F90CF91DF9182
:103760000895DF93CF9300D00F92CDB7DEB7698372
:103770007A838B8389819A81692F0E9437160F90F3
:103780000F900F90CF91DF9108950F931F93DF93C8
:10379000CF930F92CDB7DEB783E190E00E94331351
:1037A0008093100684E190E00E9433138093110609
:1037B00082E190E00E9433138F3F31F082E190E08C
:1037C0000E9433138093A40580E190E00E9433139C
:1037D0008F3F49F480E690E00E94D6068DE00E947B
:1037E0000C060E94251C81E190E00E9433138F3F5C
:1037F00049F40E94D21C8FE690E00E94D6068DE02C
:103800000E940C068091A405882311F40E943A1F9F
:10381000198210C08981082F10E08981882F90E0DB
:1038200081960E943313F801E55DF94F8083898109
:103830008F5F8983909110068981891758F30F90C3
:10384000CF91DF911F910F910895DF93CF93CDB763
:10385000DEB782E890E00E94D6068DE00E940C065A
:103860008FE890E00E94D6068DE00E940C06109230
:10387000100680911006882381F081EA90E00E9472
:10388000D6068DE00E940C0683EC90E00E94D606DE
:103890008DE00E940C06109210068AE296E00E94CB
:1038A0006E068093A7058091A705882301F5809176
:1038B00010068823E1F480912A068D3071F38091FF
:1038C0002A068F3051F380912A06883031F3809197
:1038D0001006882F90E0819620912A06622F0E9480
:1038E0000013809110068F5F80931006D6CF8091D1
:1038F000A705882331F580911006843110F5809159
:103900002A068D30D9F180912A068F30B9F1809145
:103910002A06883031F48091100681508093100679
:10392000BCCF80911006882F90E0819620912A06C6
:10393000622F0E940013809110068F5F8093100603
:10394000ACCF8091A705882309F0A7CF80911006FE
:10395000843108F4A2CF80912A068D3079F08091CD
:103960002A068F3059F080912A06883009F095CFC9
:10397000809110068150809310068FCF80911006A1
:10398000863008F476CF80E190E060E00E9400137A
:103990002091100683E190E0622F0E940013CF91E6
:1039A000DF910895DF93CF93CDB7DEB785ED90E03B
:1039B0000E94D6068DE00E940C068FE890E00E94DF
:1039C000D6068DE00E940C06109211068091110619
:1039D0008823B9F082EE90E00E94D6068DE00E9426
:1039E0000C0684E091E00E94D6068DE00E940C0651
:1039F0008FE890E00E94D6068DE00E940C0610929F
:103A000011068AE296E00E946E068093A7058091D7
:103A1000A705882309F5809111068823E9F4809190
:103A20002A068D3071F380912A068F3051F38091F0
:103A30002A06883031F380911106882F90E08F5B41
:103A40009F4F20912A06622F0E9400138091110639
:103A50008F5F80931106D5CF8091A705882339F514
:103A600080911106843118F580912A068D30E1F19C
:103A700080912A068F30C1F180912A06883031F476
:103A800080911106815080931106BBCF8091110661
:103A9000882F90E08F5B9F4F20912A06622F0E9413
:103AA0000013809111068F5F80931106AACF809139
:103AB000A705882309F0A5CF80911106843108F469
:103AC000A0CF80912A068D3079F080912A068F3020
:103AD00059F080912A06883009F093CF8091110621
:103AE0008150809311068DCF80911106863008F4A5
:103AF0006DCF81E190E060E00E94001320911106FB
:103B000084E190E0622F0E940013CF91DF9108952D
:103B10001F93DF93CF9300D0CDB7DEB784E191E060
:103B20000E94D6068DE00E940C061A8281E08093E6
:103B3000A5058AE296E00E946E068093A705809113
:103B4000A7058823E1F48A818823C9F480912A0695
:103B50008D3079F380912A068F3059F380912A06AF
:103B6000883039F38A81882F90E020912A06FC0161
:103B7000EB5EF94F20838A818F5F8A83DACF809151
:103B8000A705882301F58A818431E8F480912A060B
:103B90008D3099F180912A068F3079F180912A0633
:103BA000883021F48A8181508A83C3CF8A81882F0B
:103BB00090E020912A06FC01EB5EF94F20838A8178
:103BC0008F5F8A83B6CF8091A705882309F0B1CF94
:103BD0008A81843108F4ADCF80912A068D3069F056
:103BE00080912A068F3049F080912A06883009F0AA
:103BF000A0CF8A8181508A839CCF909110068A81C0
:103C0000891729F519821DC08981882F90E0FC0150
:103C1000EB5EF94F8081882309F18981882F90E03C
:103C2000FC01EB5EF94F10818981882F90E081962D
:103C30000E943313181711F01092A50589818F5F28
:103C400089839091110689819817F0F607C09091A9
:103C500010068A81891711F01092A5050F900F9018
:103C6000CF91DF911F9108951F93DF93CF9300D0E1
:103C7000CDB7DEB783E291E00E94D6068DE00E94C8
:103C80000C061A8281E08093A6058AE296E00E94E3
:103C90006E068093A7058091A7058823E1F48A81A9
:103CA0008823C9F480912A068D3079F380912A0601
:103CB0008F3059F380912A06883039F38A81882F12
:103CC00090E020912A06FC01EB5EF94F20838A8167
:103CD0008F5F8A83DACF8091A705882301F58A81D7
:103CE0008431E8F480912A068D3099F180912A067A
:103CF0008F3079F180912A06883021F48A818150B1
:103D00008A83C3CF8A81882F90E020912A06FC0104
:103D1000EB5EF94F20838A818F5F8A83B6CF8091D3
:103D2000A705882309F0B1CF8A81843108F4ADCF8B
:103D300080912A068D3069F080912A068F3049F0F3
:103D400080912A06883009F0A0CF8A8181508A8329
:103D50009CCF909111068A81891731F519821EC076
:103D60008981882F90E0FC01EB5EF94F80818823E8
:103D700011F18981882F90E0FC01EB5EF94F1081F1
:103D80008981882F90E08F5B9F4F0E943313181713
:103D900011F01092A60589818F5F89839091110699
:103DA00089818917E8F207C0909111068A818917E5
:103DB00011F01092A6050F900F90CF91DF911F91F7
:103DC0000895DF93CF93CDB7DEB70E94881D0E9480
:103DD000341E8091A505882321F08091A6058823B3
:103DE000B9F582E391E00E94D6068DE00E940C06B0
:103DF0008091A40581508093A4052091A40582E1BF
:103E000090E0622F0E9400138091A405882369F03E
:103E10008FE491E00E94D6068091A405805D0E9407
:103E20000C068DE00E940C06D0CF8091A40588235B
:103E300061F68FE491E00E94D6068091A405805D32
:103E40000E940C068DE00E940C060E943A1FBDCF16
:103E50008DE591E00E94D60682E190E06FEF0E942E
:103E6000001383E08093A4058DE00E940C06CF919F
:103E7000DF910895DF93CF93CDB7DEB72F970FB6BD
:103E8000F894DEBF0FBECDBF82E791E00E94D60658
:103E900085E08F877CC080E20E940C068F85805D64
:103EA0000E940C0680E090E0AAE7B4E48B879C8730
:103EB000AD87BE876B857C858D859E8520E030E053
:103EC0004AEF54E40E941F02DC01CB018F839887E4
:103ED000A987BA876F81788589859A8520E030E047
:103EE00040E85FE30E94790388232CF481E090E0AE
:103EF0009E838D833FC06F81788589859A8520E078
:103F00003FEF4FE757E40E94190318164CF56B85F5
:103F10007C858D859E8520E030E040E251E40E9462
:103F20001F02DC01CB01BC01CD010E944900DC0174
:103F3000CB019E838D830FC088EC90E09C838B83A4
:103F40008B819C810197F1F79C838B838D819E816E
:103F500001979E838D838D819E81009769F714C0A0
:103F60006F81788589859A850E944900DC01CB01A3
:103F70009E838D838D819E819A83898389819A8195
:103F80000197F1F79A8389838F8581508F878F8579
:103F9000882309F080CF8DE00E940C0682E190E03A
:103FA0006FEF0E94001383E08093A4052F960FB655
:103FB000F894DEBF0FBECDBFCF91DF910895DF93A0
:103FC000CF9300D0CDB7DEB780E06FEF0E941C1812
:103FD00082E06FEF0E941C1883E06EEF0E941C18B5
:103FE00081E060E041E00E94541381E061E041E043
:103FF0000E9454130E94A3050E94A10C0E94C51B9D
:1040000081E063E041E00E9454130E94B80883E01D
:1040100067E041E00E9454130E946A090E94551013
:1040200085E00E94B61183E065E00E947F1080E881
:104030009FE265E00E94251281E062E040E00E947C
:1040400054138091E7058170882371F11092140652
:104050008091E70582608093E7058DE791E00E94FB
:10406000D6068DE00E940C068AE296E00E946E065B
:104070008093A7058091A7058823B1F780912A0630
:104080008D3091F70E94E11E88E991E00E94D606EA
:104090008BE296E00E94D6068DE00E940C0680918D
:1040A000E7058E7F8093E70581EA91E00E94D606BE
:1040B0008DE00E940C068FEA91E00E94D60685EC06
:1040C00091E00E94D6068DE00E940C0683ED91E0FF
:1040D0000E94D60689EE91E00E94D6068DE00E94ED
:1040E0000C0686EF91E00E94D6068CE092E00E94DA
:1040F000D6068DE00E940C0680E292E00E94D60671
:1041000086E392E00E94D6068DE00E940C0682E4CF
:1041100092E00E94D60688E592E00E94D6068DE0E5
:104120000E940C0684E692E00E94D6068AE792E09E
:104130000E94D6068DE00E940C0686E892E00E945E
:10414000D6068DE00E940C061092120610921306FD
:104150008AE296E00E946E068093A7058091A705EB
:104160008823B9F580911206882399F580912A0653
:104170008D3021F080912A068F3019F410921406A8
:10418000E7CF80912A06883019F410921406E0CF08
:104190001092140680912A06805380932A068091FB
:1041A0001306882F90E09C01220F331FC901880F4E
:1041B000991F880F991F820F931F982F80912A06AD
:1041C000890F80931306809112068F5F80931206E9
:1041D000BFCF8091A705882309F045C080911206C2
:1041E000833008F040C080912A068D3021F0809104
:1041F0002A068F3019F41092140685C080912A0681
:10420000883081F410921406809113069AE0692F89
:104210000E942F3080931306809112068150809364
:10422000120696CF1092140680912A06805380932E
:104230002A0680911306882F90E09C01220F331FDD
:10424000C901880F991F880F991F820F931F982FFC
:1042500080912A06890F80931306809112068F5F42
:104260008093120675CF8091A705882319F5809158
:1042700012068330F8F080912A068D3021F080916B
:104280002A068F3019F4109214063DC080912A0638
:10429000883041F410921406809112068150809368
:1042A000120656CF10921406809112068F5F8093EB
:1042B00012064ECF8091A705843009F049CF809136
:1042C00014068436D1F48DE00E940C068091E70537
:1042D0008270882349F08FE892E00E94D606809190
:1042E000E7058D7F8093E7058DE00E940C068091A5
:1042F000E70581608093E70506C0809114068F5F13
:104300008093140625CF809113068E3038F080EA12
:1043100092E00E94D6068DE00E940C068091130662
:104320008E3008F011CF80911306282F30E03A83A9
:10433000298389819A818730910509F45DC029819B
:104340003A81283031050CF589819A8183309105B5
:1043500009F446C029813A81243031055CF4898111
:104360009A8181309105B1F129813A81223031055C
:10437000A1F167CE89819A8185309105B9F12981B2
:104380003A8126303105ACF52EC089819A818A3078
:104390009105D9F129813A812B3031055CF489816D
:1043A0009A818830910559F129813A812930310566
:1043B00049F147CE89819A818C30910561F129813B
:1043C0003A812C30310524F189819A818D30910513
:1043D00029F137CE0E94142234CE0E94D92331CE47
:1043E0000E948F242ECE0E94EE262BCE0E945A28A9
:1043F00028CE0E94F92825CE0E94652A22CE0E944E
:10440000D42A1FCE0E94772B1CCE0E94FB2B19CEE4
:104410000E94F72D16CE0E94772E13CE8091E705CD
:1044200081608093E7050DCEDF93CF93CDB7DEB7E4
:104430006E970FB6F894DEBF0FBECDBF8FEA92E045
:104440000E94D6068DE00E940C0680EC92E00E944D
:10445000D60686ED92E00E94D6068DE00E940C06FC
:1044600084EE92E00E94D6068AEF92E00E94D60681
:104470008DE00E940C0689E093E00E94D6068DE054
:104480000E940C068AE296E00E946E068093A705C1
:104490008091A705882309F057C180912A06282F0B
:1044A00030E03E8F2D8F8D8D9E8D83339105C9F128
:1044B0002D8D3E8D243331058CF48D8D9E8D813371
:1044C0009105C9F02D8D3E8D22333105FCF48D8D83
:1044D0009E8D8830910509F431C15DC12D8D3E8DD1
:1044E0002433310509F49EC08D8D9E8D8533910551
:1044F00009F419C150C18DE00E940C0610921406F7
:104500000E94B12C8FEF80932A0645C18DE00E9456
:104510000C06109214060E94542D8FEF80932A06E9
:104520003AC1109214062FE336E081E0B9010E94EF
:10453000DC0E80E090E0A8E4B2E4898F9A8FAB8F24
:10454000BC8F698D7A8D8B8D9C8D20E030E04AEF99
:1045500054E40E941F02DC01CB018D8B9E8BAF8B3C
:10456000B88F6D897E898F89988D20E030E040E892
:104570005FE30E94790388232CF481E090E09C8B18
:104580008B8B3FC06D897E898F89988D20E03FEFAE
:104590004FE757E40E94190318164CF5698D7A8D80
:1045A0008B8D9C8D20E030E040E251E40E941F02A0
:1045B000DC01CB01BC01CD010E944900DC01CB0133
:1045C0009C8B8B8B0FC088EC90E09A8B898B8989B0
:1045D0009A890197F1F79A8B898B8B899C8901972E
:1045E0009C8B8B8B8B899C89009769F714C06D8994
:1045F0007E898F89988D0E944900DC01CB019C8BBC
:104600008B8B8B899C89988B8F878F859889019755
:10461000F1F7988B8F872FE336E083E0B9010E9492
:10462000DC0EB9C0109214062FE336E082E0B90127
:104630000E94DC0E80E090E0A8E4B2E48B879C87C7
:10464000AD87BE876B857C858D859E8520E030E0BB
:104650004AEF54E40E941F02DC01CB018F8398874C
:10466000A987BA876F81788589859A8520E030E0AF
:1046700040E85FE30E94790388232CF481E090E016
:104680009E838D833FC06F81788589859A8520E0E0
:104690003FEF4FE757E40E94190318164CF56B855E
:1046A0007C858D859E8520E030E040E251E40E94CB
:1046B0001F02DC01CB01BC01CD010E944900DC01DD
:1046C000CB019E838D830FC088EC90E09C838B830D
:1046D0008B819C810197F1F79C838B838D819E81D7
:1046E00001979E838D838D819E81009769F714C009
:1046F0006F81788589859A850E944900DC01CB010C
:104700009E838D838D819E819A83898389819A81FD
:104710000197F1F79A8389832FE336E084E0B901AA
:104720000E94DC0E38C0109214066091BD05709195
:10473000BE058091BF050E94B11B2DC010921406CA
:104740008DE00E940C0627C08091A705843019F5E2
:10475000809114068436D1F48DE00E940C0680917D
:10476000E7058270882349F08FE892E00E94D60620
:104770008091E7058D7F8093E7058DE00E940C0610
:104780008091E70581608093E7050AC08091140657
:104790008F5F8093140680912A06883009F072CECC
:1047A0006E960FB6F894DEBF0FBECDBFCF91DF91EE
:1047B0000895DF93CF9300D0CDB7DEB787E193E0C4
:1047C0000E94D6068DE00E940C068CE293E00E94C7
:1047D000D60682E493E00E94D6068DE00E940C0685
:1047E00081E593E00E94D60687E693E00E94D60614
:1047F0008DE00E940C068AE296E00E946E0680938D
:10480000A7058091A705882309F058C080912A0642
:10481000282F30E03A83298389819A818233910558
:1048200031F129813A81233331055CF489819A8100
:1048300088309105E9F129813A812133310561F010
:1048400064C089819A8183339105E1F029813A819D
:104850002433310511F159C0109214066091D2052C
:104860007091D3058091D4050E94B11B4EC0109267
:1048700014066091D5057091D6058091D7050E94E8
:10488000B11B43C0109214066091D8057091D905F0
:104890008091DA050E94B11B38C0109214068DE099
:1048A0000E940C060E942E258FEF80932A062DC0B1
:1048B000109214068DE00E940C0627C08091A70577
:1048C000843019F5809114068436D1F48DE00E946D
:1048D0000C068091E7058270882349F08FE892E00A
:1048E0000E94D6068091E7058D7F8093E7058DE0D5
:1048F0000E940C068091E70581608093E7050AC05D
:10490000809114068F5F8093140680912A06883068
:1049100009F071CF0F900F90CF91DF910895DF9341
:10492000CF9300D0CDB7DEB782E793E00E94D606E2
:104930008DE00E940C068CE293E00E94D60682E491
:1049400093E00E94D6068DE00E940C0683E893E077
:104950000E94D6068DE00E940C068AE296E00E9434
:104960006E068093A7058091A705882309F045C0AE
:1049700080912A06282F30E03A83298389819A8101
:104980008233910509F129813A81233331055CF4A1
:1049900089819A818830910551F129813A812133A9
:1049A000310539F051C089819A8183339105B9F07D
:1049B0004BC0109214066091CC057091CD0580918A
:1049C000CE050E94B11B40C0109214066091CF0525
:1049D0007091D0058091D1050E94B11B35C0109215
:1049E00014060E940E268FEF80932A062DC0109287
:1049F00014068DE00E940C0627C08091A705843024
:104A000019F5809114068436D1F48DE00E940C06CD
:104A10008091E7058270882349F08FE892E00E9438
:104A2000D6068091E7058D7F8093E7058DE00E9493
:104A30000C068091E70581608093E7050AC08091AC
:104A400014068F5F8093140680912A06883009F03F
:104A500084CF0F900F90CF91DF910895DF93CF9384
:104A600000D0CDB7DEB78EE893E00E94D6068DE089
:104A70000E940C068DE993E00E94D60683EB93E03A
:104A80000E94D6068DE00E940C068EEB93E00E94F9
:104A9000D60684ED93E00E94D6068DE00E940C06B7
:104AA0008FED93E00E94D6068DE00E940C068AE20C
:104AB00096E00E946E068093A7058091A705882343
:104AC00009F07BC080912A06282F30E03A832983A1
:104AD00089819A818333910591F129813A81243327
:104AE000310584F489819A8181339105B1F029815E
:104AF0003A8122333105D4F489819A818830910535
:104B0000C9F182C029813A812433310509F18981B3
:104B10009A818533910529F177C0109214062FE30D
:104B200036E085E0B9010E94DC0E6EC010921406DA
:104B30002FE336E086E0B9010E94DC0E65C01092DA
:104B400014062FE336E087E0B9010E94DC0E5CC05A
:104B5000109214062FE336E088E0B9010E94DC0EC3
:104B600053C0109214062FE336E089E0B9010E9489
:104B7000DC0E4AC0109214068DE00E940C0687E1FC
:104B800093E00E94D6068DE00E940C068CE293E032
:104B90000E94D60682E493E00E94D6068DE00E9431
:104BA0000C0681E593E00E94D60687E693E00E941A
:104BB000D6068DE00E940C0627C08091A7058430A0
:104BC00019F5809114068436D1F48DE00E940C060C
:104BD0008091E7058270882349F08FE892E00E9477
:104BE000D6068091E7058D7F8093E7058DE00E94D2
:104BF0000C068091E70581608093E7050AC08091EB
:104C000014068F5F8093140680912A06883009F07D
:104C10004ECF0F900F90CF91DF910895DF93CF93F8
:104C200000D0CDB7DEB78EE893E00E94D6068DE0C7
:104C30000E940C068DE993E00E94D60683EB93E078
:104C40000E94D6068DE00E940C068EEB93E00E9437
:104C5000D60684ED93E00E94D6068DE00E940C06F5
:104C60008FED93E00E94D6068DE00E940C068AE24A
:104C700096E00E946E068093A7058091A705882381
:104C800009F07BC080912A06282F30E03A832983DF
:104C900089819A818333910591F129813A81243365
:104CA000310584F489819A8181339105B1F029819C
:104CB0003A8122333105D4F489819A818830910573
:104CC000C9F182C029813A812433310509F18981F2
:104CD0009A818533910529F177C0109214062FE34C
:104CE00036E08AE0B9010E94DC0E6EC01092140614
:104CF0002FE336E08BE0B9010E94DC0E65C0109214
:104D000014062FE336E08CE0B9010E94DC0E5CC093
:104D1000109214062FE336E08DE0B9010E94DC0EFC
:104D200053C0109214062FE336E08EE0B9010E94C2
:104D3000DC0E4AC0109214068DE00E940C0682E739
:104D400093E00E94D6068DE00E940C068CE293E070
:104D50000E94D60682E493E00E94D6068DE00E946F
:104D60000C0681E593E00E94D60687E693E00E9458
:104D7000D6068DE00E940C0627C08091A7058430DE
:104D800019F5809114068436D1F48DE00E940C064A
:104D90008091E7058270882349F08FE892E00E94B5
:104DA000D6068091E7058D7F8093E7058DE00E9410
:104DB0000C068091E70581608093E7050AC0809129
:104DC00014068F5F8093140680912A06883009F0BC
:104DD0004ECF0F900F90CF91DF910895DF93CF9337
:104DE00000D0CDB7DEB78AEE93E00E94D6068DE004
:104DF0000E940C068CE293E00E94D60682E493E0C7
:104E00000E94D6068DE00E940C068EEF93E00E9471
:104E1000D6068DE00E940C068AE296E00E946E069D
:104E20008093A7058091A705882309F045C080914C
:104E30002A06282F30E03A83298389819A81823398
:104E4000910509F129813A81233331055CF4898187
:104E50009A818830910551F129813A8121333105B8
:104E600039F051C089819A8183339105B9F04BC0E3
:104E7000109214066091AE057091AF058091B00557
:104E80000E94B11B40C0109214066091B105709150
:104E9000B2058091B3050E94B11B35C01092140673
:104EA0000E948D278FEF80932A062DC01092140642
:104EB0008DE00E940C0627C08091A705843019F56B
:104EC000809114068436D1F48DE00E940C06809106
:104ED000E7058270882349F08FE892E00E94D606A9
:104EE0008091E7058D7F8093E7058DE00E940C0699
:104EF0008091E70581608093E7050AC080911406E0
:104F00008F5F8093140680912A06883009F084CF41
:104F10000F900F90CF91DF910895DF93CF9300D042
:104F2000CDB7DEB78EE893E00E94D6068DE00E94F2
:104F30000C068DE993E00E94D60683EB93E00E9475
:104F4000D6068DE00E940C068EEB93E00E94D606FA
:104F500084ED93E00E94D6068DE00E940C068FED52
:104F600093E00E94D6068DE00E940C068AE296E04D
:104F70000E946E068093A7058091A705882309F0FB
:104F800068C080912A06282F30E03A8329838981DE
:104F90009A818333910561F129813A812433310566
:104FA00084F489819A8181339105B1F029813A8114
:104FB00022333105BCF489819A818830910551F101
:104FC0006FC029813A8124333105C1F089819A81EA
:104FD00085339105C9F064C01092140680E00E94E8
:104FE000CC095EC0109214068FE30E94CC0958C011
:104FF000109214068EE70E94CC0952C0109214063B
:105000008DEB0E94CC094CC0109214068FEF0E94C9
:10501000CC0946C0109214068DE00E940C068AEE60
:1050200093E00E94D6068DE00E940C068CE293E08D
:105030000E94D60682E493E00E94D6068DE00E948C
:105040000C068EEF93E00E94D6068DE00E940C06BF
:1050500027C08091A705843019F580911406843605
:10506000D1F48DE00E940C068091E70582708823C0
:1050700049F08FE892E00E94D6068091E7058D7F87
:105080008093E7058DE00E940C068091E705816022
:105090008093E7050AC0809114068F5F8093140601
:1050A00080912A06883009F061CF0F900F90CF9140
:1050B000DF910895DF93CF9300D0CDB7DEB789E0BD
:1050C00094E00E94D6068DE00E940C068CE293E0EC
:1050D0000E94D60682E493E00E94D6068DE00E94EC
:1050E0000C0684E294E00E94D6068DE00E940C0635
:1050F0008AE296E00E946E068093A7058091A7053C
:10510000882309F045C080912A06282F30E03A8391
:10511000298389819A818233910509F129813A8114
:10512000233331055CF489819A818830910551F1EE
:1051300029813A812133310539F051C089819A8121
:1051400083339105B9F04BC0109214066091DB05D2
:105150007091DC058091DD050E94B11B40C010926A
:1051600014066091DE057091DF058091E0050E94D4
:10517000B11B35C0109214060E9498298FEF8093BE
:105180002A062DC0109214068DE00E940C0627C03E
:105190008091A705843019F5809114068436D1F4E6
:1051A0008DE00E940C068091E7058270882349F00B
:1051B0008FE892E00E94D6068091E7058D7F80936C
:1051C000E7058DE00E940C068091E70581608093E1
:1051D000E7050AC0809114068F5F809314068091C2
:1051E0002A06883009F084CF0F900F90CF91DF917D
:1051F0000895DF93CF9300D0CDB7DEB781E394E07D
:105200000E94D6068DE00E940C068CE293E00E947C
:10521000D60682E493E00E94D6068DE00E940C063A
:1052200084E294E00E94D6068DE00E940C068AE299
:1052300096E00E946E068093A7058091A7058823BB
:1052400009F045C080912A06282F30E03A8329834F
:1052500089819A818233910509F129813A81233329
:1052600031055CF489819A818830910551F1298159
:105270003A812133310539F051C089819A818333D4
:105280009105B9F04BC0109214066091E105709140
:10529000E2058091E3050E94B11B40C01092140604
:1052A0006091E4057091E5058091E6050E94B11BCF
:1052B00035C0109214060E9498298FEF80932A0619
:1052C0002DC0109214068DE00E940C0627C080911C
:1052D000A705843019F5809114068436D1F48DE049
:1052E0000E940C068091E7058270882349F08FE8C0
:1052F00092E00E94D6068091E7058D7F8093E705B6
:105300008DE00E940C068091E70581608093E7059F
:105310000AC0809114068F5F8093140680912A063C
:105320008D3009F084CF0F900F90CF91DF910895C9
:10533000DF93CF9300D0CDB7DEB78EE893E00E9425
:10534000D6068DE00E940C068DE993E00E94D606F9
:1053500083EB93E00E94D6068DE00E940C068EEB54
:1053600093E00E94D60684ED93E00E94D6068DE07D
:105370000E940C068FED93E00E94D6068DE00E94FD
:105380000C068AE296E00E946E068093A705809143
:10539000A705882309F068C080912A06282F30E0ED
:1053A0003A83298389819A818333910561F1298127
:1053B0003A812433310584F489819A8181339105BE
:1053C000B1F029813A8122333105BCF489819A8177
:1053D0008830910551F16FC029813A81243331051C
:1053E000C1F089819A8185339105C9F064C010921A
:1053F000140680E00E94FE095EC0109214068FE33E
:105400000E94FE0958C0109214068EE70E94FE0901
:1054100052C0109214068DEB0E94FE094CC01092EF
:1054200014068FEF0E94FE0946C0109214068DE00C
:105430000E940C068CE494E00E94D6068DE00E9447
:105440000C068CE293E00E94D60682E493E00E9470
:10545000D6068DE00E940C0684E294E00E94D606F7
:105460008DE00E940C0627C08091A705843019F5B5
:10547000809114068436D1F48DE00E940C06809150
:10548000E7058270882349F08FE892E00E94D606F3
:105490008091E7058D7F8093E7058DE00E940C06E3
:1054A0008091E70581608093E7050AC0809114062A
:1054B0008F5F8093140680912A06883009F061CFAF
:1054C0000F900F90CF91DF910895DF93CF9300D08D
:1054D000CDB7DEB785E694E00E94D6068DE00E9447
:1054E0000C068AE794E00E94D6068DE00E940C0626
:1054F0008AE296E00E946E068093A7058091A70538
:10550000882309F580912A06282F30E03A832983E1
:1055100089819A818830910581F029813A812133EE
:105520003105C1F5109214066091B4057091B5056E
:105530008091B6050E94B11B2DC0109214068DE01B
:105540000E940C0627C08091A705843019F5809130
:1055500014068436D1F48DE00E940C068091E70594
:105560008270882349F08FE892E00E94D6068091ED
:10557000E7058D7F8093E7058DE00E940C06809102
:10558000E70581608093E7050AC0809114068F5F6C
:105590008093140680912A06883009F0A9CF0F90D5
:1055A0000F90CF91DF910895DF93CF9300D0CDB7C7
:1055B000DEB789E894E00E94D6068DE00E940C06D2
:1055C0008CE293E00E94D60682E493E00E94D60625
:1055D0008DE00E940C068CE994E00E94D6068DE0D6
:1055E0000E940C068AE296E00E946E068093A70550
:1055F0008091A705882309F049C080912A06282FA9
:1056000030E03A83298389819A818233910509F1B7
:1056100029813A81233331055CF489819A8188306C
:10562000910571F129813A812133310539F055C055
:1056300089819A8183339105B9F04FC06091A805A3
:105640007091A9058091AA050E94B11B10921406C1
:1056500044C06091AB057091AC058091AD050E948E
:10566000B11B1092140639C080913F06882F90E03C
:105670009C018FE0B9010E94DC0E109214062DC02F
:105680008DE00E940C061092140627C08091A70599
:10569000843019F5809114068436D1F48DE00E948F
:1056A0000C068091E7058270882349F08FE892E02C
:1056B0000E94D6068091E7058D7F8093E7058DE0F7
:1056C0000E940C068091E70581608093E7050AC07F
:1056D000809114068F5F8093140680912A0688308B
:1056E00009F080CF0F900F90CF91DF910895DF9355
:1056F000CF9300D0CDB7DEB78BEA94E00E94D606F8
:105700008DE00E940C068CE293E00E94D60682E4B3
:1057100093E00E94D6068DE00E940C068AE296E095
:105720000E946E068093A7058091A705882391F5B6
:1057300080912A06282F30E03A83298389819A8133
:105740008133910559F029813A812233310589F05D
:1057500089819A8188309105B9F043C06091B7057D
:105760007091B8058091B9050E94B11B1092140682
:1057700038C06091BA057091BB058091BC050E944C
:10578000B11B109214062DC08DE00E940C061092E1
:10579000140627C08091A705843019F5809114065E
:1057A0008436D1F48DE00E940C068091E70582706A
:1057B000882349F08FE892E00E94D6068091E705A1
:1057C0008D7F8093E7058DE00E940C068091E705B0
:1057D00081608093E7050AC0809114068F5F8093F3
:1057E000140680912A06883009F098CF0F900F9008
:1057F000CF91DF910895DF93CF9300D0CDB7DEB77F
:105800008FEB94E00E94D6068DE00E940C068CE29D
:1058100093E00E94D60682E493E00E94D6068DE0D3
:105820000E940C0682ED94E00E94D60688EE94E079
:105830000E94D6068DE00E940C068AE296E00E9445
:105840006E068093A7058091A705882309F058C0AC
:1058500080912A06282F30E03A83298389819A8112
:105860008233910531F129813A81233331055CF48A
:1058700089819A8188309105E9F129813A81213322
:10588000310561F064C089819A8183339105E1F02B
:1058900029813A812433310511F159C06091C00545
:1058A0007091C1058091C2050E94B11B109214062F
:1058B0004EC06091C3057091C4058091C5050E94DA
:1058C000B11B1092140643C06091C6057091C705C4
:1058D0008091C8050E94B11B1092140638C06091D7
:1058E000C9057091CA058091CB050E94B11B109229
:1058F00014062DC08DE00E940C061092140627C0DD
:105900008091A705843019F5809114068436D1F46E
:105910008DE00E940C068091E7058270882349F093
:105920008FE892E00E94D6068091E7058D7F8093F4
:10593000E7058DE00E940C068091E7058160809369
:10594000E7050AC0809114068F5F8093140680914A
:105950002A06883009F071CF0F900F90CF91DF9118
:105960000895DF93CF9300D0CDB7DEB787EF94E0F3
:105970000E94D6068DE00E940C0689E095E00E9408
:10598000D6068FE195E00E94D6068DE00E940C06B7
:105990008AE296E00E946E068093A7058091A70593
:1059A000882309F050C080912A06282F30E03A83DE
:1059B000298389819A818133910559F029813A811E
:1059C0002233310579F089819A818830910599F0E7
:1059D00061C02FE336E081E0B9010E94DC0E109235
:1059E000140658C02FE336E082E0B9010E94DC0EB5
:1059F000109214064FC08DE00E940C068FEA92E0D0
:105A00000E94D6068DE00E940C0680EC92E00E9477
:105A1000D60686ED92E00E94D6068DE00E940C0626
:105A200084EE92E00E94D6068AEF92E00E94D606AB
:105A30008DE00E940C0689E093E00E94D6068DE07E
:105A40000E940C0627C08091A705843019F580912B
:105A500014068436D1F48DE00E940C068091E7058F
:105A60008270882349F08FE892E00E94D6068091E8
:105A7000E7058D7F8093E7058DE00E940C068091FD
:105A8000E70581608093E7050AC0809114068F5F67
:105A90008093140680912A06883009F079CF0F9000
:105AA0000F90CF91DF910895DF93CF9300D0CDB7C2
:105AB000DEB787E295E00E94D6068DE00E940C06D4
:105AC00089E095E00E94D6068FE195E00E94D60617
:105AD0008DE00E940C068AE296E00E946E0680939A
