:100000000C942A000C9447000C9447000C94470071
:100010000C9488030C945F030C9436030C940D032A
:100020000C94E4020C94BB020C9492020C946902AE
:100030000C9447000C942E010C9447000C946D0115
:100040000C94BD070C9447000C9447000C94470097
:100050000C94470011241FBECFE5D8E0DEBFCDBF12
:1000600012E0A0E6B0E0E4E7FBE102C005900D92EB
:10007000A237B107D9F712E0A2E7B2E001C01D92A2
:10008000A53CB107E1F70E942B0D0C94B80D0C9420
:100090000000599810BC83E389B95898529886E8B3
:1000A00080BD579856985598549A539A0895282F7A
:1000B00080917402882311F083E0089580E090E03D
:1000C000A0E0B0E003C00196A11DB11D5D9909C07B
:1000D000803137E2930730E0A30730E0B30799F7A8
:1000E00008C080519742A040B04019F02CB980E080
:1000F00001C084E0109274020895FC01009711F48D
:1001000082E0089580917402882311F083E00895BD
:1001100080E090E0A0E0B0E003C00196A11DB11D19
:100120005F9909C0803127E2920720E0A20720E012
:10013000B20799F709C080519742A040B04021F022
:100140008CB1808380E001C084E010927402089535
:10015000CF93DF93009711F482E00AC0EC0105C051
:100160000E9457002196882319F488818823C1F7BB
:10017000DF91CF910895FC0180917402882311F0E2
:1001800083E008953097A9F06115710591F081E041
:1001900080937402F0937302E0937202709376027C
:1001A0006093750210927A0280818CB9569A80E031
:1001B000089582E00895AF92BF92CF92DF92EF92BE
:1001C000FF920F931F93CF93DF93EC015A016B01C2
:1001D000009711F482E016C0EE24FF2487010CC0C2
:1001E000CE018E0D9F1D0E947D00882359F4089436
:1001F000E11CF11C011D111DEA14FB040C051D0579
:1002000078F380E0DF91CF911F910F91FF90EF90F5
:10021000DF90CF90BF90AF900895BC0180917402A1
:10022000882311F083E0089561157105A9F0211567
:10023000310591F081E080937402709378026093AD
:1002400077023093760220937502409379021092E0
:100250007A02579A80E0089582E008951F920F92E3
:100260000FB60F9211242F933F934F935F936F9389
:100270007F938F939F93AF93BF93EF93FF9390914F
:100280007A028CB1E0917702F0917802E90FF11DCA
:1002900080839F5F90937A0280917902981761F42E
:1002A00010927A0210927402E0917502F091760237
:1002B000309709F009955798FF91EF91BF91AF9151
:1002C0009F918F917F916F915F914F913F912F916E
:1002D0000F900FBE0F901F9018951F920F920FB6A0
:1002E0000F9211242F933F934F935F936F937F93BC
:1002F0008F939F93AF93BF93EF93FF9380917A0275
:100300008F5F80937A02E0917202F0917302E80F9E
:10031000F11DE081EE2369F410927A0210927402CA
:10032000E0917502F0917602309709F009955698A0
:1003300001C0ECB9FF91EF91BF91AF919F918F9167
:100340007F916F915F914F913F912F910F900FBED1
:100350000F901F90189583B7806483BF83B7886020
:1003600083BF83B78F7E83BF83B7806283BF1CBE8A
:1003700083B7887F83BF83B7846083BF08958FB5B9
:100380008E7F8FBD8FB582608FBD8EB588608EBD2C
:100390008EB580618EBD1BBC1ABC19BC18BC80E236
:1003A0009EE497BD86BD8EB580648EBD8FB58F7B74
:1003B0008FBD8FB580688FBD8FB58F7E8FBD8FB598
:1003C00080628FBD89B78B7F89BF89B78F7E89BFD8
:1003D00089B7877F89BF89B78F7D89BF8EB5887FB1
:1003E0008EBD8EB582608EBD089585B5806485BD55
:1003F00085B5886085BD85B58F7E85BD85B58062F4
:1004000085BD13BC85B5887F85BD85B5846085BDF8
:10041000089582BF08959DBD8CBD089584BD089543
:100420008CBF08959BBD8ABD089599BD88BD089570
:1004300083BD089597BD86BD089582B708952CB5F4
:100440003DB5C901089584B508959BBD8ABD089541
:100450008EB580648EBD89B7806289BF0895813072
:1004600029F48EB580648EBD80E00895882311F054
:1004700081E008958EB58F7B8EBD80E0089589B7A9
:10048000806289BF089589B78F7D89BF089526B599
:1004900037B5C901089581B5887F81BD81B5866072
:1004A00081BD089581B5886081BD089581B5886159
:1004B00081BD11BC0895009711F482E00895E62FE4
:1004C000F0E0EE0FFF1FE558FD4F9183808380E041
:1004D00008951F920F920FB60F9211242F933F93FE
:1004E0004F935F936F937F938F939F93AF93BF933C
:1004F000EF93FF93E0919102F0919202309709F00F
:100500000995FF91EF91BF91AF919F918F917F914D
:100510006F915F914F913F912F910F900FBE0F9070
:100520001F9018951F920F920FB60F9211242F93C0
:100530003F934F935F936F937F938F939F93AF936B
:10054000BF93EF93FF93E0918F02F0919002309769
:1005500009F00995FF91EF91BF91AF919F918F9114
:100560007F916F915F914F913F912F910F900FBEAF
:100570000F901F9018951F920F920FB60F92112493
:100580002F933F934F935F936F937F938F939F939B
:10059000AF93BF93EF93FF93E0918D02F0918E02A2
:1005A000309709F00995FF91EF91BF91AF919F911D
:1005B0008F917F916F915F914F913F912F910F900C
:1005C0000FBE0F901F9018951F920F920FB60F92AB
:1005D00011242F933F934F935F936F937F938F9348
:1005E0009F93AF93BF93EF93FF93E0918B02F091B2
:1005F0008C02309709F00995FF91EF91BF91AF916F
:100600009F918F917F916F915F914F913F912F912A
:100610000F900FBE0F901F9018951F920F920FB65C
:100620000F9211242F933F934F935F936F937F9378
:100630008F939F93AF93BF93EF93FF93E0918902C2
:10064000F0918A02309709F00995FF91EF91BF91DF
:10065000AF919F918F917F916F915F914F913F915A
:100660002F910F900FBE0F901F9018951F920F9211
:100670000FB60F9211242F933F934F935F936F9375
:100680007F938F939F93AF93BF93EF93FF93E091EB
:100690008702F0918802309709F00995FF91EF9158
:1006A000BF91AF919F918F917F916F915F914F918A
:1006B0003F912F910F900FBE0F901F9018951F9292
:1006C0000F920FB60F9211242F933F934F935F9386
:1006D0006F937F938F939F93AF93BF93EF93FF930A
:1006E000E0918502F0918602309709F00995FF911B
:1006F000EF91BF91AF919F918F917F916F915F919A
:100700004F913F912F910F900FBE0F901F90189512
:100710001F920F920FB60F9211242F933F934F9376
:100720005F936F937F938F939F93AF93BF93EF9359
:10073000FF93E0918302F0918402309709F00995CC
:10074000FF91EF91BF91AF919F918F917F916F91A9
:100750005F914F913F912F910F900FBE0F901F907F
:1007600018959FBB8EBB6DBBE29AE19AE199FECFD3
:1007700008958EBB9FBBE09A8DB30895843008F036
:1007800077C0683008F074C04130B1F5813099F01D
:10079000813030F08230D1F0833009F06BC021C05D
:1007A0002AB381E090E002C0880F991F6A95E2F7B2
:1007B000282B2ABB5BC027B381E090E002C0880FE2
:1007C000991F6A95E2F7282B27BB50C024B381E01C
:1007D00090E002C0880F991F6A95E2F7282B24BB8E
:1007E00045C021B381E090E002C0880F991F6A954F
:1007F000E2F7282B21BB3AC04423D1F5813099F090
:10080000813028F08230D9F08330A1F524C02AB39A
:1008100081E090E002C0880F991F6A95E2F7809509
:1008200082238ABB23C027B381E090E002C0880FF7
:10083000991F6A95E2F78095822387BB17C024B37E
:1008400081E090E002C0880F991F6A95E2F78095D9
:10085000822384BB0BC021B381E090E002C0880FEB
:10086000991F6A95E2F78095822381BB81E0089504
:1008700080E0089581E00895843008F077C0683002
:1008800008F074C04130B1F5813099F0813030F01A
:100890008230D1F0833009F06BC021C02BB381E0EE
:1008A00090E002C0880F991F6A95E2F7282B2BBBB6
:1008B0005BC028B381E090E002C0880F991F6A9561
:1008C000E2F7282B28BB50C025B381E090E002C09E
:1008D000880F991F6A95E2F7282B25BB45C022B3E4
:1008E00081E090E002C0880F991F6A95E2F7282BFB
:1008F00022BB3AC04423D1F5813099F0813028F0F1
:100900008230D9F08330A1F524C02BB381E090E090
:1009100002C0880F991F6A95E2F7809582238BBBEE
:1009200023C028B381E090E002C0880F991F6A9528
:10093000E2F78095822388BB17C025B381E090E061
:1009400002C0880F991F6A95E2F78095822385BBC4
:100950000BC022B381E090E002C0880F991F6A9516
:10096000E2F78095822382BB81E0089580E00895BC
:1009700081E00895FA01843028F5683018F5813057
:1009800049F0813028F0823039F08330C9F406C054
:1009900029B305C026B303C023B301C020B381E04F
:1009A00090E0062E02C0880F991F0A94E2F730E00B
:1009B0008223932302C0959587956A95E2F78083F9
:1009C00081E0089580E008958430C0F56830B0F586
:1009D000813091F0813028F08230C9F0833061F5A8
:1009E00021C02BB381E090E002C0880F991F6A9567
:1009F000E2F728272BBB20C028B381E090E002C09B
:100A0000880F991F6A95E2F7282728BB15C025B3E0
:100A100081E090E002C0880F991F6A95E2F72827CD
:100A200025BB0AC022B381E090E002C0880F991F65
:100A30006A95E2F7282722BB81E0089580E00895B7
:100A4000843008F08FC0683008F08CC0813049F1E4
:100A5000813038F0823009F444C0833009F080C01E
:100A600060C0413091F480B78B7F80BF3AB381E0A2
:100A700090E002C0880F991F6A95E2F7282F209511
:100A800023232ABB2BB3822B0AC02BB381E090E037
:100A900002C0880F991F6A95E2F7809582238BBB6D
:100AA0005FC0413091F480B78B7F80BF37B381E066
:100AB00090E002C0880F991F6A95E2F7282F2095D1
:100AC000232327BB28B3822B0AC028B381E090E000
:100AD00002C0880F991F6A95E2F78095822388BB30
:100AE0003FC0413091F480B78B7F80BF34B381E049
:100AF00090E002C0880F991F6A95E2F7282F209591
:100B0000232324BB25B3822B0AC025B381E090E0C8
:100B100002C0880F991F6A95E2F78095822385BBF2
:100B20001FC0413091F480B78B7F80BF31B381E02B
:100B300090E002C0880F991F6A95E2F7282F209550
:100B4000232321BB22B3822B0AC022B381E090E091
:100B500002C0880F991F6A95E2F78095822382BBB5
:100B600081E0089580E00895843090F4813049F068
:100B7000813028F0823039F0833051F406C06ABBEE
:100B800005C067BB03C064BB01C061BB81E00895C1
:100B900080E00895843090F4813049F0813028F06D
:100BA000823039F0833051F406C06BBB05C068BB9E
:100BB00003C065BB01C062BB81E0089580E0089579
:100BC000FB01843098F4813049F0813028F0823084
:100BD00039F0833059F406C089B305C086B303C029
:100BE00083B301C080B3808381E0089580E00895DD
:100BF000843010F080E00895813059F0813028F081
:100C0000823059F0833061F40DC08BB380958BBB7B
:100C100007C088B3809588BB03C085B3809585BB2A
:100C200081E0089582B3809582BB81E0089584308D
:100C300010F080E008956F70813071F0813028F0FD
:100C4000823089F08330A9F416C08BB3807F8BBBD0
:100C50008BB3682B6BBB0DC088B3807F88BB88B318
:100C6000682B68BB06C085B3807F85BB85B3682BC6
:100C700065BB81E0089582B3807F82BB82B3682B1D
:100C800062BB81E00895843010F080E008956295A1
:100C9000607F813071F0813028F0823089F08330BC
:100CA000A9F416C08BB38F708BBB8BB3682B6BBB57
:100CB0000DC088B38F7088BB88B3682B68BB06C033
:100CC00085B38F7085BB85B3682B65BB81E00895C4
:100CD00082B38F7082BB82B3682B62BB81E00895C0
:100CE000843010F080E008956F70813071F08130B1
:100CF00028F0823089F08330A9F416C08AB3807F4F
:100D00008ABB8AB3682B6ABB0DC087B3807F87BB61
:100D100087B3682B67BB06C084B3807F84BB84B372
:100D2000682B64BB81E0089581B3807F81BB81B370
:100D3000682B61BB81E00895843010F080E0089555
:100D40006295607F813071F0813028F0823089F0C7
:100D50008330A9F416C08AB38F708ABB8AB3682B1C
:100D60006ABB0DC087B38F7087BB87B3682B67BB27
:100D700006C084B38F7084BB84B3682B64BB81E0EE
:100D8000089581B38F7081BB81B3682B61BB81E013
:100D900008953E9A3F983D9886B1887F86B986B17E
:100DA000876086B93598379A33980895379A0895A9
:100DB00037980895339A089533980895982F82307C
:100DC00020F0833011F081E0089587B18F7387B9E7
:100DD00087B19295990F990F907C892B87B980E004
:100DE0000895982F883010F081E0089586B1887FAB
:100DF00086B986B1892B86B980E00895882311F4DD
:100E00003D980895813011F081E008953D9A80E089
:100E10000895883019F4359880E00895883010F0EE
:100E200081E00895359A80B78F7180BF80B780BF09
:100E300080E00895982FFB016115710511F482E09F
:100E4000089580918D02882311F083E008959032F7
:100E500030F487B1807E87B987B1892B87B9369AFC
:100E600080E090E0A0E0B0E003C00196A11DB11DBC
:100E7000349B06C08055934CA040B04051F415C03F
:100E8000803523EC920720E0A20720E0B20769F743
:100E90000CC0349A84B145B1342F20E090E0282B67
:100EA000392B3183208380E001C081E010928D02D4
:100EB0000895982F6115710511F141155105F9F04B
:100EC00080918D02882311F083E0089581E0809362
:100ED0008D021092900270938C0260938B0250935B
:100EE0008F0240938E02903230F487B1807E87B9B2
:100EF00087B1892B87B9369A339A80E0089582E0CA
:100F00000895FC010097B9F1A081B181109799F182
:100F1000458156814115510571F122813381211599
:100F2000310549F180918D02882311F083E0089505
:100F300081E080938D028093900230938C02209305
:100F40008B02B0939202A0939102848180939302CA
:100F500050938F0240938E02109294029C91903293
:100F600030F487B1807E87B987B1982B97B9369ACC
:100F7000339A80E0089582E008951F920F920FB691
:100F80000F9211242F933F934F935F936F937F930F
:100F90008F939F93AF93BF93EF93FF9380919002B2
:100FA000882371F424B145B1E0918B02F0918C0259
:100FB000942F80E030E0822B932B918380831EC09E
:100FC0008130A9F55091940224B145B1852F90E06C
:100FD000880F991FE0918B02F0918C02E80FF91FA6
:100FE000942F80E030E0822B932B918380835F5F8E
:100FF0005093940280919302581749F410928D02F5
:10100000E0918E02F0918F020995339810C0E09123
:101010009102F0919202E50FF11DE081E03230F48F
:1010200087B1807E87B987B1E82BE7B9369AFF91FF
:10103000EF91BF91AF919F918F917F916F915F9150
:101040004F913F912F910F900FBE0F901F901895C9
:10105000CF92DF92EF92FF920F931F93DF93CF9384
:1010600000D0CDB7DEB78C016B01FC01818190E02F
:1010700028EE33E0829F7001839FF00C929FF00C6A
:1010800011248081BE016F5F7F4F0E941A07F80113
:101090008281882389F4B70180E090E029813A8138
:1010A00040E050E00E94850D3AE09695879577954F
:1010B00067953A95D1F70FC0813081F4B70180E090
:1010C00090E029813A8140E050E00E94850D672F31
:1010D000782F892F9927F6017183608380E00F9024
:1010E0000F90CF91DF911F910F91FF90EF90DF90C4
:1010F000CF900895CF92DF92EF92FF920F931F93BC
:10110000DF93CF9300D0CDB7DEB78C016B01FC012C
:10111000818190E028EE33E0829F7001839FF00C84
:10112000929FF00C11248081BE016F5F7F4F0E945F
:101130001A07F8018281882389F4B70180E090E0E2
:1011400029813A8140E050E00E94850D5AE0969551
:101150008795779567955A95D1F70FC0813071F4CF
:10116000B70180E090E029813A8140E050E00E94A0
:10117000850D672F782F892F9927CB016AE070E0C2
:101180000E94A40DF601608380E00F900F90CF9134
:10119000DF911F910F91FF90EF90DF90CF90089516
:1011A000DF93CF9300D00F92CDB7DEB7962F698330
:1011B000672F7A838B83892F0E94E4040F900F900E
:1011C0000F90CF91DF910895DF93CF9300D00F92CE
:1011D000CDB7DEB7262F69837A838B83672F813063
:1011E00019F4822F40E004C0882321F4822F41E0CB
:1011F0000E943C040F900F900F90CF91DF910895C3
:10120000DF93CF9300D00F92CDB7DEB7262F69833F
:101210007A838B83672F813019F4822F41E004C0D9
:10122000882321F4822F40E00E943C040F900F900D
:101230000F90CF91DF910895DF93CF9300D00F925D
:10124000CDB7DEB7962F6983672F7A838B83892F7B
:1012500041E00E94BE030F900F900F90CF91DF915D
:1012600008951F93CF93DF9380E690E00E94A8003B
:1012700015E3C8ECD0E080E20E945700812F0E9465
:10128000570080E197E2FE013197F1F70197D9F716
:101290001150103381F78DE00E94570082E190E0F9
:1012A0006FEF0E94B10383E080936302DF91CF91DF
:1012B0001F9108958BE690E00E94A8008DE00E94A7
:1012C000570088E790E00E94A8008DE00E94570038
:1012D00010929602809196028823B9F08AE890E0F5
:1012E0000E94A8008DE00E9457008CEA90E00E94C6
:1012F000A8008DE00E94570088E790E00E94A800B7
:101300008DE00E945700109296028FEA92E00E94B0
:101310007D008093660280916602882389F4809123
:101320009602882369F48091AF028D3071F3809129
:10133000AF028F3051F38091AF02883031F314C087
:10134000809166028823E9F4809196028431C8F482
:101350008091AF028D3091F18091AF028F3071F1A9
:101360008091AF02883021F1809196026091AF02A6
:1013700090E08F5B9F4F0E94B103809196028F5F38
:101380001AC080916602882309F0BFCF809196022F
:10139000843108F4BACF8091AF028D3079F080911A
:1013A000AF028F3059F08091AF02883009F0ADCF95
:1013B00080919602815080939602A7CF80919602E9
:1013C000863008F487CF81E190E060E00E94B103AD
:1013D0006091960284E190E00E94B10308958CEB45
:1013E00090E00E94A8008DE00E94570088E790E0FE
:1013F0000E94A8008DE00E945700109295028091F3
:101400009502882381F089EC90E00E94A8008DE08D
:101410000E9457008BEE90E00E94A8008DE00E9491
:101420005700109295028FEA92E00E947D0080930F
:10143000660280916602882389F480919502882350
:1014400069F48091AF028D3071F38091AF028F30DB
:1014500051F38091AF02883031F314C0809166025D
:101460008823E1F4809195028431C0F48091AF0229
:101470008D3081F18091AF028F3061F18091AF02A8
:10148000883011F1809195026091AF0290E08196D1
:101490000E94B103809195028F5F19C0809166020E
:1014A000882309F680919502843108F4BCCF80919D
:1014B000AF028D3079F08091AF028F3059F080917A
:1014C000AF02883009F0AFCF8091950281508093B0
:1014D0009502A9CF80919502863008F490CF80E1E3
:1014E00090E060E00E94B1036091950283E190E09A
:1014F0000E94B10308950F931F938DEF90E00E9417
:10150000A8008DE00E94570081E08093650210E002
:101510008FEA92E00E947D008093660280916602CD
:101520008823A1F4112391F48091AF028D3081F3CF
:101530008091AF028F3061F38091AF02883041F328
:101540008091AF0280939A0211E0E2CF809166020F
:101550008823B9F41431A8F48091AF028D3031F1B1
:101560008091AF028F3011F18091AF028830E1F0AD
:10157000E12FF0E08091AF02E656FD4F80831F5FC0
:10158000C7CF80916602882319F6143108F2809142
:10159000AF028D3059F08091AF028F3039F08091D9
:1015A000AF02883009F0B4CF1150B2CF80919602CB
:1015B0001817D1F400E013C0202F30E0F901E656EF
:1015C000FD4F80818823B1F01081C9018F5B9F4F4F
:1015D0000E94B903181711F0109265020F5F8091F5
:1015E0009602081748F306C080919602181711F06A
:1015F000109265021F910F9108950F931F938CE035
:1016000091E00E94A8008DE00E94570081E0809345
:10161000640210E08FEA92E00E947D0080936602EF
:10162000809166028823A1F4112391F48091AF0286
:101630008D3081F38091AF028F3061F38091AF02E2
:10164000883041F38091AF0280939A0211E0E2CF9B
:10165000809166028823B9F41431A8F48091AF0216
:101660008D3031F18091AF028F3011F18091AF0256
:101670008830E1F0E12FF0E08091AF02E656FD4FB7
:1016800080831F5FC7CF80916602882319F61431CB
:1016900008F28091AF028D3059F08091AF028F3007
:1016A00039F08091AF02883009F0B4CF1150B2CF39
:1016B000809195021817C9F400E012C0202F30E085
:1016C000F901E656FD4F80818823A9F01081C901F8
:1016D00081960E94B903181711F0109264020F5FEF
:1016E00080919602801750F706C0809195021817D6
:1016F00011F0109264021F910F9108950E94FD0A4B
:101700000E947B0A80916402882321F08091650207
:101710008823B1F58BE191E00E94A8008DE00E9442
:10172000570080916302815080936302609163024D
:1017300082E190E00E94B10380916302882369F006
:1017400088E391E00E94A80080916302805D0E947E
:1017500057008DE00E945700D1CF8091630288230B
:1017600069F688E391E00E94A80080916302805DA1
:101770000E9457008DE00E9457000E943109BECFA1
:1017800086E491E00E94A80082E190E06FEF0E9461
:10179000B10383E0809363028DE00E9457000895B7
:1017A000FF920F931F9383E190E00E94B90380930F
:1017B000950284E190E00E94B9038093960282E151
:1017C00090E00E94B9038F3F31F082E190E00E94E7
:1017D000B9038093630280E190E00E94B9038F3FD8
:1017E00049F48BE591E00E94A8008DE00E9457002B
:1017F0000E94EF0981E190E00E94B9038F3F49F414
:101800000E945A098AE691E00E94A8008DE00E9499
:10181000570080916302882311F40E943109FF244C
:101820000BC00F2D10E0C80181960E94B90300552E
:101830001D4FF8018083F39480919502F81688F388
:101840001F910F91FF9008958DE791E00E94A800ED
:101850008DE00E9457008CE891E00E94A80082EA87
:1018600091E00E94A8008DE00E9457008DEA91E06F
:101870000E94A80083EC91E00E94A8008DE00E94E5
:1018800057008EEC91E00E94A8008DE00E94570066
:101890008FEA92E00E947D0080936602809166024A
:1018A000882309F049C08091AF028333C1F08433AB
:1018B00040F4813361F0823370F4883009F047C01E
:1018C0001CC0843381F0853309F041C010C01092F0
:1018D000990280E00FC0109299028FE30BC0109222
:1018E00099028EE707C0109299028DEB03C0109207
:1018F00099028FEF0E9418022AC0109299028DE07F
:101900000E94570089ED91E00E94A8008DE00E949E
:10191000570088EE91E00E94A8008EEF91E00E94AF
:10192000A8008DE00E9457008DE092E00E94A80080
:101930008DE00E9457000BC080916602843039F41C
:1019400080919902809199028F5F80939902809192
:10195000AF02883009F09CCF08951F9389E192E08F
:101960000E94A8008DE00E94570088EE91E00E943E
:10197000A8008EEF91E00E94A8008DE00E94570021
:1019800089E292E00E94A8008DE092E00E94A80007
:101990008DE00E9457001FEF1093AF028FEA92E094
:1019A0000E947D008093660280916602882309F080
:1019B00040C08091AF028233B1F0833330F488307D
:1019C00069F1813309F040C005C08333A9F0843345
:1019D000D9F51DC01092990260916702709168025A
:1019E0008091690211C01092990260916A0270910F
:1019F0006B0280916C0208C01092990260916D0296
:101A000070916E0280916F020E94D0081DC01092EA
:101A100099020E94240C1093AF0216C010929902F2
:101A20008DE00E9457008091700281608093700267
:101A30000BC080916602843039F4809199028091C4
:101A400099028F5F809399028091AF02883009F0EC
:101A5000A3CF1F91089582E06FEF0E94B40583E049
:101A60006EEF0E94B40581E060E041E00E94BE0399
:101A700081E061E041E00E94BE030E94C9060E942D
:101A800049000E94D00B81E063E041E00E94BE0368
:101A90000E94AB0183E067E041E00E94BE030E9428
:101AA000F5018091700280FF2FC010929902826030
:101AB000809370028FE392E00E94A8008DE00E9464
:101AC00057008FEA92E00E947D0080936602809129
:101AD00066028823B1F78091AF028D3091F70E94A2
:101AE0007E0B8AE592E00E94A80080EB92E00E94C3
:101AF000A8008DE00E945700809170028E7F809335
:101B000070020E94AD0CCDCFFFCF629FD001739FBA
:101B1000F001829FE00DF11D649FE00DF11D929F89
:101B2000F00D839FF00D749FF00D659FF00D9927C8
:101B3000729FB00DE11DF91F639FB00DE11DF91FEC
:101B4000BD01CF0111240895AA1BBB1B51E107C0A1
:101B5000AA1FBB1FA617B70710F0A61BB70B881F3D
:101B6000991F5A95A9F780959095BC01CD010895CC
:041B7000F894FFCF17
:101B740054696D65206F7574203A00536574205064
:101B8400617373576F7264004D6178696D756D2070
:101B940063686172203A2032300050617373576F6A
:101BA4007264204D757374206265204D6F726520D8
:101BB4007468616E20352043686172005265205359
:101BC40065742050617373576F7264005365742099
:101BD400557365724E616D6500557365724E616D26
:101BE40065204D757374206265204D6F7265207495
:101BF40068616E2035204368617200526520456E2D
:101C040074657220557365724E616D650043686535
:101C1400636B2050617373576F726400436865632C
:101C24006B20557365724E616D6500496E76616C0B
:101C3400696420557365726E616D65206F72205002
:101C4400617373776F7264005472696573204C65B5
:101C54006674203A20005375636365737366756C0C
:101C64006C79205369676E20696E00506C656173EE
:101C740065205369676E2055700053617665642052
:101C84005375636365737366756C6C790046616E36
:101C940020436F6E74726F6C203A2000312D204601
:101CA400616E204F666620202020202020202020E6
:101CB4002000322D205370656564203100332D20BF
:101CC40053706565642032202020202020202020AD
:101CD400202000342D205370656564203300352D99
:101CE400205370656564203400526F6F6D204F700F
:101CF40074696F6E203A2000312D204C65643120C8
:101D04004F4E2F4F46462020202020202000322DE9
:101D1400204C656432204F4E2F4F464600332D2011
:101D2400526F6F6D2046616E00526F6F6D204F7061
:101D340074696F6E73203A2000312D204C65643332
:101D4400204F4E2F4F464620202020202020005098
:101D54007265737320656E74657220746F206F7082
:101D6400656E2073797374656D0057656C636F6D70
:101D740065200003010101020501020601020701B9
:021D840003005A
:00000001FF
