:100000000C942A000C94400D0C946C0D0C94980DDB
:100010000C942C0C0C94030C0C94DA0B0C94B10B78
:100020000C94880B0C945F0B0C94360B0C940D0BFA
:100030000C9447000C94C5090C9447000C94040AD6
:100040000C94D0110C9447000C9447000C9447007A
:100050000C94470011241FBECFE5D8E0DEBFCDBF12
:1000600014E0A0E6B0E0EAE7F6E402C005900D92E5
:10007000AE38B107D9F714E0AEE8B4E001C01D9284
:10008000AA3EB107E1F70E942E220C943B230C9468
:100090000000EF92FF920F931F937B018C0120E0F1
:1000A00030E040E05FE40E94E10488238CF0C80166
:1000B000B70120E030E040E05FE40E94DD020E94F2
:1000C0009F059B01AC01205030404040504806C085
:1000D000C801B7010E949F059B01AC01B901CA018B
:1000E0001F910F91FF90EF900895EF92FF920F9361
:1000F0001F937B018C0120E030E040E050E00E9443
:10010000110588230CF05CC0C801B70190580E940B
:10011000E9002195E1E0121608F0E0E03195F1E008
:10012000131608F0F0E0E32EEE1AE1E03E1508F0B9
:10013000E0E0FE2B4195A1E0141608F0A0E0F42EBB
:10014000FF1AE1E04F1508F0E0E0AE2B5195F1E029
:10015000151608F0F0E0052F0A1BE1E0501708F033
:10016000E0E0FE2B6195A1E0161608F0A0E0162F46
:100170001F1BE1E0611708F0E0E0AE2B7195F1E0A4
:10018000171608F0F0E0B72FBA1BE1E07B1708F074
:10019000E0E0FE2B8195A1E0181608F0A0E0382FD2
:1001A0003F1BF32FE1E0831708F0E0E0AE2B9195C1
:1001B0003E2D4F2D502F612F7B2F8F2F9A1B04C068
:1001C000C801B7010E94E9001F910F91FF90EF90C5
:1001D0000895A0E0B0E0EFEEF0E00C9404237B0182
:1001E0008C0120E030E040E85FE30E9411058823A5
:1001F0004CF4AA24BB24CC24DD24EE24FF2400E00C
:1002000010E086C0C801B70120E030E040E85FE4BC
:100210000E941105882354F4C801B7010E944900C7
:100220005B016C01EE24FF24870172C0C801B70195
:1002300020E030E040E85FE50E94110587FD0FC037
:10024000AA24AA94BB24BA94CC24CA94DD24DA94B8
:10025000EE24EA94FF24FA940FEF1FEF59C0C8016F
:10026000B70120E030E040E85FE20E943B037B0101
:100270008C0122243324210190E1A92EB12CC12C20
:10028000D12CC0E0D0E061E070E080E090E00A2C8A
:1002900004C0660F771F881F991F0A94D2F70E9427
:1002A000F3053B014C01C801B701A40193010E9471
:1002B000E104882364F02A283B284C285D28C801E3
:1002C000B701A40193010E9435047B018C01D694EF
:1002D000C794B794A7942196C530D105A1F6C8015B
:1002E000B70120E030E040E85FE40E943B030E9459
:1002F00049005B016C019B01A60160E070E080E0B9
:1003000090E0022D0E946C0659016A017B018C016C
:100310009501A601B701C801CDB7DEB7E2E10C94A3
:100320002023A0E0B0E0E7E9F1E00C940423DC0135
:100330002B01FA019C91923008F439C1EB018881BC
:10034000823008F433C1943069F4843009F02FC14D
:1003500011969C9111978981981709F428C1A3E5FA
:10036000B3E025C1843009F421C18230A9F4923070
:1003700009F01DC19A01AD0188E0EA010990AE01C2
:10038000E90109929E018150C1F7E201898111962C
:100390009C918923818308C1923009F407C1129688
:1003A0002D903C901397EB018A819B811496AD9020
:1003B000BD90CD90DC901797EC80FD800E811F8161
:1003C0009101281B390BB90137FF04C06627772735
:1003D000621B730B603271050CF061C012161306BC
:1003E0006CF537014801062E04C0969487947794E3
:1003F00067940A94D2F721E030E040E050E004C076
:10040000220F331F441F551F6A95D2F721503040E9
:10041000404050402E213F214023512321153105DA
:100420004105510521F021E030E040E050E0790144
:100430008A01E628F728082919293CC0232BD1F185
:10044000260E371E35014601062E04C09694879469
:10045000779467940A94D2F721E030E040E050E0CE
:1004600004C0220F331F441F551F6A95D2F7215035
:100470003040404050402A213B214C215D21211534
:1004800031054105510521F021E030E040E050E028
:1004900059016A01A628B728C828D9280BC0821597
:1004A00093052CF01C01AA24BB24650103C0EE2493
:1004B000FF24870111969C91D20111968C91981777
:1004C00009F445C0992339F0A80197012A193B097D
:1004D0004C095D0906C0A60195012E193F09400B84
:1004E000510B57FD08C01182338222822483358349
:1004F000468357831DC081E081833382228288270F
:100500009927DC01821B930BA40BB50B8483958385
:10051000A683B7830DC0220F331F441F551F2483AA
:1005200035834683578382819381019793838283A6
:100530002481358146815781DA01C9010197A109DA
:10054000B1098F5F9F4FAF4FBF4328F30BC091831B
:1005500033822282EA0CFB1C0C1D1D1DE482F582F5
:100560000683178383E08083248135814681578108
:1005700057FF1AC0C901AA2797FDA095BA2F81700D
:100580009070A070B0705695479537952795822B3F
:10059000932BA42BB52B84839583A683B783828169
:1005A0009381019693838283DF0101C0D201CD0143
:1005B000CDB7DEB7E2E10C942023A0E2B0E0E3EE99
:1005C000F2E00C94102369837A838B839C832D83C0
:1005D0003E834F835887E9E0EE2EF12CEC0EFD1E92
:1005E000CE010196B7010E940F088E010F5E1F4FCA
:1005F000CE010596B8010E940F088A8991E08927EB
:100600008A8BC701B801AE01475E5F4F0E9491011E
:100610000E943A07A096E6E00C942C23A0E2B0E0FA
:10062000E4E1F3E00C94102369837A838B839C8349
:100630002D833E834F835887F9E0EF2EF12CEC0E8B
:10064000FD1ECE010196B7010E940F088E010F5EBC
:100650001F4FCE010596B8010E940F08C701B801CF
:10066000AE01475E5F4F0E9491010E943A07A0963B
:10067000E6E00C942C23A0E2B0E0E1E4F3E00C947B
:10068000042369837A838B839C832D833E834F83EA
:100690005887CE010196BE01675F7F4F0E940F0809
:1006A000CE010596BE016F5E7F4F0E940F089985AF
:1006B000923088F089898230C8F0943019F4823001
:1006C00051F404C0843029F4923081F483E593E03E
:1006D000C6C0923049F420E09A858A89981321E0B7
:1006E0002A87CE010996BBC0823049F420E09A8562
:1006F0008A89981321E02A8BCE014196B0C02D84BF
:100700003E844F8458886D887E888F88988CEE242C
:10071000FF248701AA24BB24650140E050E060E08B
:1007200070E0E0E0F0E0C10181709070892BE9F0A9
:10073000E60CF71C081D191D9A01AB012A0D3B1D83
:100740004C1D5D1D80E090E0A0E0B0E0E614F704F1
:100750000805190520F481E090E0A0E0B0E0BA01BE
:10076000A901480F591F6A1F7B1FAA0CBB1CCC1C78
:10077000DD1C97FE08C081E090E0A0E0B0E0A82A70
:10078000B92ACA2ADB2A3196E032F10549F0660C13
:10079000771C881C991C5694479437942794C3CF90
:1007A000FA85EA892B893C898B859C85280F391F1E
:1007B0002E5F3F4F17C0CA0181709070892B61F086
:1007C00016950795F794E79480E090E0A0E0B0E8F4
:1007D000E82AF92A0A2B1B2B76956795579547959A
:1007E0002F5F3F4F77FDE7CF0CC0440F551F661FAB
:1007F000771F17FD4160EE0CFF1C001F111F2150D9
:100800003040403090E0590790E0690790E4790764
:1008100060F32B8F3C8FDB01CA018F779070A07043
:10082000B07080349105A105B10561F447FD0AC09F
:10083000E114F1040105110529F0405C5F4F6F4F91
:100840007F4F40781A8EFE1711F081E08A8F4D8F0E
:100850005E8F6F8F78A383E0898FCE0149960E94C7
:100860003A07A096E2E10C942023A8E1B0E0EBE384
:10087000F4E00C940C2369837A838B839C832D830F
:100880003E834F835887B9E0EB2EF12CEC0EFD1E12
:10089000CE010196B7010E940F088E010F5E1F4F17
:1008A000CE010596B8010E940F082985223008F470
:1008B0007EC03989323010F4B8017CC08A859A89AB
:1008C00089278A87243011F0223031F4231709F068
:1008D0006EC063E573E06EC0343039F41D861E8649
:1008E0001F86188A1C861B8604C0323021F484E0DF
:1008F0008987B7015FC02B853C858B899C89281B24
:10090000390B3C872B87ED84FE840F851889AD88D1
:10091000BE88CF88D88CEA14FB040C051D0540F472
:10092000EE0CFF1C001F111F215030403C872B870D
:1009300020E030E040E050E080E090E0A0E0B0E473
:1009400060E070E0EA14FB040C051D0540F0282B64
:10095000392B4A2B5B2BEA18FB080C091D09B695AD
:10096000A79597958795EE0CFF1C001F111F6F5FD1
:100970007F4F6F31710531F7DA01C9018F779070C0
:10098000A070B07080349105A105B10561F427FD18
:100990000AC0E114F1040105110529F0205C3F4F64
:1009A0004F4F5F4F20782D873E874F87588BBE0172
:1009B000675F7F4FCB010E943A076896EAE00C948C
:1009C0002823A8E1B0E0E7EEF4E00C94102369835B
:1009D0007A838B839C832D833E834F83588789E062
:1009E000E82EF12CEC0EFD1ECE010196B7010E94FF
:1009F0000F088E010F5E1F4FCE010596B8010E94B1
:100A00000F088985823040F08989823028F0C7013B
:100A1000B8010E94870801C08FEF6896E6E00C9449
:100A20002C23A8E1B0E0E7E1F5E00C941023698302
:100A30007A838B839C832D833E834F83588789E001
:100A4000E82EF12CEC0EFD1ECE010196B7010E949E
:100A50000F088E010F5E1F4FCE010596B8010E9450
:100A60000F088985823040F08989823028F0C701DB
:100A7000B8010E94870801C081E06896E6E00C9406
:100A80002C23A8E0B0E0E7E4F5E00C940D239B01F3
:100A9000AC0183E08983DA01C9018827B7FD83951A
:100AA0009927AA27BB27B82E2115310541055105E5
:100AB00019F482E089833AC08823A9F0203080E0CD
:100AC000380780E0480780E8580729F460E070E0C4
:100AD00080E09FEC30C0EE24FF248701E21AF30A85
:100AE000040B150B02C079018A018EE1C82ED12CAE
:100AF000DC82CB82ED82FE820F831887C801B701AA
:100B00000E94EB0601971816190684F4082E04C0FB
:100B1000EE0CFF1C001F111F0A94D2F7ED82FE821B
:100B20000F831887C81AD90ADC82CB82BA82CE0119
:100B300001960E943A072896E9E00C942923ACE03C
:100B4000B0E0E5EAF5E00C94142369837A838B83A3
:100B50009C83CE010196BE016B5F7F4F0E940F0800
:100B60008D81823061F1823050F1843021F48E81A8
:100B7000882351F12EC02F81388537FD20C06E812A
:100B80002F3131051CF06623F9F023C08EE190E08F
:100B9000821B930B29853A854B855C8504C056954D
:100BA0004795379527958A95D2F76623B1F05095EA
:100BB0004095309521953F4F4F4F5F4F0EC020E03D
:100BC00030E040E050E009C02FEF3FEF4FEF5FE72C
:100BD00004C020E030E040E050E8B901CA012C96A2
:100BE000E2E00C943023A8E0B0E0E9EFF5E00C94EB
:100BF0000C237B018C01611571058105910519F4A8
:100C000082E0898360C083E089838EE1C82ED12C85
:100C1000DC82CB82ED82FE820F831887C801B70188
:100C20000E94EB06FC013197F7FF3BC022273327D8
:100C30002E1B3F0B57016801022E04C0D694C794A7
:100C4000B794A7940A94D2F740E050E060E070E0D7
:100C500081E090E0A0E0B0E004C0880F991FAA1FD7
:100C6000BB1F2A95D2F70197A109B1098E219F21B7
:100C7000A023B1230097A105B10521F041E050E088
:100C800060E070E04A295B296C297D294D835E83F1
:100C90006F8378878EE190E08E1B9F0B9C838B8304
:100CA00012C0309781F00E2E04C0EE0CFF1C001F06
:100CB000111F0A94D2F7ED82FE820F831887CE1A95
:100CC000DF0ADC82CB821A82CE0101960E943A07AB
:100CD0002896EAE00C942823EF92FF920F93DF937B
:100CE000CF93CDB7DEB760970FB6F894DEBF0FBED7
:100CF000CDBFA82F002309F461C07E010894E11C38
:100D0000F11C88E0F70111928A95E9F729833A836B
:100D10004B835C836D837E83AF83988780E2801BE7
:100D2000E82FFF27E7FDF09549815A816B817C818F
:100D3000181684F019861A861B861C868827992720
:100D40008E1B9F0B04C0440F551F661F771F8A958B
:100D5000D2F728C0202F332727FD3095DB01CA01A9
:100D6000022E04C0880F991FAA1FBB1F0A94D2F736
:100D700089879A87AB87BC8704C076956795579516
:100D80004795EA95D2F78D819E81AF81B88504C0E1
:100D9000880F991FAA1FBB1F2A95D2F7482B592BE2
:100DA0006A2B7B2B4D875E876F87788B29853A85E9
:100DB0004B855C856D857E85AF8598898A2F609689
:100DC0000FB6F894DEBF0FBECDBFCF91DF910F916C
:100DD000FF90EF900895EF92FF920F931F937B0186
:100DE0008C0180E0E81680E0F80681E0080780E0EA
:100DF000180788F48FEFE816F1040105110531F0AA
:100E000028F088E090E0A0E0B0E017C080E090E03B
:100E1000A0E0B0E012C080E0E81680E0F80680E0D4
:100E2000080781E0180728F088E190E0A0E0B0E032
:100E300004C080E190E0A0E0B0E020E230E040E0DB
:100E400050E0281B390B4A0B5B0B04C01695079525
:100E5000F794E7948A95D2F7F701E55AFC4F808121
:100E6000281B310941095109C9011F910F91FF90B8
:100E7000EF900895DF92EF92FF920F931F93FC0182
:100E8000E480F58006811781D1808081823048F42A
:100E900080E090E0A0E1B0E0E82AF92A0A2B1B2BC1
:100EA000A5C0843009F49FC0823021F4EE24FF24D1
:100EB000870105C0E114F1040105110519F4E0E012
:100EC000F0E096C0628173819FEF623879070CF081
:100ED0005BC022E83FEF261B370B2A3131052CF08F
:100EE00020E030E040E050E02AC0B801A701022E27
:100EF00004C076956795579547950A94D2F781E097
:100F000090E0A0E0B0E004C0880F991FAA1FBB1FAB
:100F10002A95D2F70197A109B1098E219F21A0231B
:100F2000B1230097A105B10521F081E090E0A0E098
:100F3000B0E09A01AB01282B392B4A2B5B2BDA014D
:100F4000C9018F779070A070B07080349105A105B1
:100F5000B10539F427FF09C0205C3F4F4F4F5F4F69
:100F600004C0215C3F4F4F4F5F4FE0E0F0E0203086
:100F7000A0E03A07A0E04A07A0E45A0710F0E1E039
:100F8000F0E079018A0127C06038710564F5FB0142
:100F9000E158FF4FD801C7018F779070A070B070F3
:100FA00080349105A105B10539F4E7FE0DC080E458
:100FB00090E0A0E0B0E004C08FE390E0A0E0B0E0FB
:100FC000E80EF91E0A1F1B1F17FF05C0169507958F
:100FD000F794E794319687E016950795F794E79490
:100FE0008A95D1F705C0EE24FF248701EFEFF0E0EA
:100FF0006E2F679566276795902F9F77D794DD248E
:10100000D7948E2F8695492F462B582F5D29B701EF
:10101000CA011F910F91FF90EF90DF900895FC019E
:10102000DB01408151812281622F6F7770E0221FA6
:101030002227221F9381892F880F822B282F30E0AF
:10104000991F9927991F11969C9311972115310586
:10105000A9F5411551056105710511F482E037C00C
:1010600082E89FEF13969C938E9312979A01AB019F
:1010700067E0220F331F441F551F6A95D1F783E0A5
:101080008C930DC0220F331F441F551F12968D9154
:101090009C911397019713969C938E9312972030EF
:1010A00080E0380780E0480780E4580758F314963A
:1010B0002D933D934D935C93179708952F3F3105E2
:1010C00079F4411551056105710519F484E08C939B
:1010D000089564FF03C081E08C9312C01C9210C07D
:1010E0002F57304013963C932E93129783E08C93A6
:1010F00087E0440F551F661F771F8A95D1F77064EC
:1011000014964D935D936D937C93179708951F9359
:10111000DC01FB019C91923008F447C08081823051
:1011200008F443C0943051F411961C91843099F521
:101130008181682F70E0611B71093FC0843021F00C
:10114000923031F48230B9F18181882389F12DC048
:1011500011961C9111978230F1F081811817D9F402
:1011600012962D913C911397828193818217930758
:1011700094F028173907BCF014968D919D910D902D
:10118000BC91A02D248135814681578128173907CC
:101190004A075B0718F4112341F00AC0821793072E
:1011A000A407B50740F4112319F061E070E005C011
:1011B0006FEF7FEF02C060E070E0CB011F910895F8
:1011C000599810BC83E389B95898529886E880BD35
:1011D000579856985598549A539A0895282F809165
:1011E0009004882311F083E0089580E090E0A0E06F
:1011F000B0E003C00196A11DB11D5D9909C0803109
:1012000037E2930730E0A30730E0B30799F708C04F
:1012100080519742A040B04019F02CB980E001C045
:1012200084E0109290040895FC01009711F482E08C
:10123000089580919004882311F083E0089580E060
:1012400090E0A0E0B0E003C00196A11DB11D5F9940
:1012500009C0803127E2920720E0A20720E0B20710
:1012600099F709C080519742A040B04021F08CB15D
:10127000808380E001C084E0109290040895CF93B1
:10128000DF93009711F482E00AC0EC0105C00E94D0
:10129000EE082196882319F488818823C1F7DF910D
:1012A000CF910895FC0180919004882311F083E090
:1012B00008953097A9F06115710591F081E0809350
:1012C0009004F0938F04E0938E04709392046093E3
:1012D00091041092960480818CB9569A80E008950A
:1012E00082E00895AF92BF92CF92DF92EF92FF9289
:1012F0000F931F93CF93DF93EC015A016B0100977B
:1013000011F482E016C0EE24FF2487010CC0CE0148
:101310008E0D9F1D0E941409882359F40894E11C26
:10132000F11C011D111DEA14FB040C051D0578F3C9
:1013300080E0DF91CF911F910F91FF90EF90DF90B0
:10134000CF90BF90AF900895BC0180919004882306
:1013500011F083E0089561157105A9F0211531059B
:1013600091F081E0809390047093940460939304CF
:101370003093920420939104409395041092960424
:10138000579A80E0089582E008951F920F920FB659
:101390000F9211242F933F934F935F936F937F93FB
:1013A0008F939F93AF93BF93EF93FF939091960486
:1013B0008CB1E0919304F0919404E90FF11D8083C6
:1013C0009F5F9093960480919504981761F4109212
:1013D000960410929004E0919104F0919204309759
:1013E00009F009955798FF91EF91BF91AF919F91A7
:1013F0008F917F916F915F914F913F912F910F90BE
:101400000FBE0F901F9018951F920F920FB60F925C
:1014100011242F933F934F935F936F937F938F93F9
:101420009F93AF93BF93EF93FF93809196048F5F49
:1014300080939604E0918E04F0918F04E80FF11DE3
:10144000E081EE2369F41092960410929004E091EA
:101450009104F0919204309709F00995569801C0D3
:10146000ECB9FF91EF91BF91AF919F918F917F91D7
:101470006F915F914F913F912F910F900FBE0F9001
:101480001F90189583B7806483BF83B7886083BF3C
:1014900083B78F7E83BF83B7806283BF1CBE83B751
:1014A000887F83BF83B783BF08958FB58E7F8FBD3D
:1014B0008FB582608FBD8EB588608EBD8EB5806120
:1014C0008EBD1BBC1ABC19BC18BC80E29EE497BD43
:1014D00086BD8EB580648EBD8FB58F7B8FBD8FB579
:1014E00080688FBD8FB58F7E8FBD8FB580628FBDB9
:1014F00089B78B7F89BF89B78F7E89BF89B7877F7F
:1015000089BF89B78F7D89BF8EB5887F8EBD8EB527
:1015100082608EBD089582B5886082BD85B58F7B5F
:1015200085BD85B5877F85BD14BC89B7806489BFBB
:1015300085B5887F85BD85B5856085BD089582BFE9
:1015400008959DBD8CBD089584BD08958CBF0895F8
:101550009BBD8ABD089599BD88BD089583BD08953A
:1015600097BD86BD089582B708952CB53DB5C901D4
:10157000089584B508959BBD8ABD089595B5987F5B
:1015800095BD95B5982B95BD089593B7987F93BF5A
:1015900093B7982B93BF08958EB580648EBD89B79D
:1015A000806289BF0895813029F48EB580648EBD34
:1015B00080E00895882311F081E008958EB58F7B37
:1015C0008EBD80E0089589B7806289BF089589B78C
:1015D0008F7D89BF089526B537B5C901089581B5B6
:1015E000887F81BD81B5866081BD089581B58860A1
:1015F00081BD089581B5886181BD11BC08950097B2
:1016000011F482E00895E62FF0E0EE0FFF1FE95697
:10161000FB4F9183808380E008951F920F920FB655
:101620000F9211242F933F934F935F936F937F9368
:101630008F939F93AF93BF93EF93FF93E091AD048C
:10164000F091AE04309709F00995FF91EF91BF91A9
:10165000AF919F918F917F916F915F914F913F914A
:101660002F910F900FBE0F901F9018951F920F9201
:101670000FB60F9211242F933F934F935F936F9365
:101680007F938F939F93AF93BF93EF93FF93E091DB
:10169000AB04F091AC04309709F00995FF91EF91FC
:1016A000BF91AF919F918F917F916F915F914F917A
:1016B0003F912F910F900FBE0F901F9018951F9282
:1016C0000F920FB60F9211242F933F934F935F9376
:1016D0006F937F938F939F93AF93BF93EF93FF93FA
:1016E000E091A904F091AA04309709F00995FF91BF
:1016F000EF91BF91AF919F918F917F916F915F918A
:101700004F913F912F910F900FBE0F901F90189502
:101710001F920F920FB60F9211242F933F934F9366
:101720005F936F937F938F939F93AF93BF93EF9349
:10173000FF93E091A704F091A804309709F0099570
:10174000FF91EF91BF91AF919F918F917F916F9199
:101750005F914F913F912F910F900FBE0F901F906F
:1017600018951F920F920FB60F9211242F933F934B
:101770004F935F936F937F938F939F93AF93BF9399
:10178000EF93FF93E091A504F091A604309709F040
:101790000995FF91EF91BF91AF919F918F917F91AB
:1017A0006F915F914F913F912F910F900FBE0F90CE
:1017B0001F9018951F920F920FB60F9211242F931E
:1017C0003F934F935F936F937F938F939F93AF93C9
:1017D000BF93EF93FF93E091A304F091A40430979B
:1017E00009F00995FF91EF91BF91AF919F918F9172
:1017F0007F916F915F914F913F912F910F900FBE0D
:101800000F901F9018951F920F920FB60F921124F0
:101810002F933F934F935F936F937F938F939F93F8
:10182000AF93BF93EF93FF93E091A104F091A204D3
:10183000309709F00995FF91EF91BF91AF919F917A
:101840008F917F916F915F914F913F912F910F9069
:101850000FBE0F901F9018951F920F920FB60F9208
:1018600011242F933F934F935F936F937F938F93A5
:101870009F93AF93BF93EF93FF93E0919F04F091F9
:10188000A004309709F00995FF91EF91BF91AF91B6
:101890009F918F917F916F915F914F913F912F9188
:1018A0000F900FBE0F901F9018958FB780688FBF55
:1018B00008958FB78F778FBF089585B78E7F85BFC7
:1018C00085B7826085BF0895E82F762F862F8650D2
:1018D000823008F069C0770F7C50E13009F44CC0C9
:1018E000E130D0F1E23021F0E33009F05DC01BC0FF
:1018F00065B7472F50E021E030E0C901072E02C054
:10190000880F991F0A94E2F78095862385BF85B7D3
:101910004F5F5F4F02C0220F331F4A95E2F72095B9
:10192000282325BF41C065B7472F50E081E090E0F4
:101930009C01072E02C0220F331F0A94E2F7622B8C
:1019400065BF25B74F5F5F4F02C0880F991F4A954B
:10195000E2F78095822327C065B7272F30E041E06A
:1019600050E0CA01072E02C0880F991F0A94E2F7BF
:101970008095862385BF0EC065B7272F30E041E0F4
:1019800050E0CA01072E02C0880F991F0A94E2F79F
:10199000682B65BF85B72F5F3F4F02C0440F551FAF
:1019A0002A95E2F7842B85BF753061F4EE2319F098
:1019B000E13041F404C084B78F7B84BF089584B7BD
:1019C000806484BF0895382F8550833010F081E003
:1019D00008952BB781E090E002C0880F991F3A95D7
:1019E000E2F7809582238BBF80E00895382F8550E1
:1019F000833010F081E008952BB781E090E002C0C1
:101A0000880F991F3A95E2F7282B2BBF80E00895A5
:101A10009AB721E030E002C0220F331F8A95E2F727
:101A2000922B9ABF08954AB721E030E0082E02C0F9
:101A3000220F331F0A94E2F750E02423352302C01B
:101A4000359527958A95E2F7822F08950097B1F092
:101A5000663029F49093A8048093A7040DC06730E2
:101A600029F49093AA048093A90406C0653031F448
:101A70009093AC048093AB0480E0089581E00895D6
:101A80001F920F920FB60F9211242F933F934F93F3
:101A90005F936F937F938F939F93AF93BF93EF93D6
:101AA000FF93E091A704F091A804309721F00995E5
:101AB0008AB780648ABFFF91EF91BF91AF919F91E8
:101AC0008F917F916F915F914F913F912F910F90E7
:101AD0000FBE0F901F9018951F920F920FB60F9286
:101AE00011242F933F934F935F936F937F938F9323
:101AF0009F93AF93BF93EF93FF93E091A904F0916D
:101B0000AA04309721F009958AB780688ABFFF91AF
:101B1000EF91BF91AF919F918F917F916F915F9165
:101B20004F913F912F910F900FBE0F901F901895DE
:101B30001F920F920FB60F9211242F933F934F9342
:101B40005F936F937F938F939F93AF93BF93EF9325
:101B5000FF93E091AB04F091AC04309721F009952C
:101B60008AB780628ABFFF91EF91BF91AF919F9139
:101B70008F917F916F915F914F913F912F910F9036
:101B80000FBE0F901F9018959FBB8EBB6DBBE29A46
:101B9000E19AE199FECF08958EBB9FBBE09A8DB389
:101BA0000895843008F077C0683008F074C0413080
:101BB000B1F5813099F0813030F08230D1F083304E
:101BC00009F06BC021C02AB381E090E002C0880F09
:101BD000991F6A95E2F7282B2ABB5BC027B381E0E7
:101BE00090E002C0880F991F6A95E2F7282B27BB67
:101BF00050C024B381E090E002C0880F991F6A951D
:101C0000E2F7282B24BB45C021B381E090E002C05D
:101C1000880F991F6A95E2F7282B21BB3AC044230D
:101C2000D1F5813099F0813028F08230D9F08330BD
:101C3000A1F524C02AB381E090E002C0880F991F6B
:101C40006A95E2F7809582238ABB23C027B381E09F
:101C500090E002C0880F991F6A95E2F78095822371
:101C600087BB17C024B381E090E002C0880F991FA2
:101C70006A95E2F78095822384BB0BC021B381E093
:101C800090E002C0880F991F6A95E2F78095822341
:101C900081BB81E0089580E0089581E0089584305B
:101CA00008F077C0683008F074C04130B1F5813079
:101CB00099F0813030F08230D1F0833009F06BC080
:101CC00021C02BB381E090E002C0880F991F6A9574
:101CD000E2F7282B2BBB5BC028B381E090E002C069
:101CE000880F991F6A95E2F7282B28BB50C025B3AF
:101CF00081E090E002C0880F991F6A95E2F7282BD7
:101D000025BB45C022B381E090E002C0880F991F37
:101D10006A95E2F7282B22BB3AC04423D1F58130E3
:101D200099F0813028F08230D9F08330A1F524C0B9
:101D30002BB381E090E002C0880F991F6A95E2F70B
:101D4000809582238BBB23C028B381E090E002C042
:101D5000880F991F6A95E2F78095822388BB17C088
:101D600025B381E090E002C0880F991F6A95E2F7E1
:101D70008095822385BB0BC022B381E090E002C036
:101D8000880F991F6A95E2F78095822382BB81E0D4
:101D9000089580E0089581E00895FA01843028F5DF
:101DA000683018F5813049F0813028F0823039F000
:101DB0008330C9F406C029B305C026B303C023B3DA
:101DC00001C020B381E090E0062E02C0880F991F69
:101DD0000A94E2F730E08223932302C09595879519
:101DE0006A95E2F7808381E0089580E00895843069
:101DF000C0F56830B0F5813091F0813028F0823044
:101E0000C9F0833061F521C02BB381E090E002C0BE
:101E1000880F991F6A95E2F728272BBB20C028B3AB
:101E200081E090E002C0880F991F6A95E2F72827A9
:101E300028BB15C025B381E090E002C0880F991F30
:101E40006A95E2F7282725BB0AC022B381E090E01B
:101E500002C0880F991F6A95E2F7282722BB81E00C
:101E6000089580E00895843008F08FC0683008F04D
:101E70008CC0813049F1813038F0823009F444C09F
:101E8000833009F080C060C0413091F480B78B7F0F
:101E900080BF3AB381E090E002C0880F991F6A9535
:101EA000E2F7282F209523232ABB2BB3822B0AC0CD
:101EB0002BB381E090E002C0880F991F6A95E2F78A
:101EC000809582238BBB5FC0413091F480B78B7FBC
:101ED00080BF37B381E090E002C0880F991F6A95F8
:101EE000E2F7282F2095232327BB28B3822B0AC093
:101EF00028B381E090E002C0880F991F6A95E2F74D
:101F00008095822388BB3FC0413091F480B78B7F9E
:101F100080BF34B381E090E002C0880F991F6A95BA
:101F2000E2F7282F2095232324BB25B3822B0AC058
:101F300025B381E090E002C0880F991F6A95E2F70F
:101F40008095822385BB1FC0413091F480B78B7F81
:101F500080BF31B381E090E002C0880F991F6A957D
:101F6000E2F7282F2095232321BB22B3822B0AC01E
:101F700022B381E090E002C0880F991F6A95E2F7D2
:101F80008095822382BB81E0089580E008958430AB
:101F900090F4813049F0813028F0823039F083307C
:101FA00051F406C06ABB05C067BB03C064BB01C077
:101FB00061BB81E0089580E00895843090F4813021
:101FC00049F0813028F0823039F0833051F406C076
:101FD0006BBB05C068BB03C065BB01C062BB81E0D1
:101FE000089580E00895FB01843098F4813049F031
:101FF000813028F0823039F0833059F406C089B33B
:1020000005C086B303C083B301C080B3808381E081
:10201000089580E00895843010F080E008958130C4
:1020200059F0813028F0823059F0833061F40DC0CE
:102030008BB380958BBB07C088B3809588BB03C0EA
:1020400085B3809585BB81E0089582B3809582BB7E
:1020500081E00895843010F080E008956F70813041
:1020600071F0813028F0823089F08330A9F416C0F5
:102070008BB3807F8BBB8BB3682B6BBB0DC088B3DE
:10208000807F88BB88B3682B68BB06C085B3807F20
:1020900085BB85B3682B65BB81E0089582B3807FE3
:1020A00082BB82B3682B62BB81E00895843010F05C
:1020B00080E008956295607F813071F0813028F072
:1020C000823089F08330A9F416C08BB38F708BBB3C
:1020D0008BB3682B6BBB0DC088B38F7088BB88B384
:1020E000682B68BB06C085B38F7085BB85B3682B32
:1020F00065BB81E0089582B38F7082BB82B3682B89
:1021000062BB81E00895843010F080E008956F7024
:10211000813071F0813028F0823089F08330A9F469
:1021200016C08AB3807F8ABB8AB3682B6ABB0DC096
:1021300087B3807F87BB87B3682B67BB06C084B338
:10214000807F84BB84B3682B64BB81E0089581B336
:10215000807F81BB81B3682B61BB81E008958430AF
:1021600010F080E008956295607F813071F08130D9
:1021700028F0823089F08330A9F416C08AB38F70BA
:102180008ABB8AB3682B6ABB0DC087B38F7087BBCD
:1021900087B3682B67BB06C084B38F7084BB84B3DE
:1021A000682B64BB81E0089581B38F7081BB81B3DC
:1021B000682B61BB81E008953E9A3F983D9886B1B7
:1021C000887F86B986B1876086B93598379A339803
:1021D0000895379A089537980895339A0895339853
:1021E0000895982F823020F0833011F081E0089517
:1021F00087B18F7387B987B19295990F990F907CAA
:10220000892B87B980E00895982F883010F081E0FD
:10221000089586B1887F86B986B1892B86B980E01A
:102220000895882311F43D980895813011F081E0DC
:1022300008953D9A80E00895883019F4359880E03B
:102240000895883010F081E00895359A80B78F7135
:1022500080BF80B780BF80E00895982FFB01611593
:10226000710511F482E008958091AF04882311F084
:1022700083E00895903230F487B1807E87B987B1CA
:10228000892B87B9369A80E090E0A0E0B0E003C0E7
:102290000196A11DB11D349B06C08055934CA040F2
:1022A000B04051F415C0803523EC920720E0A2071E
:1022B00020E0B20769F70CC0349A84B145B1342FDD
:1022C00020E090E0282B392B3183208380E001C06F
:1022D00081E01092AF040895982F6115710511F1F6
:1022E00041155105F9F08091AF04882311F083E086
:1022F000089581E08093AF041092B2047093AE040D
:102300006093AD045093B1044093B004903230F424
:1023100087B1807E87B987B1892B87B9369A339A7E
:1023200080E0089582E00895FC010097B9F1A08152
:10233000B181109799F1458156814115510571F18F
:10234000228133812115310549F18091AF04882321
:1023500011F083E0089581E08093AF048093B2048C
:102360003093AE042093AD04B093B404A093B304AF
:1023700084818093B5045093B1044093B0041092CB
:10238000B6049C91903230F487B1807E87B987B1D2
:10239000982B97B9369A339A80E0089582E0089591
:1023A0001F920F920FB60F9211242F933F934F93CA
:1023B0005F936F937F938F939F93AF93BF93EF93AD
:1023C000FF938091B204882371F424B145B1E09168
:1023D000AD04F091AE04942F80E030E0822B932B7B
:1023E000918380831EC08130A9F55091B60424B139
:1023F00045B1852F90E0880F991FE091AD04F091D1
:10240000AE04E80FF91F942F80E030E0822B932B6D
:10241000918380835F5F5093B6048091B504581711
:1024200049F41092AF04E091B004F091B104099521
:10243000339810C0E091B304F091B404E50FF11D9E
:10244000E081E03230F487B1807E87B987B1E82B34
:10245000E7B9369AFF91EF91BF91AF919F918F911C
:102460007F916F915F914F913F912F910F900FBE90
:102470000F901F9018951DBC1CBC992787FD909547
:10248000A92FB92FBC01CD010E94410521E63BE0F7
:1024900046EB5BE30E943B0320E030E040EC5FE36F
:1024A0000E940E0320E030E04AE754E40E943B0320
:1024B0000E9449007BBD6ABD089583E065E041E06C
:1024C0000E94D10D0895CF92DF92EF92FF920F9369
:1024D0001F93DF93CF9300D0CDB7DEB78C016B0194
:1024E000FC01818190E028EE33E0829F7001839FA0
:1024F000F00C929FF00C11248081BE016F5F7F4F22
:102500000E942D11F8018281882389F4B70180E0AF
:1025100090E029813A8140E050E00E9481223AE037
:1025200096958795779567953A95D1F70FC0813045
:1025300081F4B70180E090E029813A8140E050E0E9
:102540000E948122672F782F892F9927F6017183A6
:10255000608380E00F900F90CF91DF911F910F91DA
:10256000FF90EF90DF90CF900895CF92DF92EF929F
:10257000FF920F931F93DF93CF9300D0CDB7DEB7B9
:102580008C016B01FC01818190E028EE33E0829F99
:102590007001839FF00C929FF00C11248081BE018A
:1025A0006F5F7F4F0E942D11F8018281882389F48B
:1025B000B70180E090E029813A8140E050E00E943C
:1025C00081225AE096958795779567955A95D1F728
:1025D0000FC0813071F4B70180E090E029813A8129
:1025E00040E050E00E948122672F782F892F9927A1
:1025F000CB016AE070E00E94A022F601608380E0D7
:102600000F900F90CF91DF911F910F91FF90EF905E
:10261000DF90CF900895DF93CF9300D00F92CDB786
:10262000DEB7962F6983672F7A838B83892F0E9469
:10263000F70E0F900F900F90CF91DF910895DF93D9
:10264000CF9300D00F92CDB7DEB7262F69837A8360
:102650008B83672F813019F4822F40E004C08823D8
:1026600021F4822F41E00E944F0E0F900F900F90A7
:10267000CF91DF910895DF93CF9300D00F92CDB724
:10268000DEB7262F69837A838B83672F813019F415
:10269000822F41E004C0882321F4822F40E00E9471
:1026A0004F0E0F900F900F90CF91DF910895DF9311
:1026B000CF9300D00F92CDB7DEB7962F6983672FE7
:1026C0007A838B83892F41E00E94D10D0F900F9068
:1026D0000F90CF91DF910895EF92FF920F931F9388
:1026E000DF93CF9300D0CDB7DEB78C017B01FC0127
:1026F0008081BE016F5F7F4F0E942D11F8018281A2
:10270000882359F469817A8180E090E00E94F30582
:1027100020E030E040E85AE30CC08130B1F4698138
:102720007A8180E090E00E94F30520E030E040E80C
:102730005BE30E943B0320E030E048EC52E40E945F
:102740003B030E944900F701608380E00F900F90E7
:10275000CF91DF911F910F91FF90EF9008958F928D
:102760009F92BF92CF92DF92EF92FF920F931F93AF
:10277000DF93CF930F92CDB7DEB7BB24BA94CC24AE
:10278000DD247E010894E11CF11C98EC892E912C2B
:102790000C2D0C5F83E0602F40E00E944F0E83E021
:1027A00060E0A7010E94CD0E8981882311F410E01A
:1027B0001DC083E061E0A7010E94CD0E89818823BE
:1027C00011F411E013C083E062E0A7010E94CD0E76
:1027D0008981882311F412E009C083E063E0A70136
:1027E0000E94CD0E8981882319F513E084EF91E0D2
:1027F000F4013197F1F70197D9F783E0612FA70131
:102800000E94CD0E8981882359F4E12FF0E0EE0F6C
:10281000FF1FEE0FFF1FEC0DFD1DE55AFB4FB080B3
:1028200083E0612FA7010E94CD0E89818823C1F327
:1028300083E0602F41E00E944F0E0894C11CD11C20
:1028400084E0C816D10409F0A3CF8B2D0F90CF914F
:10285000DF911F910F91FF90EF90DF90CF90BF908D
:102860009F908F90089583E060E041E00E94330FD5
:1028700083E061E041E00E94330F83E062E041E0E9
:102880000E94330F83E063E041E00E94330F83E056
:102890006FE00E94AF1083E06FE00E945610089531
:1028A0000F931F9381E064E041E00E944F0E00ED22
:1028B00017E0C8010197F1F781E064E040E00E9471
:1028C0004F0EC8010197F1F71F910F9108951F93C3
:1028D000182F81E066E040E00E944F0E81E065E045
:1028E00040E00E944F0E612F62956F7082E00E945F
:1028F0002A100E94501482E0612F0E942A100E9428
:1029000050141F91089588E10E94671480ED97E0AC
:102910000197F1F708958CE10E94671480ED97E02C
:102920000197F1F70895982F81508430C0F4662301
:10293000B1F06531A0F4913019F4862F815810C0A0
:10294000923019F4862F81540BC0933019F4862FDE
:102950008D5606C0943021F4862F8D5201C080E838
:102960000E94671480ED97E00197F1F7089581E0E8
:102970000E94671480E29EE40197F1F708951F9387
:10298000182F81E066E041E00E944F0E81E065E093
:1029900040E00E944F0E612F62956F7082E00E94AE
:1029A0002A100E94501482E0612F0E942A100E9477
:1029B00050141F9108950F931F93CF93DF93182FF7
:1029C000062F80E40E946714CBE6D4E089910E9430
:1029D000BF1484E0C337D807C9F7812F602F0E9446
:1029E000931410E0812F0E94BF141F5F1830D1F79D
:1029F000DF91CF911F910F9108956F927F928F92E7
:102A00009F92AF92BF92CF92DF92EF92FF920F937D
:102A10001F935B016C01611571058105910521F41E
:102A200080E30E94BF1456C097FF0BC08DE20E9446
:102A3000BF14D094C094B094A094A11CB11CC11C2C
:102A4000D11C81E0682E712C812C912CC401B30122
:102A50002AE030E040E050E00E9481227B018C01BE
:102A6000C601B5010E94E9223B014C016E0C7F1C9E
:102A7000801E911EC601B5012AE030E040E050E022
:102A80000E94E922C901DA015C016D01A114B104BF
:102A9000C104D104D9F618C0C401B3012AE030E062
:102AA00040E050E00E94C722862F805D0E94BF1444
:102AB000C401B3012AE030E040E050E00E94C722A8
:102AC000C901DA013C014D0181E0681671048104FD
:102AD000910411F71F910F91FF90EF90DF90CF902D
:102AE000BF90AF909F908F907F906F900895EF92DE
:102AF000FF920F931F937B018C010E949F050E9400
:102B0000FD14C801B70120E030E040E050E00E9431
:102B10001105882324F417FB109517F91095C801A7
:102B2000B7010E949F050E9441059B01AC01C801AD
:102B3000B7010E94DD0220E030E44CE156E40E943F
:102B40003B037B018C010E947500232B242B252B3A
:102B5000262B272B282B292B49F08EE20E94BF140D
:102B6000C801B7010E949F050E94FD141F910F919B
:102B7000FF90EF9008951F93CF93DF93EC0110E047
:102B800003C00E94BF141F5FFE01E10FF11D808191
:102B90008823B9F7DF91CF911F9108950F931F9369
:102BA00084EF91E028EC30E0F9013197F1F70197DB
:102BB000D9F782E060E041E00E94D10D82E061E05F
:102BC00041E00E94D10D82E062E041E00E94D10D1F
:102BD00082E063E041E00E94D10D81E066E041E0E7
:102BE0000E94D10D81E065E041E00E94D10D81E0BD
:102BF00064E041E00E94D10D82E00E94671480E20F
:102C00009EE40197F1F788E20E94671400ED17E057
:102C1000C8010197F1F78CE00E946714C801019781
:102C2000F1F70E94B71486E00E946714C80101976B
:102C3000F1F71F910F91089580E10E94671480E2DF
:102C40000E94BF1480E10E94671408951F93CF93E0
:102C5000DF930E94B71480E690E00E94BB1515E355
:102C6000C8ECD0E080E10E946714812F0E94BF145D
:102C700080E197E2FE013197F1F70197D9F7115002
:102C8000103381F782E190E06FEF0E94C40D83E082
:102C900080937304DF91CF911F9108950F931F9339
:102CA0000E94B7148DE690E00E94BB1582E061E0BF
:102CB0000E9493148EE00E94671481E08093750453
:102CC00010E082ED94E00E941409809376048091D4
:102CD00076048823C1F41123B1F48091D2048D309D
:102CE00081F38091D2048F3061F38091D2048830D7
:102CF00041F38091D2040E94BF148091D20480934A
:102D0000BD0411E0DECF809176048823D9F41F3012
:102D1000C8F48091D2048D3029F18091D2048F3093
:102D200009F18091D204883051F18091D2040E943F
:102D3000BF14E12FF0E08091D204E354FB4F808375
:102D40001F5FBFCF80917604882309F0BACF1F3070
:102D500008F4B7CF8091D2048D3021F08091D20455
:102D60008F3041F48CE00E9467148091B8041817EA
:102D700021F509C08091D204883009F0A2CF0E94C9
:102D80001C1611509ECF00E013C0202F30E0F90137
:102D9000E354FB4F80818823B1F01081C9018F5B20
:102DA0009F4F0E94CC0D181711F0109275040F5F01
:102DB0008091B804081748F306C08091B80418172A
:102DC00011F0109275041F910F9108950F931F93A6
:102DD0000E94B7148CE790E00E94BB1582E061E08E
:102DE0000E9493148EE00E94671481E08093740423
:102DF00010E082ED94E00E941409809376048091A3
:102E000076048823C1F41123B1F48091D2048D306B
:102E100081F38091D2048F3061F38091D2048830A5
:102E200041F38091D2040E94BF148091D204809318
:102E3000BD0411E0DECF809176048823D9F41431EB
:102E4000C8F48091D2048D3029F18091D2048F3062
:102E500009F18091D204883051F18091D2040E940E
:102E6000BF14E12FF0E08091D204E354FB4F808344
:102E70001F5FBFCF80917604882309F0BACF143149
:102E800008F4B7CF8091D2048D3021F08091D20424
:102E90008F3041F48CE00E9467148091B7041817BA
:102EA00019F509C08091D204883009F0A2CF0E94A0
:102EB0001C1611509ECF00E012C0202F30E0F90107
:102EC000E354FB4F80818823A9F01081C9018196CA
:102ED0000E94CC0D181711F0109274040F5F8091AE
:102EE000B804801750F706C08091B704181711F086
:102EF000109274041F910F910895CF93DF93C8EC43
:102F0000D0E00E94E6160E944E1680917404882339
:102F100029F080917504882309F04EC00E94B714EF
:102F20008BE890E00E94BB1582E061E00E94931460
:102F30008CE990E00E94BB158091730481508093CE
:102F400073046091730482E190E00E94C40D80914B
:102F500073048823A9F083E061E00E94931488EA57
:102F600090E00E94BB1580917304805D0E94BF14A5
:102F700088E59BE1FE013197F1F70197D9F7C1CFC1
:102F800080917304882309F0BCCF83E061E00E9444
:102F9000931488EA90E00E94BB1580917304805DD1
:102FA0000E94BF1488E893E1FE013197F1F7019781
:102FB000D9F70E942616A5CF0E94B71486EB90E0A1
:102FC0000E94BB1582E061E00E94931483EC90E0C4
:102FD0000E94BB1588E59BE128EC30E0F9013197B0
:102FE000F1F70197D9F7DF91CF9108950E94B714B7
:102FF0008BEC90E00E94BB1582E061E00E9493148C
:1030000088ED90E00E94BB156FE070E080E090E0FA
:103010000E94FD1484E06FE00E94DB1484E060E114
:103020000E94931488EE90E00E94BB1583E061E05B
:103030000E9493141092B8048091B804882309F474
:103040005DC00E94B7148EEE90E00E94BB1582E036
:1030500061E00E9493148FEF90E00E94BB1584E31F
:103060000E94BF148AE091E00E94BB1584E061E0F9
:103070000E94DB1484E062E00E94931480E191E0FE
:103080000E94BB1582ED94E00E941409809376049F
:10309000809176048823B1F78091D2048D3021F09D
:1030A0008091D2048F3071F70E94B71481E065E0FF
:1030B0000E9493148BEC90E00E94BB1582E061E0CB
:1030C0000E94931488ED90E00E94BB156FE070E0C1
:1030D00080E090E00E94FD1484E06FE00E94DB1429
:1030E00084E060E10E94931488EE90E00E94BB159A
:1030F00083E061E00E9493141092B8048EE00E9475
:10310000671482ED94E00E94140980937604809104
:103110007604882389F48091B804882369F4809127
:10312000D2048D3071F38091D2048F3051F38091AD
:10313000D204883031F314C080917604882309F5D5
:103140008091B8048F30E8F48091D2048D3059F129
:103150008091D2048F3039F18091D204883089F186
:103160008091D2040E94BF148091B8046091D2046F
:1031700090E08F5B9F4F0E94C40D8091B8048F5FD9
:1031800025C080917604882309F0BBCF8091B804D4
:103190008F3008F4B6CF8091D2048D3021F0809129
:1031A000D2048F3049F48CE00E9467148091B804F7
:1031B000853008F441CF0DC08091D204883009F0E9
:1031C000A0CF0E941C168091B80481508093B8044F
:1031D00098CF81E190E060E00E94C40D6091B80456
:1031E00084E190E00E94C40D0895FF920F931F9315
:1031F0000E94B71481E065E00E94931488E191E099
:103200000E94BB1582E061E00E94931488ED90E07B
:103210000E94BB1564E170E080E090E00E94FD1424
:1032200084E06FE00E94DB1484E060E10E9493146C
:1032300088EE90E00E94BB1583E061E00E94931449
:103240008EE00E9467141092B7048091B70488231F
:1032500009F45DC00E94B71485E291E00E94BB159D
:1032600082E061E00E9493148FEF90E00E94BB1512
:1032700087E30E94BF148AE091E00E94BB1584E0BE
:1032800061E00E94DB1484E062E00E94931480E11C
:1032900091E00E94BB1582ED94E00E941409809396
:1032A0007604809176048823B1F78091D2048D3022
:1032B00021F08091D2048F3071F70E94B71481E021
:1032C00063E00E94931486E391E00E94BB1582E0C4
:1032D00061E00E94931488ED90E00E94BB1564E1C8
:1032E00070E080E090E00E94FD1484E06FE00E94B6
:1032F000DB1484E060E10E94931488EE90E00E9469
:10330000BB1583E061E00E9493141092B70482ED34
:1033100094E00E94140980937604809176048823B7
:1033200089F48091B704882369F48091D2048D30A8
:1033300071F38091D2048F3051F38091D2048830A0
:1033400031F314C080917604882301F58091B7048D
:103350008431E0F48091D2048D3051F18091D20417
:103360008F3031F18091D204883081F18091D20484
:103370000E94BF148091B7046091D20490E08196BE
:103380000E94C40D8091B7048F5F25C080917604A0
:10339000882309F0BCCF8091B704843108F4B7CFFB
:1033A0008091D2048D3021F08091D2048F3049F485
:1033B0008CE00E9467148091B704883008F445CFF0
:1033C0000DC08091D204883009F0A1CF0E941C1654
:1033D0008091B70481508093B70499CF80E190E049
:1033E00060E00E94C40D6091B70483E190E00E9408
:1033F000C40DFF240BC00F2D10E0C80181960E9460
:10340000CC0D0D521B4FF8018083F3948091B704CB
:10341000F81688F3E091B704F0E0ED52FB4F10820C
:103420001F910F91FF900895FF920F931F9383E1D7
:1034300090E00E94CC0D8093B70484E190E00E945C
:10344000CC0D8093B80482E190E00E94CC0D8F3FB8
:1034500031F082E190E00E94CC0D8093730480E112
:1034600090E00E94CC0D8F3F89F486E491E00E94A9
:10347000BB1588E893E128EC30E0F9013197F1F7CA
:103480000197D9F70E94B7140E94F51881E190E0E6
:103490000E94CC0D8F3F99F40E94F6170E94B7143A
:1034A00085E591E00E94BB1588E59BE128EC30E0C2
:1034B000F9013197F1F70197D9F70E94B71480917C
:1034C0007304882311F40E942616FF240BC00F2DCD
:1034D00010E0C80181960E94CC0D0D521B4FF801DF
:1034E0008083F3948091B704F81688F31F910F91AD
:1034F000FF900895DF93CF930F92CDB7DEB7198277
:1035000081E060E0AE014F5F5F4F0E94CD0E898188
:10351000813009F442C0882309F03FC08FEF8093C7
:10352000E7048AE794E067EE74E00E946C138091F0
:10353000E704823340F460918304709184048091A5
:1035400085040E940B138FEF8093E7048DE794E0CE
:1035500067EE74E00E946C138091E704823340F4BC
:103560006091860470918704809188040E940B13F7
:103570008FEF8093E70480E894E067EE74E00E94A8
:103580006C138091E704823340F460918904709158
:103590008A0480918B040E940B130F90CF91DF91CE
:1035A000089587E794E068EE74E00E94B512909168
:1035B0008C0492FD2BC080918D0482FF1BC19F77EC
:1035C00090938C048C7F80938D048091BC04823016
:1035D00081F0833028F4882341F0813099F407C0CA
:1035E000833049F0843071F408C080E007C08FE375
:1035F00005C08EE703C08DEB01C08FEF0E94A60AC5
:103600001092BC0480918D048B7FC5C08091E8042A
:103610008431D0F49F7790938C0480918D048C7FBB
:1036200080938D0480E00E94A60A88EE93E028EC47
:1036300030E0F9013197F1F70197D9F780E00E9466
:10364000C50A80918D0428C08091E804843130F14E
:103650008091E8048A3110F5991F9927991F80916C
:103660008D048370880F892B813009F4C3C0809149
:10367000BA04882331F484E00E94C50A81E0809373
:10368000BA0482E30E94A60A80918C048068809329
:103690008C0480918D048C7F84607DC08091E804CF
:1036A0008A3110F18091E8048F31F0F490918C040C
:1036B000991F9927991F80918D048370880F892BFA
:1036C000823009F497C08091BA04882331F484E0F1
:1036D0000E94C50A81E08093BA0484E60E94A60A8B
:1036E00080918C048F7725C08091E8048F3140F160
:1036F0008091E804843220F590918C04991F9927D9
:10370000991F80918D048370880F892B833009F471
:1037100071C08091BA04882331F484E00E94C50A04
:1037200081E08093BA0486E90E94A60A80918C0405
:10373000806880938C0480918D048C7F85602BC081
:103740008091E804843250F18091E804893230F5A8
:1037500090918C04991F9927991F80918D048370F3
:10376000880F892B843009F445C08091BA048823DE
:1037700031F484E00E94C50A81E08093BA0488ECA9
:103780000E94A60A80918C048F7780938C0480918C
:103790008D048C7F866080938D0408958091E80469
:1037A000893240F18091E8048E3220F590918C04AA
:1037B000991F9927991F80918D048370880F892BF9
:1037C0008530C1F08091BA04882331F484E00E94EE
:1037D000C50A81E08093BA048FEF0E94A60A809107
:1037E0008C04806880938C0480918D048C7F86602B
:1037F00080938D040895DF93CF930F92CDB7DEB7FA
:103800008091BB048F5F8093BB0419820E94D11A00
:1038100083E062E0AE014F5F5F4F0E94CD0E898171
:10382000813009F44BC0882309F04AC08091BB0461
:10383000833009F045C08FEF8093E7048AE794E076
:1038400067EE74E00E946C138091E704833350F0BC
:103850006091830470918404809185040E940B130D
:103860001092BB048FEF8093E7048DE794E067EE3E
:1038700074E00E946C138091E704833350F06091F0
:10388000860470918704809188040E940B13109223
:10389000BB048FEF8093E70480E894E067EE74E068
:1038A0000E946C138091E704833350F06091890487
:1038B00070918A0480918B040E940B131092BB04B8
:1038C0000F90CF91DF9108951F93CF93DF930E94C4
:1038D000B71488E691E00E94BB1582E061E00E9487
:1038E000931487E791E00E94BB1582E891E00E9463
:1038F000BB1583E061E00E94931489E891E00E9487
:10390000BB1584E991E00E94BB1584E061E00E9450
:1039100093148BE991E00E94BB1580918C0482FF87
:1039200004C086EA91E00E94BB1511E0C8ECD0E02B
:1039300082ED94E00E9414098093760480917604CD
:10394000882309F082C08091D204833379F18433D3
:1039500040F4813361F08233E0F4883009F080C0B4
:103960004EC0843381F1853309F07AC039C010929A
:10397000B90480E00E94A60A88EE93E0FE01319728
:10398000F1F70197D9F780E00E94C50A1092BA04B6
:1039900067C01092B9048091BA04882329F484E0A6
:1039A0000E94C50A1093BA048FE326C01092B9048E
:1039B0008091BA04882329F484E00E94C50A1093F8
:1039C000BA048EE719C01092B9048091BA04882312
:1039D00029F484E00E94C50A1093BA048DEB0CC050
:1039E0001092B9048091BA04882329F484E00E94DB
:1039F000C50A1093BA048FEF0E94A60A31C0109234
:103A0000B90480918C04886080938C040E94B71460
:103A100082EC91E00E94BB1582E061E00E94931469
:103A200082ED91E00E94BB1583E061E00E94931457
:103A30008EED91E00E94BB1584E061E00E9493143A
:103A40008BEE91E00E94BB150BC080917604843010
:103A500039F48091B9048091B9048F5F8093B904DF
:103A60008091D204883009F063CFDF91CF911F910C
:103A70000895CF93DF93813009F0C0C00E94B7143E
:103A80008BEF91E00E94BB1582E061E00E949314ED
:103A90008AE092E00E94BB158FEF8093D204C8ECBD
:103AA000D0E08AE794E067EE74E00E946C138091A6
:103AB000D2048133E1F48091E7048233C0F4809131
:103AC0008C0484FD14C084E065E00E94931488E8AF
:103AD00093E1FE013197F1F70197D9F78FE192E079
:103AE0000E94BB1580918C04806180938C0480912E
:103AF000E704833300F180918C048F7E80938C04E3
:103B000084E065E00E94931480E392E00E94BB157C
:103B100082ED94E00E9414098093760480917604EB
:103B2000882309F05AC08091D2048830B9F18233D9
:103B300009F05EC024C08091E704823308F058C0C9
:103B400084E065E00E94931480918C0484FD04C09D
:103B50008EE692E00E94BB1582ED94E00E9414096B
:103B600080937604809176048823B9F58091D204FD
:103B7000813329F0823361F08830D1F50FC0609134
:103B8000830470918404809185040E940B1330C0DB
:103B900080918C048F7E80938C042AC00E94B7147D
:103BA00082EC91E00E94BB1582E061E00E949314D8
:103BB00081E492E00E94BB1583E061E00E949314CF
:103BC00080E592E00E94BB1584E061E00E949314BE
:103BD0008FE592E00E94BB150BC080917604843083
:103BE00039F48091B9048091B9048F5F8093B9044E
:103BF0008091D204883009F054CF7CC1823009F022
:103C0000C0C00E94B7148FE792E00E94BB1582E00B
:103C100061E00E9493148AE092E00E94BB158FEF4E
:103C20008093D204C8ECD0E08DE794E067EE74E0B6
:103C30000E946C138091D2048133E1F48091E704F7
:103C40008233C0F480918C0485FD14C084E065E06B
:103C50000E94931488E893E1FE013197F1F70197F0
:103C6000D9F78FE192E00E94BB1580918C048062AD
:103C700080938C048091E704833300F180918C045D
:103C80008F7D80938C0484E065E00E94931480E330
:103C900092E00E94BB1582ED94E00E94140980938B
:103CA000760480917604882309F05AC08091D2046A
:103CB0008830B9F1823309F05EC024C08091E704F6
:103CC000823308F058C084E065E00E94931480912C
:103CD0008C0485FD04C08EE692E00E94BB1582ED47
:103CE00094E00E94140980937604809176048823DE
:103CF000B9F58091D204813329F0823361F08830A4
:103D0000D1F50FC06091860470918704809188047A
:103D10000E940B1330C080918C048F7D80938C04A3
:103D20002AC00E94B71482EC91E00E94BB1582E089
:103D300061E00E94931481E492E00E94BB1583E04D
:103D400061E00E94931480E592E00E94BB1584E03C
:103D500061E00E9493148FE592E00E94BB150BC0B6
:103D600080917604843039F48091B9048091B9044B
:103D70008F5F8093B9048091D204883009F054CFCA
:103D8000B9C0833009F0B6C00E94B7148EE892E043
:103D90000E94BB1582E061E00E9493148AE092E0E9
:103DA0000E94BB158FEF8093D204C8ECD0E080E86E
:103DB00094E067EE74E00E946C138091D20481332A
:103DC000E1F48091E7048233C0F480918C0486FD95
:103DD00014C084E065E00E94931488E893E1FE013A
:103DE0003197F1F70197D9F78FE192E00E94BB1567
:103DF00080918C04806480938C048091E7048333E9
:103E000000F180918C048F7B80938C0484E065E0CA
:103E10000E94931480E392E00E94BB1582ED94E02F
:103E20000E9414098093760480917604882309F017
:103E300051C08091D204883071F1823309F055C0AD
:103E400021C08091E704823308F04FC084E065E030
:103E50000E94931480918C0486FD04C08EE692E04B
:103E60000E94BB1582ED94E00E94140980937604B1
:103E700080917604882371F58091D204883059F0BE
:103E8000813399F56091890470918A0480918B0443
:103E90000E940B132AC00E94B71482EC91E00E948A
:103EA000BB1582E061E00E94931481E492E00E94DD
:103EB000BB1583E061E00E94931480E592E00E94CC
:103EC000BB1584E061E00E9493148FE592E00E94AC
:103ED000BB150BC080917604843039F48091B9040D
:103EE0008091B9048F5F8093B9048091D2048830A7
:103EF00009F05DCFDF91CF9108950E94B7148DE94D
:103F000092E00E94BB1582E061E00E9493148EEA69
:103F100092E00E94BB158BEB92E00E94BB1582EDF4
:103F200094E00E941409809376048091760488239B
:103F3000B9F58091D204813329F0823339F0883089
:103F4000D1F50CC080918C04846003C080918C04F6
:103F50008B7F80938C041092B9042DC08DE00E9459
:103F6000EE080E94B71484EC92E00E94BB1582E038
:103F700061E00E9493148DEC92E00E94BB1583E0F7
:103F800061E00E94931480EE92E00E94BB1584E0F1
:103F900061E00E94931483EF92E00E94BB15DBCF97
:103FA00080917604843039F48091B9048091B90409
:103FB0008F5F8093B9048091D204883009F0AFCF2D
:103FC00008950E94B71487E093E00E94BB1582E039
:103FD00061E00E94931489E193E00E94BB1587E29F
:103FE00093E00E94BB1582ED94E00E941409809337
:103FF0007604809176048823B9F58091D2048133C8
:1040000029F0823331F08830D1F50AC080E090E0A9
:1040100002C08AE590E00E943B121092B9042FC0C2
:104020000E94B71482EC91E00E94BB1582E061E02F
:104030000E94931482ED91E00E94BB1583E061E041
:104040000E9493148EED91E00E94BB1584E061E024
:104050000E9493148BEE91E00E94BB1580918C041A
:10406000886080938C040BC080917604843039F48E
:104070008091B9048091B9048F5F8093B9048091D5
:10408000D204883009F0AFCF08950E94B71484ECB1
:1040900092E00E94BB1582E061E00E9493148DECD7
:1040A00092E00E94BB1583E061E00E94931480EED1
:1040B00092E00E94BB1584E061E00E94931483EFBC
:1040C00092E00E94BB1582ED94E00E941409809357
:1040D000760480917604882309F067C08091D20429
:1040E0008233A1F0833330F48830F1F1813309F069
:1040F00067C004C0833309F063C033C080E190E03F
:104100006FEF0E94C40D0E94F5180AC08DE00E9456
:10411000EE0881E190E06FEF0E94C40D0E94F61757
:104120000E94B71484EC92E00E94BB1582E061E02B
:104130000E9493148DEC92E00E94BB1583E061E035
:104140000E94931480EE92E00E94BB1584E061E02F
:104150000E94931483EF92E00E94BB151092B90461
:104160002FC00E947D1F2CC01092B9040E94B7146A
:1041700082EC91E00E94BB1582E061E00E94931402
:1041800082ED91E00E94BB1583E061E00E949314F0
:104190008EED91E00E94BB1584E061E00E949314D3
:1041A0008BEE91E00E94BB150BC0809176048430A9
:1041B00039F48091B9048091B9048F5F8093B90478
:1041C0008091D204883009F07ECF08951F938091AA
:1041D0008C0483FD22C00E94B71482EC91E00E94FF
:1041E000BB1582E061E00E94931482ED91E00E9491
:1041F000BB1583E061E00E9493148EED91E00E9474
:10420000BB1584E061E00E9493148BEE91E00E9464
:10421000BB1580918C04886021C00E94B71482EC89
:1042200091E00E94BB1582E061E00E94931481E45A
:1042300092E00E94BB1583E061E00E94931480E548
:1042400092E00E94BB1584E061E00E9493148FE528
:1042500092E00E94BB1580918C04877F80938C0430
:104260001FEF1093D20482ED94E00E941409809312
:10427000760480917604882309F08AC08091D20464
:104280008333E9F0843358F4813389F0823398F42E
:10429000883009F475C0803309F085C027C08533A4
:1042A000C9F0853390F0863309F07DC018C01092B4
:1042B000B90481E007C01092B90482E003C01092F3
:1042C000B90483E00E94391D0EC01092B9040E9407
:1042D000641C09C01092B9040E94E11F04C010922E
:1042E000B9040E9445201093D2045DC080918C04D3
:1042F00083FD22C00E94B71482EC91E00E94BB159E
:1043000082E061E00E94931482ED91E00E94BB156F
:1043100083E061E00E9493148EED91E00E94BB1552
:1043200084E061E00E9493148BEE91E00E94BB1543
:1043300080918C04886021C00E94B71482EC91E0C7
:104340000E94BB1582E061E00E94931481E492E038
:104350000E94BB1583E061E00E94931480E592E027
:104360000E94BB1584E061E00E9493148FE592E007
:104370000E94BB1580918C04877F80938C0413C0AE
:104380001092B9040E94B71480918C048960F5CF13
:1043900080917604843039F48091B9048091B90415
:1043A0008F5F8093B9048091D204883009F059CF8F
:1043B0001F91089581E060E040E00E94D10D60917E
:1043C000830470918404809185040E945713609146
:1043D000860470918704809188040E94571360912D
:1043E000890470918A0480918B040E9457130E9463
:1043F000CE150E94DC100E94E0080E94141A83E08F
:1044000065E041E00E94D10D0E94550A81E063E021
:1044100041E00E94D10D0E94420A0E948B0A8BEF5C
:104420009BE165E00E94FF0A0E945D128AE590E030
:104430000E943B120E94550C86E00E94F60C81E01F
:1044400066E00E94640C8AE79AE166E00E94260D0D
:1044500083E062E040E00E94D10D08950F931F9326
:10446000CF93DF930E94DA2104E110E0C8ECD0E0A2
:1044700080918C0480FF44C01092B90482608093C4
:104480008C048FE293E00E94BB1582ED94E00E94C1
:10449000140980937604809176048823B1F7809183
:1044A000D2048D3091F70E947D170E94B71482E0EC
:1044B00067E00E9493148AE493E00E94BB15809108
:1044C000B7049801281B3109C90162E070E00E941D
:1044D000B4226F5F83E00E94931483ED94E00E9406
:1044E000BB1580E197E2FE013197F1F70197D9F70B
:1044F00080918C048E7F80938C040E94E620B8CF3C
:10450000FFCF629FD001739FF001829FE00DF11DEC
:10451000649FE00DF11D929FF00D839FF00D749F3D
:10452000F00D659FF00D9927729FB00DE11DF91FE9
:10453000639FB00DE11DF91FBD01CF011124089546
:10454000AA1BBB1B51E107C0AA1FBB1FA617B707B9
:1045500010F0A61BB70B881F991F5A95A9F78095D5
:104560009095BC01CD01089597FB092E07260AD02E
:1045700077FD04D0E5DF06D000201AF47095619530
:104580007F4F0895F6F7909581959F4F0895A1E28A
:104590001A2EAA1BBB1BFD010DC0AA1FBB1FEE1FBD
:1045A000FF1FA217B307E407F50720F0A21BB30B08
:1045B000E40BF50B661F771F881F991F1A9469F784
:1045C00060957095809590959B01AC01BD01CF01E0
:1045D000089597FB092E05260ED057FD04D0D7DF8E
:1045E0000AD0001C38F450954095309521953F4FE6
:1045F0004F4F5F4F0895F6F79095809570956195B0
:104600007F4F8F4F9F4F08952F923F924F925F920F
:104610006F927F928F929F92AF92BF92CF92DF92D2
:10462000EF92FF920F931F93CF93DF93CDB7DEB737
:10463000CA1BDB0B0FB6F894DEBF0FBECDBF0994CB
:104640002A88398848885F846E847D848C849B8422
:10465000AA84B984C884DF80EE80FD800C811B8130
:10466000AA81B981CE0FD11D0FB6F894DEBF0FBE5F
:0A467000CDBFED010895F894FFCFCF
:10467A0054696D65206F7574203A2020004368657F
:10468A00636B2050617373576F726400436865638C
:10469A006B20557365724E616D6500496E76616C6B
:1046AA00696420557365726E616D65006F72205082
:1046BA00617373776F7264005472696573204C6515
:1046CA006674203A20005375636365737366756C6C
:1046DA006C79005369676E20696E005365742050C7
:1046EA00617373576F7264004D6178696D756D20DF
:1046FA0063686172203A2000203A204F4B005061D3
:10470A007373576F7264204D757374206265004D20
:10471A006F7265207468616E2000204368617200C0
:10472A00203A204578697400536574205573657280
:10473A004E616D6500557365724E616D65204D75EC
:10474A007374206265005265205365742055736541
:10475A00724E616D6500506C6561736520536967BF
:10476A006E205570005361766564205375636365E6
:10477A00737366756C6C790046616E20436F6E7454
:10478A00726F6C203A2000312D204F66662020205F
:10479A002000322D2053203100332D205320322087
:1047AA0020202000342D2053203300352D20532083
:1047BA003420202020004175746F2046616E20430A
:1047CA006F6E74726F6C20697320456E61626C65DE
:1047DA006400526F6F6D204F7074696F6E73203A68
:1047EA002000342D20526F6F6D2046616E00352DEA
:1047FA0020526F6F6D20446F6F7200362D20526FFA
:10480A006F6D2053657474696E67004C616D703109
:10481A00204F7074696F6E203A0031203A204F4E53
:10482A002020202020202032203A204F46460020F7
:10483A00204C616D7020686173204572726F72003E
:10484A004C454420537461747573203A204F4E20AE
:10485A0000312D204C656431204F4E2F4F464600C3
:10486A00322D204C656432204F4E2F4F464600337E
:10487A002D204C656433204F4E2F4F4646004C4541
:10488A004420537461747573203A204F4646004C95
:10489A00616D7032204F7074696F6E203A004C61FE
:1048AA006D7033204F7074696F6E203A00417574D1
:1048BA006F2046616E20436F6E74726F6C00312DEB
:1048CA00204F70656E202020202000322D20436C5E
:1048DA006F73650053657474696E673A00312D20F1
:1048EA004368616E676520557365724E616D650038
:1048FA00322D204368616E67652050617373576F6C
:10490A00726400332D204175746F2046616E204316
:10491A006F6E74726F6C00526563657074696F6E46
:10492A0020446F6F72203A2000312D204F70656E3F
:10493A0020202020202000322D204C6F636B005055
:10494A007265737320656E74657220746F206F7060
:10495A00656E2073797374656D0057656C636F6D4E
:10496A0065200000000000000000000001020203B0
:10497A0003030304040404040404040505050505EB
:10498A0005050505050505050505050606060606C8
:10499A0006060606060606060606060606060606AD
:1049AA000606060606060606060606070707070798
:1049BA00070707070707070707070707070707077D
:1049CA00070707070707070707070707070707076D
:1049DA00070707070707070707070707070707075D
:1049EA000707070707070707070707080808080848
:1049FA00080808080808080808080808080808082D
:104A0A00080808080808080808080808080808081C
:104A1A00080808080808080808080808080808080C
:104A2A0008080808080808080808080808080808FC
:104A3A0008080808080808080808080808080808EC
:104A4A0008080808080808080808080808080808DC
:104A5A0008080808080808080808080808080808CC
:104A6A0008080808080808080808083738392F34D9
:104A7A0035362A3132332D3F303D2B0001010109F1
:104A8A001F080003010101000500010500020500DD
:0E4A9A000305000205010303010204010B00E5
:00000001FF
