:100000000C942A000C94F1050C941D060C944906DE
:100010000C9488030C945F030C9436030C940D032A
:100020000C94E4020C94BB020C9492020C946902AE
:100030000C94AF040C942E010C9447000C946D01A9
:100040000C9447000C9447000C9447000C94470014
:100050000C94470011241FBECFE5D8E0DEBFCDBF12
:1000600013E0A0E6B0E0E0E6FEE102C005900D92EC
:10007000AC36B107D9F713E0ACE6B3E001C01D928E
:10008000A43CB107E1F70E94D20D0C942E0F0C9402
:100090000000599810BC83E389B95898529886E8B3
:1000A00080BD579856985598549A539A0895282F7A
:1000B00080916E03882311F083E0089580E090E042
:1000C000A0E0B0E003C00196A11DB11D5D9909C07B
:1000D000803137E2930730E0A30730E0B30799F7A8
:1000E00008C080519742A040B04019F02CB980E080
:1000F00001C084E010926E030895FC01009711F492
:1001000082E0089580916E03882311F083E00895C2
:1001100080E090E0A0E0B0E003C00196A11DB11D19
:100120005F9909C0803127E2920720E0A20720E012
:10013000B20799F709C080519742A040B04021F022
:100140008CB1808380E001C084E010926E0308953A
:10015000CF93DF93009711F482E00AC0EC0105C051
:100160000E9457002196882319F488818823C1F7BB
:10017000DF91CF910895FC0180916E03882311F0E7
:1001800083E008953097A9F06115710591F081E041
:1001900080936E03F0936D03E0936C037093700390
:1001A00060936F031092740380818CB9569A80E03B
:1001B000089582E00895AF92BF92CF92DF92EF92BE
:1001C000FF920F931F93CF93DF93EC015A016B01C2
:1001D000009711F482E016C0EE24FF2487010CC0C2
:1001E000CE018E0D9F1D0E947D00882359F4089436
:1001F000E11CF11C011D111DEA14FB040C051D0579
:1002000078F380E0DF91CF911F910F91FF90EF90F5
:10021000DF90CF90BF90AF900895BC0180916E03A6
:10022000882311F083E0089561157105A9F0211567
:10023000310591F081E080936E03709372036093B7
:1002400071033093700320936F03409373031092F4
:100250007403579A80E0089582E008951F920F92E8
:100260000FB60F9211242F933F934F935F936F9389
:100270007F938F939F93AF93BF93EF93FF9390914F
:1002800074038CB1E0917103F0917203E90FF11DD9
:1002900080839F5F9093740380917303981761F438
:1002A0001092740310926E03E0916F03F09170034B
:1002B000309709F009955798FF91EF91BF91AF9151
:1002C0009F918F917F916F915F914F913F912F916E
:1002D0000F900FBE0F901F9018951F920F920FB6A0
:1002E0000F9211242F933F934F935F936F937F93BC
:1002F0008F939F93AF93BF93EF93FF93809174037A
:100300008F5F80937403E0916C03F0916D03E80FAD
:10031000F11DE081EE2369F41092740310926E03D4
:10032000E0916F03F0917003309709F009955698AA
:1003300001C0ECB9FF91EF91BF91AF919F918F9167
:100340007F916F915F914F913F912F910F900FBED1
:100350000F901F90189583B7806483BF83B7886020
:1003600083BF83B78F7E83BF83B7806283BF1CBE8A
:1003700083B7887F83BF83B7846083BF08958FB5B9
:100380008E7F8FBD8FB582608FBD8EB588608EBD2C
:100390008EB580618EBD1BBC1ABC19BC18BC8FEF1A
:1003A00090E097BD86BD8EB580648EBD8FB58F7B86
:1003B0008FBD8FB580688FBD8FB58F7E8FBD8FB598
:1003C00080628FBD89B78B7F89BF89B78F7E89BFD8
:1003D00089B7877F89BF89B78F7D89BF8EB5887FB1
:1003E0008EBD8EB582608EBD089585B5806485BD55
:1003F00085B5886085BD85B58F7E85BD85B58062F4
:1004000085BD13BC85B5887F85BD85B5846085BDF8
:10041000089582BF08959DBD8CBD089584BD089543
:100420008CBF08959BBD8ABD089599BD88BD089570
:1004300083BD089597BD86BD089582B708952CB5F4
:100440003DB5C901089584B508959BBD8ABD089541
:100450008EB580648EBD89B7806289BF0895813072
:1004600029F48EB580648EBD80E00895882311F054
:1004700081E008958EB58F7B8EBD80E0089589B7A9
:10048000806289BF089589B78F7D89BF089526B599
:1004900037B5C901089581B5887F81BD81B5866072
:1004A00081BD089581B5886081BD089581B5886159
:1004B00081BD11BC0895009711F482E00895E62FE4
:1004C000F0E0EE0FFF1FEB58FC4F9183808380E03C
:1004D00008951F920F920FB60F9211242F933F93FE
:1004E0004F935F936F937F938F939F93AF93BF933C
:1004F000EF93FF93E0918B03F0918C03309709F019
:100500000995FF91EF91BF91AF919F918F917F914D
:100510006F915F914F913F912F910F900FBE0F9070
:100520001F9018951F920F920FB60F9211242F93C0
:100530003F934F935F936F937F938F939F93AF936B
:10054000BF93EF93FF93E0918903F0918A03309773
:1005500009F00995FF91EF91BF91AF919F918F9114
:100560007F916F915F914F913F912F910F900FBEAF
:100570000F901F9018951F920F920FB60F92112493
:100580002F933F934F935F936F937F938F939F939B
:10059000AF93BF93EF93FF93E0918703F0918803AC
:1005A000309709F00995FF91EF91BF91AF919F911D
:1005B0008F917F916F915F914F913F912F910F900C
:1005C0000FBE0F901F9018951F920F920FB60F92AB
:1005D00011242F933F934F935F936F937F938F9348
:1005E0009F93AF93BF93EF93FF93E0918503F091B7
:1005F0008603309709F00995FF91EF91BF91AF9174
:100600009F918F917F916F915F914F913F912F912A
:100610000F900FBE0F901F9018951F920F920FB65C
:100620000F9211242F933F934F935F936F937F9378
:100630008F939F93AF93BF93EF93FF93E0918303C7
:10064000F0918403309709F00995FF91EF91BF91E4
:10065000AF919F918F917F916F915F914F913F915A
:100660002F910F900FBE0F901F9018951F920F9211
:100670000FB60F9211242F933F934F935F936F9375
:100680007F938F939F93AF93BF93EF93FF93E091EB
:100690008103F0918203309709F00995FF91EF9162
:1006A000BF91AF919F918F917F916F915F914F918A
:1006B0003F912F910F900FBE0F901F9018951F9292
:1006C0000F920FB60F9211242F933F934F935F9386
:1006D0006F937F938F939F93AF93BF93EF93FF930A
:1006E000E0917F03F0918003309709F00995FF9125
:1006F000EF91BF91AF919F918F917F916F915F919A
:100700004F913F912F910F900FBE0F901F90189512
:100710001F920F920FB60F9211242F933F934F9376
:100720005F936F937F938F939F93AF93BF93EF9359
:10073000FF93E0917D03F0917E03309709F00995D6
:10074000FF91EF91BF91AF919F918F917F916F91A9
:100750005F914F913F912F910F900FBE0F901F907F
:100760001895FC01009709F474C04581442309F4ED
:1007700070C03481332309F46CC02681222309F42C
:1007800068C05281552309F464C07081772309F44D
:1007900060C06381662309F45CC09181992309F4E8
:1007A00058C0413011F081E002C06A9A80E03323E2
:1007B00021F0313021F081E003C06B9801C06B9AC9
:1007C0002330B9F0243028F4213069F0223068F465
:1007D00008C02530A1F0253078F0263091F081E076
:1007E00013C0689803C0689805C0689A6998709AA1
:1007F0000BC0689A699807C06898699AF8CF68989A
:1008000001C0689A699A7098552331F0513011F0FF
:1008100081E003C06D9801C06D9A662321F06130BC
:1008200021F081E003C06C9A01C06C98772321F01D
:10083000713021F081E003C06F9801C06F9A992355
:1008400021F0913021F081E008956E9808956E9A1C
:10085000089582E00895982FFB01809187038823F3
:1008600011F083E008959FB980E090E0A0E0B0E04F
:1008700003C00196A11DB11D779B06C08051974210
:10088000A040B04051F40DC0803127E2920720E033
:10089000A20720E0B20769F704C08FB1808380E02F
:1008A00001C084E0109287030895DF92EF92FF92D7
:1008B0000F931F93CF93DF937B01D42E0097A1F06A
:1008C0006115710589F08C01C0E0D0E009C0B70165
:1008D0006C0F7D1FF80181918F010E942B042196DE
:1008E000CD15A8F380E001C082E0DF91CF911F9188
:1008F0000F91FF90EF90DF900895FC0180918703A6
:10090000882311F083E00895309739F1A081B181F7
:10091000109719F14281538141155105F1F025815C
:10092000368121153105C9F081E080938703B093AA
:100930008B03A0938A03509386034093850384819D
:1009400080938C03309389032093880310928D0346
:100950008C918FB96F9A80E0089582E008951F927C
:100960000F920FB60F9211242F933F934F935F93E3
:100970006F937F938F939F93AF93BF93EF93FF9367
:1009800090918D038FB1E0918503F0918603E90F7B
:10099000F11D80839F5F90938D0380918C03981746
:1009A00059F4109287036F98E0918803F0918903BE
:1009B000309751F0099508C0E0918A03F0918B03BC
:1009C000E90FF11D80818FB9FF91EF91BF91AF9138
:1009D0009F918F917F916F915F914F913F912F9157
:1009E0000F900FBE0F901F9018956D986C9A81E034
:1009F00065E041E00E94820681E067E041E00E94FC
:100A000082066B986A98689A699870986F986E9A3F
:100A100008958FB780688FBF08958FB78F778FBF86
:100A2000089584B7806484BF0895E82F762F862FB9
:100A30008650823008F069C0770F7C50E13009F4AD
:100A40004CC0E130D0F1E23021F0E33009F05DC07C
:100A50001BC065B7472F50E021E030E0C901072EE9
:100A600002C0880F991F0A94E2F78095862385BFFC
:100A700085B74F5F5F4F02C0220F331F4A95E2F7E1
:100A80002095282325BF41C065B7472F50E081E05E
:100A900090E09C01072E02C0220F331F0A94E2F758
:100AA000622B65BF25B74F5F5F4F02C0880F991F4C
:100AB0004A95E2F78095822327C065B7272F30E05B
:100AC00041E050E0CA01072E02C0880F991F0A9426
:100AD000E2F78095862385BF0EC065B7272F30E0EB
:100AE00041E050E0CA01072E02C0880F991F0A9406
:100AF000E2F7682B65BF85B72F5F3F4F02C0440FF9
:100B0000551F2A95E2F7842B85BF753061F4EE23DB
:100B100019F0E13041F404C084B78F7B84BF08959D
:100B200084B7806484BF0895382F8550833010F0D7
:100B300081E008952BB781E090E002C0880F991FF3
:100B40003A95E2F7809582238BBF80E00895382F95
:100B50008550833010F081E008952BB781E090E05C
:100B600002C0880F991F3A95E2F7282B2BBF80E02F
:100B700008959AB721E030E002C0220F331F8A9512
:100B8000E2F7922B9ABF08954AB721E030E0082E91
:100B900002C0220F331F0A94E2F750E024233523CA
:100BA00002C0359527958A95E2F7822F0895009720
:100BB000B1F0663029F490938F0380938E030DC0BB
:100BC000673029F4909391038093900306C06530B9
:100BD00031F4909393038093920380E0089581E031
:100BE00008951F920F920FB60F9211242F933F93E7
:100BF0004F935F936F937F938F939F93AF93BF9325
:100C0000EF93FF93E0918E03F0918F03309721F0E3
:100C100009958AB780648ABFFF91EF91BF91AF9128
:100C20009F918F917F916F915F914F913F912F9104
:100C30000F900FBE0F901F9018951F920F920FB636
:100C40000F9211242F933F934F935F936F937F9352
:100C50008F939F93AF93BF93EF93FF93E091900394
:100C6000F0919103309721F009958AB780688ABF87
:100C7000FF91EF91BF91AF919F918F917F916F9174
:100C80005F914F913F912F910F900FBE0F901F904A
:100C900018951F920F920FB60F9211242F933F9326
:100CA0004F935F936F937F938F939F93AF93BF9374
:100CB000EF93FF93E0919203F0919303309721F02B
:100CC00009958AB780628ABFFF91EF91BF91AF917A
:100CD0009F918F917F916F915F914F913F912F9154
:100CE0000F900FBE0F901F9018959FBB8EBB6DBBD2
:100CF000E29AE19AE199FECF08958EBB9FBBE09AFC
:100D00008DB30895843008F077C0683008F074C05F
:100D10004130B1F5813099F0813030F08230D1F03E
:100D2000833009F06BC021C02AB381E090E002C09B
:100D3000880F991F6A95E2F7282B2ABB5BC027B35F
:100D400081E090E002C0880F991F6A95E2F7282B96
:100D500027BB50C024B381E090E002C0880F991FE8
:100D60006A95E2F7282B24BB45C021B381E090E0CF
:100D700002C0880F991F6A95E2F7282B21BB3AC061
:100D80004423D1F5813099F0813028F08230D9F0B8
:100D90008330A1F524C02AB381E090E002C0880F1F
:100DA000991F6A95E2F7809582238ABB23C027B3F7
:100DB00081E090E002C0880F991F6A95E2F7809564
:100DC000822387BB17C024B381E090E002C0880F64
:100DD000991F6A95E2F78095822384BB0BC021B3EB
:100DE00081E090E002C0880F991F6A95E2F7809534
:100DF000822381BB81E0089580E0089581E0089519
:100E0000843008F077C0683008F074C04130B1F524
:100E1000813099F0813030F08230D1F0833009F0A8
:100E20006BC021C02BB381E090E002C0880F991FF6
:100E30006A95E2F7282B2BBB5BC028B381E090E0DA
:100E400002C0880F991F6A95E2F7282B28BB50C073
:100E500025B381E090E002C0880F991F6A95E2F700
:100E6000282B25BB45C022B381E090E002C0880F4B
:100E7000991F6A95E2F7282B22BB3AC04423D1F58B
:100E8000813099F0813028F08230D9F08330A1F59B
:100E900024C02BB381E090E002C0880F991F6A95AF
:100EA000E2F7809582238BBB23C028B381E090E0DA
:100EB00002C0880F991F6A95E2F78095822388BB4C
:100EC00017C025B381E090E002C0880F991F6A9592
:100ED000E2F78095822385BB0BC022B381E090E0CE
:100EE00002C0880F991F6A95E2F78095822382BB22
:100EF00081E0089580E0089581E00895FA0184304A
:100F000028F5683018F5813049F0813028F08230BA
:100F100039F08330C9F406C029B305C026B303C035
:100F200023B301C020B381E090E0062E02C0880FF9
:100F3000991F0A94E2F730E08223932302C095952B
:100F400087956A95E2F7808381E0089580E00895AF
:100F50008430C0F56830B0F5813091F0813028F0F0
:100F60008230C9F0833061F521C02BB381E090E07D
:100F700002C0880F991F6A95E2F728272BBB20C073
:100F800028B381E090E002C0880F991F6A95E2F7CC
:100F9000282728BB15C025B381E090E002C0880F48
:100FA000991F6A95E2F7282725BB0AC022B381E082
:100FB00090E002C0880F991F6A95E2F7282722BBAC
:100FC00081E0089580E00895843008F08FC0683093
:100FD00008F08CC0813049F1813038F0823009F45A
:100FE00044C0833009F080C060C0413091F480B7C4
:100FF0008B7F80BF3AB381E090E002C0880F991FD9
:101000006A95E2F7282F209523232ABB2BB3822B46
:101010000AC02BB381E090E002C0880F991F6A9547
:10102000E2F7809582238BBB5FC0413091F480B79B
:101030008B7F80BF37B381E090E002C0880F991F9B
:101040006A95E2F7282F2095232327BB28B3822B0C
:101050000AC028B381E090E002C0880F991F6A950A
:10106000E2F78095822388BB3FC0413091F480B77E
:101070008B7F80BF34B381E090E002C0880F991F5E
:101080006A95E2F7282F2095232324BB25B3822BD2
:101090000AC025B381E090E002C0880F991F6A95CD
:1010A000E2F78095822385BB1FC0413091F480B761
:1010B0008B7F80BF31B381E090E002C0880F991F21
:1010C0006A95E2F7282F2095232321BB22B3822B98
:1010D0000AC022B381E090E002C0880F991F6A9590
:1010E000E2F78095822382BB81E0089580E0089535
:1010F000843090F4813049F0813028F0823039F02A
:10110000833051F406C06ABB05C067BB03C064BB33
:1011100001C061BB81E0089580E00895843090F4BF
:10112000813049F0813028F0823039F0833051F439
:1011300006C06BBB05C068BB03C065BB01C062BB1A
:1011400081E0089580E00895FB01843098F48130B7
:1011500049F0813028F0823039F0833059F406C0EC
:1011600089B305C086B303C083B301C080B3808355
:1011700081E0089580E00895843010F080E00895C3
:10118000813059F0813028F0823059F0833061F499
:101190000DC08BB380958BBB07C088B3809588BB8F
:1011A00003C085B3809585BB81E0089582B38095A7
:1011B00082BB81E00895843010F080E008956F7064
:1011C000813071F0813028F0823089F08330A9F4C9
:1011D00016C08BB3807F8BBB8BB3682B6BBB0DC0F2
:1011E00088B3807F88BB88B3682B68BB06C085B393
:1011F000807F85BB85B3682B65BB81E0089582B392
:10120000807F82BB82B3682B62BB81E0089584300B
:1012100010F080E008956295607F813071F0813038
:1012200028F0823089F08330A9F416C08BB38F7018
:101230008BBB8BB3682B6BBB0DC088B38F7088BB27
:1012400088B3682B68BB06C085B38F7085BB85B338
:10125000682B65BB81E0089582B38F7082BB82B337
:10126000682B62BB81E00895843010F080E008951F
:101270006F70813071F0813028F0823089F08330D6
:10128000A9F416C08AB3807F8ABB8AB3682B6ABB75
:101290000DC087B3807F87BB87B3682B67BB06C051
:1012A00084B3807F84BB84B3682B64BB81E00895E2
:1012B00081B3807F81BB81B3682B61BB81E00895DE
:1012C000843010F080E008956295607F813071F085
:1012D000813028F0823089F08330A9F416C08AB3B7
:1012E0008F708ABB8AB3682B6ABB0DC087B38F70BF
:1012F00087BB87B3682B67BB06C084B38F7084BB82
:1013000084B3682B64BB81E0089581B38F7081BB87
:1013100081B3682B61BB81E00895DF93CF9300D048
:101320000F92CDB7DEB7962F6983672F7A838B83B1
:10133000892F0E94A8070F900F900F90CF91DF91F7
:101340000895DF93CF9300D00F92CDB7DEB7262F4D
:1013500069837A838B83672F813019F4822F40E071
:1013600004C0882321F4822F41E00E9400070F90DF
:101370000F900F90CF91DF910895DF93CF9300D01E
:101380000F92CDB7DEB7262F69837A838B83672FC1
:10139000813019F4822F41E004C0882321F4822F88
:1013A00040E00E9400070F900F900F90CF91DF91C7
:1013B0000895DF93CF9300D00F92CDB7DEB7962F6D
:1013C0006983672F7A838B83892F41E00E9482068D
:1013D0000F900F900F90CF91DF9108951F93CF93AF
:1013E000DF9380E690E00E94A80015E3C8ECD0E00F
:1013F00080E20E945700812F0E94570080E197E20F
:10140000FE013197F1F70197D9F71150103381F7A9
:101410008DE00E94570082E190E06FEF0E94750618
:1014200083E080936003DF91CF911F9108958BE655
:1014300090E00E94A8008DE00E94570088E790E0AD
:101440000E94A8008DE00E945700109295038091A1
:1014500095038823B9F08AE890E00E94A8008DE007
:101460000E9457008CEA90E00E94A8008DE00E9444
:10147000570088E790E00E94A8008DE00E94570086
:10148000109295038EEA93E00E947D00809363039F
:1014900080916303882389F480919503882369F4FC
:1014A0008091AE038D3071F38091AE038F3051F394
:1014B0008091AE03883031F314C080916303882398
:1014C000E9F4809195038431C8F48091AE038D30A6
:1014D00091F18091AE038F3071F18091AE0388302D
:1014E00021F1809195036091AE0390E08F5B9F4F57
:1014F0000E947506809195038F5F1AC080916303E7
:10150000882309F0BFCF80919503843108F4BACFC6
:101510008091AE038D3079F08091AE038F3059F019
:101520008091AE03883009F0ADCF80919503815052
:1015300080939503A7CF80919503863008F487CFD9
:1015400081E190E060E00E9475066091950384E17E
:1015500090E00E94750608958CEB90E00E94A80030
:101560008DE00E94570088E790E00E94A8008DE07F
:101570000E9457001092940380919403882381F075
:1015800089EC90E00E94A8008DE00E9457008BEE4D
:1015900090E00E94A8008DE00E94570010929403F2
:1015A0008EEA93E00E947D00809363038091630341
:1015B000882389F480919403882369F48091AE0391
:1015C0008D3071F38091AE038F3051F38091AE0373
:1015D000883031F314C0809163038823E1F4809153
:1015E00094038431C0F48091AE038D3081F18091F9
:1015F000AE038F3061F18091AE03883011F180919C
:1016000094036091AE0390E081960E9475068091EC
:1016100094038F5F19C080916303882309F680913A
:101620009403843108F4BCCF8091AE038D3079F0FF
:101630008091AE038F3059F08091AE03883009F06D
:10164000AFCF80919403815080939403A9CF809170
:101650009403863008F490CF80E190E060E00E942F
:1016600075066091940383E190E00E9475060895E9
:101670000F931F938DEF90E00E94A8008DE00E94D1
:10168000570081E08093620310E08EEA93E00E94AD
:101690007D0080936303809163038823A1F4112369
:1016A00091F48091AE038D3081F38091AE038F3041
:1016B00061F38091AE03883041F38091AE03809353
:1016C000990311E0E2CF809163038823B9F41431C8
:1016D000A8F48091AE038D3031F18091AE038F304C
:1016E00011F18091AE038830E1F0E12FF0E08091BC
:1016F000AE03E756FC4F80831F5FC7CF8091630323
:10170000882319F6143108F28091AE038D3059F018
:101710008091AE038F3039F08091AE03883009F0AC
:10172000B4CF1150B2CF809195031817D1F400E0D7
:1017300013C0202F30E0F901E756FC4F8081882349
:10174000B1F01081C9018F5B9F4F0E947D06181771
:1017500011F0109262030F5F80919503081748F310
:1017600006C080919503181711F0109262031F9123
:101770000F9108950F931F938CE091E00E94A800B1
:101780008DE00E94570081E08093610310E08EEAB3
:1017900093E00E947D00809363038091630388231C
:1017A000A1F4112391F48091AE038D3081F38091E7
:1017B000AE038F3061F38091AE03883041F38091A6
:1017C000AE038093990311E0E2CF809163038823F5
:1017D000B9F41431A8F48091AE038D3031F18091C9
:1017E000AE038F3011F18091AE038830E1F0E12F2C
:1017F000F0E08091AE03E756FC4F80831F5FC7CFB8
:1018000080916303882319F6143108F28091AE03A6
:101810008D3059F08091AE038F3039F08091AE0356
:10182000883009F0B4CF1150B2CF809194031817CB
:10183000C9F400E012C0202F30E0F901E756FC4F58
:1018400080818823A9F01081C90181960E947D06BC
:10185000181711F0109261030F5F809195038017A4
:1018600050F706C080919403181711F0109261038D
:101870001F910F9108950E94BA0B0E94380B80911E
:101880006103882321F0809162038823B1F58BE105
:1018900091E00E94A8008DE00E94570080916003B3
:1018A0008150809360036091600382E190E00E9428
:1018B000750680916003882369F088E391E00E94B7
:1018C000A80080916003805D0E9457008DE00E9417
:1018D0005700D1CF80916003882369F688E391E0B7
:1018E0000E94A80080916003805D0E9457008DE0F7
:1018F0000E9457000E94EE09BECF86E491E00E944C
:10190000A80082E190E06FEF0E94750683E080936B
:1019100060038DE00E9457000895FF920F931F937C
:1019200083E190E00E947D068093940384E190E03F
:101930000E947D068093950382E190E00E947D06DF
:101940008F3F31F082E190E00E947D06809360033A
:1019500080E190E00E947D068F3F49F48BE591E0A5
:101960000E94A8008DE00E9457000E94AC0A81E10D
:1019700090E00E947D068F3F49F40E94170A8AE694
:1019800091E00E94A8008DE00E94570080916003C2
:10199000882311F40E94EE09FF240BC00F2D10E0E4
:1019A000C80181960E947D0601551C4FF801808375
:1019B000F39480919403F81688F31F910F91FF9090
:1019C00008958DE791E00E94A8008DE00E945700E5
:1019D0008CE891E00E94A80082EA91E00E94A800B1
:1019E0008DE00E9457008DEA91E00E94A80083ECF0
:1019F00091E00E94A8008DE00E9457008EEC91E0DB
:101A00000E94A8008DE00E9457008EEA93E00E9499
:101A10007D008093630380916303882309F049C0AC
:101A20008091AE038333C1F0843340F4813361F09D
:101A3000823370F4883009F047C01CC0843381F0D1
:101A4000853309F041C010C01092980380E00FC0A8
:101A5000109298038FE30BC0109298038EE707C093
:101A6000109298038DEB03C0109298038FEF0E94A1
:101A700018022AC0109298038DE00E94570089ED49
:101A800091E00E94A8008DE00E94570082EF91E053
:101A90000E94A80088E092E00E94A8008DE00E94C9
:101AA000570087E192E00E94A8008DE00E94570055
:101AB0000BC080916303843039F480919803809146
:101AC00098038F5F809398038091AE03883009F06C
:101AD0009CCF08951F9384E292E00E94A8008DE0BD
:101AE0000E94570082EF91E00E94A80088E092E0F7
:101AF0000E94A8008DE00E94570087E192E00E94BA
:101B0000A8008DE00E9457001FEF1093AE038EEAED
:101B100093E00E947D008093630380916303882398
:101B200079F58091AE03823399F0833328F48830BD
:101B300009F1813381F503C0833369F514C0109234
:101B4000980360916403709165038091660308C0F7
:101B50001092980360916703709168038091690304
:101B60000E948D0918C0109298030E94E10C1093F6
:101B7000AE0311C0109298038DE00E9457000BC075
:101B800080916303843039F48091980380919803A5
:101B90008F5F809398038091AE038D3009F0B5CFAD
:101BA0001F9108951F9380E06FEF0E94780882E0F4
:101BB0006FEF0E94780883E06EEF0E94780881E062
:101BC00060E041E00E94820681E061E041E00E9425
:101BD00082060E9449000E94F5040E948D0C81E05B
:101BE00063E041E00E9482060E94AB0183E067E06F
:101BF00041E00E9482060E94F5011AE080916A038A
:101C000080FF2CC010929803826080936A038FE358
:101C100092E00E94A8008DE00E9457008EEA93E0B7
:101C20000E947D0080936303809163038823B1F752
:101C30008091AE038D3091F70E943B0C8AE592E0D3
:101C40000E94A8008FEA93E00E94A8008DE00E9405
:101C5000570080916A038E7F80936A0383E692E047
:101C60000E94A8008DE00E94570081E792E00E9448
:101C7000A80087E892E00E94A8008DE00E9457002B
:101C800085E992E00E94A8008BEA92E00E94A800F9
:101C90008DE00E94570088EB92E00E94A8008EEC35
:101CA00092E00E94A8008DE00E94570082EE92E030
:101CB0000E94A80088EF92E00E94A8008DE00E9498
:101CC000570084E093E00E94A8008AE193E00E941C
:101CD000A8008DE00E94570086E293E00E94A800D1
:101CE0008CE393E00E94A8008DE00E94570088E4F6
:101CF00093E00E94A8008DE00E9457001092960386
:101D0000109297038EEA93E00E947D008093630314
:101D100080916303882399F480919603882379F452
:101D20008091AE038D3041F08091AE038F3021F071
:101D30008091AE03883009F510929803E3CF80912B
:101D40006303882361F580919603833040F5809189
:101D5000AE038D30A1F18091AE038F3081F180917F
:101D6000AE03883051F410929803809197036AE093
:101D70000E94220F809397032FC0109298038091A6
:101D8000AE0380538093AE03809197032091AE03FE
:101D9000819FC0011124280F2093970323C08091B5
:101DA0006303882329F580919603833008F180919D
:101DB000AE038D3021F08091AE038F3039F4109254
:101DC0009803809197038E3038F11FC08091AE0345
:101DD000883031F41092980380919603815005C0A9
:101DE00010929803809196038F5F809396038ACF19
:101DF00080916303843009F085CF809198038091AE
:101E000098038F5F809398037DCF81E593E00E94D4
:101E1000A8008DE00E945700809197038E3008F053
:101E20006DCF80919703863021F08D3009F0E6CE9A
:101E300003C00E946A0DE2CE80916A0381608093A4
:101E40006A03DCCE991B79E004C0991F961708F04D
:101E5000961B881F7A95C9F780950895F894FFCF4F
:101E600054696D65206F7574203A00536574205075
:101E7000617373576F7264004D6178696D756D2081
:101E800063686172203A2032300050617373576F7B
:101E90007264204D757374206265204D6F726520E9
:101EA0007468616E2035204368617200526520536A
:101EB00065742050617373576F72640053657420AA
:101EC000557365724E616D6500557365724E616D37
:101ED00065204D757374206265204D6F72652074A6
:101EE00068616E2035204368617200526520456E3E
:101EF00074657220557365724E616D650043686547
:101F0000636B2050617373576F726400436865633D
:101F10006B20557365724E616D6500496E76616C1C
:101F2000696420557365726E616D65206F72205013
:101F3000617373776F7264005472696573204C65C6
:101F40006674203A20005375636365737366756C1D
:101F50006C79205369676E20696E00506C656173FF
:101F600065205369676E2055700053617665642063
:101F70005375636365737366756C6C790046616E47
:101F800020436F6E74726F6C203A2000312D204612
:101F9000616E204F666620202020202020202020F7
:101FA0002000322D205370656564203100332D20D0
:101FB00053706565642032202020202020202020BE
:101FC000202000342D205370656564203300352DAA
:101FD0002053706565642034004368696C647265E1
:101FE0006E20526F6F6D204F7074696F6E73203A60
:101FF0002000312D204C656431204F4E2F4F464636
:102000002020202020202000322D204C656432200A
:102010004F4E2F4F464600332D204368696C642095
:1020200046616E004368696C6472656E20526F6F22
:102030006D2032204F7074696F6E73203A2000500B
:102040007265737320656E74657220746F206F7093
:10205000656E2073797374656D0057656C636F6D81
:1020600065200053656C65637420526F6F6D203A74
:102070000031202D205374616972202020202020FF
:102080002020202020200032202D20526563657002
:1020900074696F6E0033202D2053616C6F6E2020A9
:1020A000202020202020202020200034202D20420D
:1020B000656420526F6F6D0035202D204368696C78
:1020C0006472656E20526F6F6D20312020003620C3
:1020D0002D204368696C6472656E20526F6F6D20AD
:1020E000320037202D204261746820526F6F6D20BE
:1020F000202020202020200038202D204B697463D0
:1021000068656E0039202D20436F727269646F72AA
:102110002020202020202020200031302D2042614E
:102120006C61636F6E0031312D204175746F2046F4
:10213000616E20436F6E74726F6C200031322D20FF
:1021400053657474696E670031332D2045584954C6
:1021500000496E76616C69642043686F697365003D
:0C21600003010101020501020601030059
:00000001FF
