:100000000C942A000C9447000C9447000C94470071
:100010000C94250C0C94FC0B0C94D30B0C94AA0B95
:100020000C94810B0C94580B0C942F0B0C94060B16
:100030000C9447000C94C5090C9447000C94040AD6
:100040000C945A100C9447000C9447000C944700F1
:100050000C94470011241FBECFE5D8E0DEBFCDBF12
:1000600014E0A0E6B0E0E4EBF9E302C005900D92E5
:10007000AC3AB107D9F715E0ACEAB4E001C01D9283
:10008000A030B107E1F70E94A11B0C94D81C0C947E
:100090000000EF92FF920F931F937B018C0120E0F1
:1000A00030E040E05FE40E94E10488238CF0C80166
:1000B000B70120E030E040E05FE40E94DD020E94F2
:1000C0009F059B01AC01205030404040504806C085
:1000D000C801B7010E949F059B01AC01B901CA018B
:1000E0001F910F91FF90EF900895EF92FF920F9361
:1000F0001F937B018C0120E030E040E050E00E9443
:10010000110588230CF05CC0C801B70190580E940B
:10011000E9002195E1E0121608F0E0E03195F1E008
:10012000131608F0F0E0E32EEE1AE1E03E1508F0B9
:10013000E0E0FE2B4195A1E0141608F0A0E0F42EBB
:10014000FF1AE1E04F1508F0E0E0AE2B5195F1E029
:10015000151608F0F0E0052F0A1BE1E0501708F033
:10016000E0E0FE2B6195A1E0161608F0A0E0162F46
:100170001F1BE1E0611708F0E0E0AE2B7195F1E0A4
:10018000171608F0F0E0B72FBA1BE1E07B1708F074
:10019000E0E0FE2B8195A1E0181608F0A0E0382FD2
:1001A0003F1BF32FE1E0831708F0E0E0AE2B9195C1
:1001B0003E2D4F2D502F612F7B2F8F2F9A1B04C068
:1001C000C801B7010E94E9001F910F91FF90EF90C5
:1001D0000895A0E0B0E0EFEEF0E00C94A11C7B01EC
:1001E0008C0120E030E040E85FE30E9411058823A5
:1001F0004CF4AA24BB24CC24DD24EE24FF2400E00C
:1002000010E086C0C801B70120E030E040E85FE4BC
:100210000E941105882354F4C801B7010E944900C7
:100220005B016C01EE24FF24870172C0C801B70195
:1002300020E030E040E85FE50E94110587FD0FC037
:10024000AA24AA94BB24BA94CC24CA94DD24DA94B8
:10025000EE24EA94FF24FA940FEF1FEF59C0C8016F
:10026000B70120E030E040E85FE20E943B037B0101
:100270008C0122243324210190E1A92EB12CC12C20
:10028000D12CC0E0D0E061E070E080E090E00A2C8A
:1002900004C0660F771F881F991F0A94D2F70E9427
:1002A000F3053B014C01C801B701A40193010E9471
:1002B000E104882364F02A283B284C285D28C801E3
:1002C000B701A40193010E9435047B018C01D694EF
:1002D000C794B794A7942196C530D105A1F6C8015B
:1002E000B70120E030E040E85FE40E943B030E9459
:1002F00049005B016C019B01A60160E070E080E0B9
:1003000090E0022D0E946C0659016A017B018C016C
:100310009501A601B701C801CDB7DEB7E2E10C94A3
:10032000BD1CA0E0B0E0E7E9F1E00C94A11CDC0109
:100330002B01FA019C91923008F439C1EB018881BC
:10034000823008F433C1943069F4843009F02FC14D
:1003500011969C9111978981981709F428C1A1E7FA
:10036000B3E025C1843009F421C18230A9F4923070
:1003700009F01DC19A01AD0188E0EA010990AE01C2
:10038000E90109929E018150C1F7E201898111962C
:100390009C918923818308C1923009F407C1129688
:1003A0002D903C901397EB018A819B811496AD9020
:1003B000BD90CD90DC901797EC80FD800E811F8161
:1003C0009101281B390BB90137FF04C06627772735
:1003D000621B730B603271050CF061C012161306BC
:1003E0006CF537014801062E04C0969487947794E3
:1003F00067940A94D2F721E030E040E050E004C076
:10040000220F331F441F551F6A95D2F721503040E9
:10041000404050402E213F214023512321153105DA
:100420004105510521F021E030E040E050E0790144
:100430008A01E628F728082919293CC0232BD1F185
:10044000260E371E35014601062E04C09694879469
:10045000779467940A94D2F721E030E040E050E0CE
:1004600004C0220F331F441F551F6A95D2F7215035
:100470003040404050402A213B214C215D21211534
:1004800031054105510521F021E030E040E050E028
:1004900059016A01A628B728C828D9280BC0821597
:1004A00093052CF01C01AA24BB24650103C0EE2493
:1004B000FF24870111969C91D20111968C91981777
:1004C00009F445C0992339F0A80197012A193B097D
:1004D0004C095D0906C0A60195012E193F09400B84
:1004E000510B57FD08C01182338222822483358349
:1004F000468357831DC081E081833382228288270F
:100500009927DC01821B930BA40BB50B8483958385
:10051000A683B7830DC0220F331F441F551F2483AA
:1005200035834683578382819381019793838283A6
:100530002481358146815781DA01C9010197A109DA
:10054000B1098F5F9F4FAF4FBF4328F30BC091831B
:1005500033822282EA0CFB1C0C1D1D1DE482F582F5
:100560000683178383E08083248135814681578108
:1005700057FF1AC0C901AA2797FDA095BA2F81700D
:100580009070A070B0705695479537952795822B3F
:10059000932BA42BB52B84839583A683B783828169
:1005A0009381019693838283DF0101C0D201CD0143
:1005B000CDB7DEB7E2E10C94BD1CA0E2B0E0E3EE03
:1005C000F2E00C94AD1C69837A838B839C832D832A
:1005D0003E834F835887E9E0EE2EF12CEC0EFD1E92
:1005E000CE010196B7010E940F088E010F5E1F4FCA
:1005F000CE010596B8010E940F088A8991E08927EB
:100600008A8BC701B801AE01475E5F4F0E9491011E
:100610000E943A07A096E6E00C94C91CA0E2B0E064
:10062000E4E1F3E00C94AD1C69837A838B839C83B3
:100630002D833E834F835887F9E0EF2EF12CEC0E8B
:10064000FD1ECE010196B7010E940F088E010F5EBC
:100650001F4FCE010596B8010E940F08C701B801CF
:10066000AE01475E5F4F0E9491010E943A07A0963B
:10067000E6E00C94C91CA0E2B0E0E1E4F3E00C94E5
:10068000A11C69837A838B839C832D833E834F8354
:100690005887CE010196BE01675F7F4F0E940F0809
:1006A000CE010596BE016F5E7F4F0E940F089985AF
:1006B000923088F089898230C8F0943019F4823001
:1006C00051F404C0843029F4923081F481E793E03E
:1006D000C6C0923049F420E09A858A89981321E0B7
:1006E0002A87CE010996BBC0823049F420E09A8562
:1006F0008A89981321E02A8BCE014196B0C02D84BF
:100700003E844F8458886D887E888F88988CEE242C
:10071000FF248701AA24BB24650140E050E060E08B
:1007200070E0E0E0F0E0C10181709070892BE9F0A9
:10073000E60CF71C081D191D9A01AB012A0D3B1D83
:100740004C1D5D1D80E090E0A0E0B0E0E614F704F1
:100750000805190520F481E090E0A0E0B0E0BA01BE
:10076000A901480F591F6A1F7B1FAA0CBB1CCC1C78
:10077000DD1C97FE08C081E090E0A0E0B0E0A82A70
:10078000B92ACA2ADB2A3196E032F10549F0660C13
:10079000771C881C991C5694479437942794C3CF90
:1007A000FA85EA892B893C898B859C85280F391F1E
:1007B0002E5F3F4F17C0CA0181709070892B61F086
:1007C00016950795F794E79480E090E0A0E0B0E8F4
:1007D000E82AF92A0A2B1B2B76956795579547959A
:1007E0002F5F3F4F77FDE7CF0CC0440F551F661FAB
:1007F000771F17FD4160EE0CFF1C001F111F2150D9
:100800003040403090E0590790E0690790E4790764
:1008100060F32B8F3C8FDB01CA018F779070A07043
:10082000B07080349105A105B10561F447FD0AC09F
:10083000E114F1040105110529F0405C5F4F6F4F91
:100840007F4F40781A8EFE1711F081E08A8F4D8F0E
:100850005E8F6F8F78A383E0898FCE0149960E94C7
:100860003A07A096E2E10C94BD1CA8E1B0E0EBE3EE
:10087000F4E00C94A91C69837A838B839C832D8379
:100880003E834F835887B9E0EB2EF12CEC0EFD1E12
:10089000CE010196B7010E940F088E010F5E1F4F17
:1008A000CE010596B8010E940F082985223008F470
:1008B0007EC03989323010F4B8017CC08A859A89AB
:1008C00089278A87243011F0223031F4231709F068
:1008D0006EC061E773E06EC0343039F41D861E8649
:1008E0001F86188A1C861B8604C0323021F484E0DF
:1008F0008987B7015FC02B853C858B899C89281B24
:10090000390B3C872B87ED84FE840F851889AD88D1
:10091000BE88CF88D88CEA14FB040C051D0540F472
:10092000EE0CFF1C001F111F215030403C872B870D
:1009300020E030E040E050E080E090E0A0E0B0E473
:1009400060E070E0EA14FB040C051D0540F0282B64
:10095000392B4A2B5B2BEA18FB080C091D09B695AD
:10096000A79597958795EE0CFF1C001F111F6F5FD1
:100970007F4F6F31710531F7DA01C9018F779070C0
:10098000A070B07080349105A105B10561F427FD18
:100990000AC0E114F1040105110529F0205C3F4F64
:1009A0004F4F5F4F20782D873E874F87588BBE0172
:1009B000675F7F4FCB010E943A076896EAE00C948C
:1009C000C51CA8E1B0E0E7EEF4E00C94AD1C69832F
:1009D0007A838B839C832D833E834F83588789E062
:1009E000E82EF12CEC0EFD1ECE010196B7010E94FF
:1009F0000F088E010F5E1F4FCE010596B8010E94B1
:100A00000F088985823040F08989823028F0C7013B
:100A1000B8010E94870801C08FEF6896E6E00C9449
:100A2000C91CA8E1B0E0E7E1F5E00C94AD1C6983D6
:100A30007A838B839C832D833E834F83588789E001
:100A4000E82EF12CEC0EFD1ECE010196B7010E949E
:100A50000F088E010F5E1F4FCE010596B8010E9450
:100A60000F088985823040F08989823028F0C701DB
:100A7000B8010E94870801C081E06896E6E00C9406
:100A8000C91CA8E0B0E0E7E4F5E00C94AA1C9B01C7
:100A9000AC0183E08983DA01C9018827B7FD83951A
:100AA0009927AA27BB27B82E2115310541055105E5
:100AB00019F482E089833AC08823A9F0203080E0CD
:100AC000380780E0480780E8580729F460E070E0C4
:100AD00080E09FEC30C0EE24FF248701E21AF30A85
:100AE000040B150B02C079018A018EE1C82ED12CAE
:100AF000DC82CB82ED82FE820F831887C801B701AA
:100B00000E94EB0601971816190684F4082E04C0FB
:100B1000EE0CFF1C001F111F0A94D2F7ED82FE821B
:100B20000F831887C81AD90ADC82CB82BA82CE0119
:100B300001960E943A072896E9E00C94C61CACE0A6
:100B4000B0E0E5EAF5E00C94B11C69837A838B830D
:100B50009C83CE010196BE016B5F7F4F0E940F0800
:100B60008D81823061F1823050F1843021F48E81A8
:100B7000882351F12EC02F81388537FD20C06E812A
:100B80002F3131051CF06623F9F023C08EE190E08F
:100B9000821B930B29853A854B855C8504C056954D
:100BA0004795379527958A95D2F76623B1F05095EA
:100BB0004095309521953F4F4F4F5F4F0EC020E03D
:100BC00030E040E050E009C02FEF3FEF4FEF5FE72C
:100BD00004C020E030E040E050E8B901CA012C96A2
:100BE000E2E00C94CD1CA8E0B0E0E9EFF5E00C9455
:100BF000A91C7B018C01611571058105910519F412
:100C000082E0898360C083E089838EE1C82ED12C85
:100C1000DC82CB82ED82FE820F831887C801B70188
:100C20000E94EB06FC013197F7FF3BC022273327D8
:100C30002E1B3F0B57016801022E04C0D694C794A7
:100C4000B794A7940A94D2F740E050E060E070E0D7
:100C500081E090E0A0E0B0E004C0880F991FAA1FD7
:100C6000BB1F2A95D2F70197A109B1098E219F21B7
:100C7000A023B1230097A105B10521F041E050E088
:100C800060E070E04A295B296C297D294D835E83F1
:100C90006F8378878EE190E08E1B9F0B9C838B8304
:100CA00012C0309781F00E2E04C0EE0CFF1C001F06
:100CB000111F0A94D2F7ED82FE820F831887CE1A95
:100CC000DF0ADC82CB821A82CE0101960E943A07AB
:100CD0002896EAE00C94C51CEF92FF920F93DF93E5
:100CE000CF93CDB7DEB760970FB6F894DEBF0FBED7
:100CF000CDBFA82F002309F461C07E010894E11C38
:100D0000F11C88E0F70111928A95E9F729833A836B
:100D10004B835C836D837E83AF83988780E2801BE7
:100D2000E82FFF27E7FDF09549815A816B817C818F
:100D3000181684F019861A861B861C868827992720
:100D40008E1B9F0B04C0440F551F661F771F8A958B
:100D5000D2F728C0202F332727FD3095DB01CA01A9
:100D6000022E04C0880F991FAA1FBB1F0A94D2F736
:100D700089879A87AB87BC8704C076956795579516
:100D80004795EA95D2F78D819E81AF81B88504C0E1
:100D9000880F991FAA1FBB1F2A95D2F7482B592BE2
:100DA0006A2B7B2B4D875E876F87788B29853A85E9
:100DB0004B855C856D857E85AF8598898A2F609689
:100DC0000FB6F894DEBF0FBECDBFCF91DF910F916C
:100DD000FF90EF900895EF92FF920F931F937B0186
:100DE0008C0180E0E81680E0F80681E0080780E0EA
:100DF000180788F48FEFE816F1040105110531F0AA
:100E000028F088E090E0A0E0B0E017C080E090E03B
:100E1000A0E0B0E012C080E0E81680E0F80680E0D4
:100E2000080781E0180728F088E190E0A0E0B0E032
:100E300004C080E190E0A0E0B0E020E230E040E0DB
:100E400050E0281B390B4A0B5B0B04C01695079525
:100E5000F794E7948A95D2F7F701E758FC4F808121
:100E6000281B310941095109C9011F910F91FF90B8
:100E7000EF900895DF92EF92FF920F931F93FC0182
:100E8000E480F58006811781D1808081823048F42A
:100E900080E090E0A0E1B0E0E82AF92A0A2B1B2BC1
:100EA000A5C0843009F49FC0823021F4EE24FF24D1
:100EB000870105C0E114F1040105110519F4E0E012
:100EC000F0E096C0628173819FEF623879070CF081
:100ED0005BC022E83FEF261B370B2A3131052CF08F
:100EE00020E030E040E050E02AC0B801A701022E27
:100EF00004C076956795579547950A94D2F781E097
:100F000090E0A0E0B0E004C0880F991FAA1FBB1FAB
:100F10002A95D2F70197A109B1098E219F21A0231B
:100F2000B1230097A105B10521F081E090E0A0E098
:100F3000B0E09A01AB01282B392B4A2B5B2BDA014D
:100F4000C9018F779070A070B07080349105A105B1
:100F5000B10539F427FF09C0205C3F4F4F4F5F4F69
:100F600004C0215C3F4F4F4F5F4FE0E0F0E0203086
:100F7000A0E03A07A0E04A07A0E45A0710F0E1E039
:100F8000F0E079018A0127C06038710564F5FB0142
:100F9000E158FF4FD801C7018F779070A070B070F3
:100FA00080349105A105B10539F4E7FE0DC080E458
:100FB00090E0A0E0B0E004C08FE390E0A0E0B0E0FB
:100FC000E80EF91E0A1F1B1F17FF05C0169507958F
:100FD000F794E794319687E016950795F794E79490
:100FE0008A95D1F705C0EE24FF248701EFEFF0E0EA
:100FF0006E2F679566276795902F9F77D794DD248E
:10100000D7948E2F8695492F462B582F5D29B701EF
:10101000CA011F910F91FF90EF90DF900895FC019E
:10102000DB01408151812281622F6F7770E0221FA6
:101030002227221F9381892F880F822B282F30E0AF
:10104000991F9927991F11969C9311972115310586
:10105000A9F5411551056105710511F482E037C00C
:1010600082E89FEF13969C938E9312979A01AB019F
:1010700067E0220F331F441F551F6A95D1F783E0A5
:101080008C930DC0220F331F441F551F12968D9154
:101090009C911397019713969C938E9312972030EF
:1010A00080E0380780E0480780E4580758F314963A
:1010B0002D933D934D935C93179708952F3F3105E2
:1010C00079F4411551056105710519F484E08C939B
:1010D000089564FF03C081E08C9312C01C9210C07D
:1010E0002F57304013963C932E93129783E08C93A6
:1010F00087E0440F551F661F771F8A95D1F77064EC
:1011000014964D935D936D937C93179708951F9359
:10111000DC01FB019C91923008F447C08081823051
:1011200008F443C0943051F411961C91843099F521
:101130008181682F70E0611B71093FC0843021F00C
:10114000923031F48230B9F18181882389F12DC048
:1011500011961C9111978230F1F081811817D9F402
:1011600012962D913C911397828193818217930758
:1011700094F028173907BCF014968D919D910D902D
:10118000BC91A02D248135814681578128173907CC
:101190004A075B0718F4112341F00AC0821793072E
:1011A000A407B50740F4112319F061E070E005C011
:1011B0006FEF7FEF02C060E070E0CB011F910895F8
:1011C000599810BC83E389B95898529886E880BD35
:1011D000579856985598549A539A0895282F809165
:1011E000AE04882311F083E0089580E090E0A0E051
:1011F000B0E003C00196A11DB11D5D9909C0803109
:1012000037E2930730E0A30730E0B30799F708C04F
:1012100080519742A040B04019F02CB980E001C045
:1012200084E01092AE040895FC01009711F482E06E
:1012300008958091AE04882311F083E0089580E042
:1012400090E0A0E0B0E003C00196A11DB11D5F9940
:1012500009C0803127E2920720E0A20720E0B20710
:1012600099F709C080519742A040B04021F08CB15D
:10127000808380E001C084E01092AE040895CF9393
:10128000DF93009711F482E00AC0EC0105C00E94D0
:10129000EE082196882319F488818823C1F7DF910D
:1012A000CF910895FC018091AE04882311F083E072
:1012B00008953097A9F06115710591F081E0809350
:1012C000AE04F093AD04E093AC047093B00460936B
:1012D000AF041092B40480818CB9569A80E00895CE
:1012E00082E00895AF92BF92CF92DF92EF92FF9289
:1012F0000F931F93CF93DF93EC015A016B0100977B
:1013000011F482E016C0EE24FF2487010CC0CE0148
:101310008E0D9F1D0E941409882359F40894E11C26
:10132000F11C011D111DEA14FB040C051D0578F3C9
:1013300080E0DF91CF911F910F91FF90EF90DF90B0
:10134000CF90BF90AF900895BC018091AE048823E8
:1013500011F083E0089561157105A9F0211531059B
:1013600091F081E08093AE047093B2046093B10475
:101370003093B0042093AF044093B3041092B404AC
:10138000579A80E0089582E008951F920F920FB659
:101390000F9211242F933F934F935F936F937F93FB
:1013A0008F939F93AF93BF93EF93FF939091B40468
:1013B0008CB1E091B104F091B204E90FF11D80838A
:1013C0009F5F9093B4048091B304981761F41092D6
:1013D000B4041092AE04E091AF04F091B0043097E1
:1013E00009F009955798FF91EF91BF91AF919F91A7
:1013F0008F917F916F915F914F913F912F910F90BE
:101400000FBE0F901F9018951F920F920FB60F925C
:1014100011242F933F934F935F936F937F938F93F9
:101420009F93AF93BF93EF93FF938091B4048F5F2B
:101430008093B404E091AC04F091AD04E80FF11D89
:10144000E081EE2369F41092B4041092AE04E091AE
:10145000AF04F091B004309709F00995569801C097
:10146000ECB9FF91EF91BF91AF919F918F917F91D7
:101470006F915F914F913F912F910F900FBE0F9001
:101480001F90189583B7806483BF83B7886083BF3C
:1014900083B78F7E83BF83B7806283BF1CBE83B751
:1014A000887F83BF83B7846083BF08958FB58E7FA5
:1014B0008FBD8FB582608FBD8EB588608EBD8EB5B5
:1014C00080618EBD1BBC1ABC19BC18BC80E29EE4B6
:1014D00097BD86BD8EB580648EBD8FB58F7B8FBD69
:1014E0008FB580688FBD8FB58F7E8FBD8FB58062C1
:1014F0008FBD89B78B7F89BF89B78F7E89BF89B739
:10150000877F89BF89B78F7D89BF8EB5887F8EBD64
:101510008EB582608EBD089585B5806485BD85B524
:10152000886085BD85B58F7E85BD85B5806285BDAA
:1015300013BC85B5887F85BD85B585BD089582BFFF
:1015400008959DBD8CBD089584BD08958CBF0895F8
:101550009BBD8ABD089599BD88BD089583BD08953A
:1015600097BD86BD089582B708952CB53DB5C901D4
:10157000089584B508959BBD8ABD089595B5987F5B
:1015800095BD95B5982B95BD08958EB580648EBD9B
:1015900089B7806289BF0895813029F48EB580644F
:1015A0008EBD80E00895882311F081E008958EB506
:1015B0008F7B8EBD80E0089589B7806289BF0895D2
:1015C00089B78F7D89BF089526B537B5C9010895BC
:1015D00081B5887F81BD81B5866081BD089581B563
:1015E000886081BD089581B5886181BD11BC089571
:1015F000009711F482E00895E62FF0E0EE0FFF1F50
:10160000EB54FB4F9183808380E008951F920F92EB
:101610000FB60F9211242F933F934F935F936F93C5
:101620007F938F939F93AF93BF93EF93FF93E0913B
:10163000CB04F091CC04309709F00995FF91EF911C
:10164000BF91AF919F918F917F916F915F914F91DA
:101650003F912F910F900FBE0F901F9018951F92E2
:101660000F920FB60F9211242F933F934F935F93D6
:101670006F937F938F939F93AF93BF93EF93FF935A
:10168000E091C904F091CA04309709F00995FF91DF
:10169000EF91BF91AF919F918F917F916F915F91EA
:1016A0004F913F912F910F900FBE0F901F90189563
:1016B0001F920F920FB60F9211242F933F934F93C7
:1016C0005F936F937F938F939F93AF93BF93EF93AA
:1016D000FF93E091C704F091C804309709F0099591
:1016E000FF91EF91BF91AF919F918F917F916F91FA
:1016F0005F914F913F912F910F900FBE0F901F90D0
:1017000018951F920F920FB60F9211242F933F93AB
:101710004F935F936F937F938F939F93AF93BF93F9
:10172000EF93FF93E091C504F091C604309709F060
:101730000995FF91EF91BF91AF919F918F917F910B
:101740006F915F914F913F912F910F900FBE0F902E
:101750001F9018951F920F920FB60F9211242F937E
:101760003F934F935F936F937F938F939F93AF9329
:10177000BF93EF93FF93E091C304F091C4043097BB
:1017800009F00995FF91EF91BF91AF919F918F91D2
:101790007F916F915F914F913F912F910F900FBE6D
:1017A0000F901F9018951F920F920FB60F92112451
:1017B0002F933F934F935F936F937F938F939F9359
:1017C000AF93BF93EF93FF93E091C104F091C204F4
:1017D000309709F00995FF91EF91BF91AF919F91DB
:1017E0008F917F916F915F914F913F912F910F90CA
:1017F0000FBE0F901F9018951F920F920FB60F9269
:1018000011242F933F934F935F936F937F938F9305
:101810009F93AF93BF93EF93FF93E091BF04F09139
:10182000C004309709F00995FF91EF91BF91AF91F6
:101830009F918F917F916F915F914F913F912F91E8
:101840000F900FBE0F901F9018951F920F920FB61A
:101850000F9211242F933F934F935F936F937F9336
:101860008F939F93AF93BF93EF93FF93E091BD044A
:10187000F091BE04309709F00995FF91EF91BF9167
:10188000AF919F918F917F916F915F914F913F9118
:101890002F910F900FBE0F901F9018959FBB8EBB7E
:1018A0006DBBE29AE19AE199FECF08958EBB9FBB92
:1018B000E09A8DB30895843008F077C0683008F05E
:1018C00074C04130B1F5813099F0813030F0823010
:1018D000D1F0833009F06BC021C02AB381E090E0E1
:1018E00002C0880F991F6A95E2F7282B2ABB5BC0BC
:1018F00027B381E090E002C0880F991F6A95E2F754
:10190000282B27BB50C024B381E090E002C0880F91
:10191000991F6A95E2F7282B24BB45C021B381E0CB
:1019200090E002C0880F991F6A95E2F7282B21BB2F
:101930003AC04423D1F5813099F0813028F08230CB
:10194000D9F08330A1F524C02AB381E090E002C031
:10195000880F991F6A95E2F7809582238ABB23C07E
:1019600027B381E090E002C0880F991F6A95E2F7E3
:101970008095822387BB17C024B381E090E002C02A
:10198000880F991F6A95E2F78095822384BB0BC06C
:1019900021B381E090E002C0880F991F6A95E2F7B9
:1019A0008095822381BB81E0089580E0089581E0E5
:1019B0000895843008F077C0683008F074C0413072
:1019C000B1F5813099F0813030F08230D1F0833040
:1019D00009F06BC021C02BB381E090E002C0880FFA
:1019E000991F6A95E2F7282B2BBB5BC028B381E0D7
:1019F00090E002C0880F991F6A95E2F7282B28BB58
:101A000050C025B381E090E002C0880F991F6A950D
:101A1000E2F7282B25BB45C022B381E090E002C04D
:101A2000880F991F6A95E2F7282B22BB3AC04423FE
:101A3000D1F5813099F0813028F08230D9F08330AF
:101A4000A1F524C02BB381E090E002C0880F991F5C
:101A50006A95E2F7809582238BBB23C028B381E08F
:101A600090E002C0880F991F6A95E2F78095822363
:101A700088BB17C025B381E090E002C0880F991F92
:101A80006A95E2F78095822385BB0BC022B381E083
:101A900090E002C0880F991F6A95E2F78095822333
:101AA00082BB81E0089580E0089581E00895FA0105
:101AB000843028F5683018F5813049F0813028F0FD
:101AC000823039F08330C9F406C029B305C026B38B
:101AD00003C023B301C020B381E090E0062E02C012
:101AE000880F991F0A94E2F730E08223932302C003
:101AF000959587956A95E2F7808381E0089580E067
:101B000008958430C0F56830B0F5813091F08130AF
:101B100028F08230C9F0833061F521C02BB381E019
:101B200090E002C0880F991F6A95E2F728272BBB27
:101B300020C028B381E090E002C0880F991F6A9509
:101B4000E2F7282728BB15C025B381E090E002C04A
:101B5000880F991F6A95E2F7282725BB0AC022B390
:101B600081E090E002C0880F991F6A95E2F728276C
:101B700022BB81E0089580E00895843008F08FC092
:101B8000683008F08CC0813049F1813038F0823003
:101B900009F444C0833009F080C060C0413091F442
:101BA00080B78B7F80BF3AB381E090E002C0880F9E
:101BB000991F6A95E2F7282F209523232ABB2BB380
:101BC000822B0AC02BB381E090E002C0880F991FDE
:101BD0006A95E2F7809582238BBB5FC0413091F418
:101BE00080B78B7F80BF37B381E090E002C0880F61
:101BF000991F6A95E2F7282F2095232327BB28B346
:101C0000822B0AC028B381E090E002C0880F991FA0
:101C10006A95E2F78095822388BB3FC0413091F4FA
:101C200080B78B7F80BF34B381E090E002C0880F23
:101C3000991F6A95E2F7282F2095232324BB25B30B
:101C4000822B0AC025B381E090E002C0880F991F63
:101C50006A95E2F78095822385BB1FC0413091F4DD
:101C600080B78B7F80BF31B381E090E002C0880FE6
:101C7000991F6A95E2F7282F2095232321BB22B3D1
:101C8000822B0AC022B381E090E002C0880F991F26
:101C90006A95E2F78095822382BB81E0089580E017
:101CA0000895843090F4813049F0813028F08230FA
:101CB00039F0833051F406C06ABB05C067BB03C06E
:101CC00064BB01C061BB81E0089580E00895843069
:101CD00090F4813049F0813028F0823039F083303F
:101CE00051F406C06BBB05C068BB03C065BB01C037
:101CF00062BB81E0089580E00895FB01843098F490
:101D0000813049F0813028F0823039F0833059F445
:101D100006C089B305C086B303C083B301C080B3D6
:101D2000808381E0089580E00895843010F080E0A1
:101D30000895813059F0813028F0823059F0833095
:101D400061F40DC08BB380958BBB07C088B38095C1
:101D500088BB03C085B3809585BB81E0089582B3BD
:101D6000809582BB81E00895843010F080E0089572
:101D70006F70813071F0813028F0823089F08330CB
:101D8000A9F416C08BB3807F8BBB8BB3682B6BBB66
:101D90000DC088B3807F88BB88B3682B68BB06C042
:101DA00085B3807F85BB85B3682B65BB81E00895D3
:101DB00082B3807F82BB82B3682B62BB81E00895CF
:101DC000843010F080E008956295607F813071F07A
:101DD000813028F0823089F08330A9F416C08BB3AB
:101DE0008F708BBB8BB3682B6BBB0DC088B38F70B0
:101DF00088BB88B3682B68BB06C085B38F7085BB72
:101E000085B3682B65BB81E0089582B38F7082BB78
:101E100082B3682B62BB81E00895843010F080E0CB
:101E200008956F70813071F0813028F0823089F030
:101E30008330A9F416C08AB3807F8ABB8AB3682B2B
:101E40006ABB0DC087B3807F87BB87B3682B67BB36
:101E500006C084B3807F84BB84B3682B64BB81E0FD
:101E6000089581B3807F81BB81B3682B61BB81E022
:101E70000895843010F080E008956295607F81308D
:101E800071F0813028F0823089F08330A9F416C0D7
:101E90008AB38F708ABB8AB3682B6ABB0DC087B3C5
:101EA0008F7087BB87B3682B67BB06C084B38F7006
:101EB00084BB84B3682B64BB81E0089581B38F70C9
:101EC00081BB81B3682B61BB81E008953E9A3F9846
:101ED0003D9886B1887F86B986B1876086B9359886
:101EE000379A33980895379A089537980895339A12
:101EF000089533980895982F823020F0833011F0A0
:101F000081E0089587B18F7387B987B19295990F52
:101F1000990F907C892B87B980E00895982F88309D
:101F200010F081E0089586B1887F86B986B1892B4B
:101F300086B980E00895882311F43D980895813092
:101F400011F081E008953D9A80E00895883019F4F9
:101F5000359880E00895883010F081E00895359A32
:101F600080B78F7180BF80B780BF80E00895982FC1
:101F7000FB016115710511F482E008958091C70499
:101F8000882311F083E00895903230F487B1807E89
:101F900087B987B1892B87B9369A80E090E0A0E0B5
:101FA000B0E003C00196A11DB11D349B06C0805551
:101FB000934CA040B04051F415C0803523EC9207FB
:101FC00020E0A20720E0B20769F70CC0349A84B180
:101FD00045B1342F20E090E0282B392B318320832A
:101FE00080E001C081E01092C7040895982F611528
:101FF000710511F141155105F9F08091C70488234D
:1020000011F083E0089581E08093C7041092CA0420
:102010007093C6046093C5045093C9044093C804E8
:10202000903230F487B1807E87B987B1892B87B928
:10203000369A339A80E0089582E00895FC01009773
:10204000B9F1A081B181109799F14581568141156F
:10205000510571F1228133812115310549F18091BA
:10206000C704882311F083E0089581E08093C704BA
:102070008093CA043093C6042093C504B093CC0463
:10208000A093CB0484818093CD045093C9044093E2
:10209000C8041092CE049C91903230F487B1807EB7
:1020A00087B987B1982B97B9369A339A80E008950B
:1020B00082E008951F920F920FB60F9211242F9372
:1020C0003F934F935F936F937F938F939F93AF93C0
:1020D000BF93EF93FF938091CA04882371F424B1D6
:1020E00045B1E091C504F091C604942F80E030E042
:1020F000822B932B918380831EC08130A9F5509150
:10210000CE0424B145B1852F90E0880F991FE0914E
:10211000C504F091C604E80FF91F942F80E030E069
:10212000822B932B918380835F5F5093CE048091A9
:10213000CD04581749F41092C704E091C804F091F7
:10214000C9040995339810C0E091CB04F091CC04F8
:10215000E50FF11DE081E03230F487B1807E87B970
:1021600087B1E82BE7B9369AFF91EF91BF91AF9114
:102170009F918F917F916F915F914F913F912F919F
:102180000F900FBE0F901F9018951DBC1CBC992777
:1021900087FD9095A92FB92FBC01CD010E94410563
:1021A00021E63BE046EB5BE30E943B0320E030E0AE
:1021B00040EC5FE30E940E0320E030E04AE754E485
:1021C0000E943B030E9449007BBD6ABD089583E0E5
:1021D00065E041E00E945B0C0895CF92DF92EF92A0
:1021E000FF920F931F93DF93CF9300D0CDB7DEB74D
:1021F0008C016B01FC01818190E028EE33E0829F2D
:102200007001839FF00C929FF00C11248081BE011D
:102210006F5F7F4F0E94B70FF8018281882389F496
:10222000B70180E090E029813A8140E050E00E94CF
:102230001E1C3AE096958795779567953A95D1F764
:102240000FC0813081F4B70180E090E029813A81AC
:1022500040E050E00E941E1C672F782F892F99279D
:10226000F6017183608380E00F900F90CF91DF9132
:102270001F910F91FF90EF90DF90CF900895CF9234
:10228000DF92EF92FF920F931F93DF93CF9300D0D3
:10229000CDB7DEB78C016B01FC01818190E028EEA7
:1022A00033E0829F7001839FF00C929FF00C112409
:1022B0008081BE016F5F7F4F0E94B70FF80182815E
:1022C000882389F4B70180E090E029813A8140E0D9
:1022D00050E00E941E1C5AE0969587957795679569
:1022E0005A95D1F70FC0813071F4B70180E090E0CA
:1022F00029813A8140E050E00E941E1C672F782F10
:10230000892F9927CB016AE070E00E943D1CF601FD
:10231000608380E00F900F90CF91DF911F910F911C
:10232000FF90EF90DF90CF900895DF93CF9300D090
:102330000F92CDB7DEB7962F6983672F7A838B8391
:10234000892F0E94810D0F900F900F90CF91DF91F8
:102350000895DF93CF9300D00F92CDB7DEB7262F2D
:1023600069837A838B83672F813019F4822F40E051
:1023700004C0882321F4822F41E00E94D90C0F90E1
:102380000F900F90CF91DF910895DF93CF9300D0FE
:102390000F92CDB7DEB7262F69837A838B83672FA1
:1023A000813019F4822F41E004C0882321F4822F68
:1023B00040E00E94D90C0F900F900F90CF91DF91C9
:1023C0000895DF93CF9300D00F92CDB7DEB7962F4D
:1023D0006983672F7A838B83892F41E00E945B0C8E
:1023E0000F900F900F90CF91DF910895EF92FF9291
:1023F0000F931F93DF93CF9300D0CDB7DEB78C013F
:102400007B01FC018081BE016F5F7F4F0E94B70F8F
:10241000F8018281882359F469817A8180E090E013
:102420000E94F30520E030E040E85AE30CC0813020
:10243000B1F469817A8180E090E00E94F30520E0A8
:1024400030E040E85BE30E943B0320E030E048ECF2
:1024500052E40E943B030E944900F701608380E040
:102460000F900F90CF91DF911F910F91FF90EF9000
:1024700008958F929F92BF92CF92DF92EF92FF9238
:102480000F931F93DF93CF930F92CDB7DEB7BB248B
:10249000BA94CC24DD247E010894E11CF11C98EC54
:1024A000892E912C0C2D0C5F83E0602F40E00E9460
:1024B000D90C83E060E0A7010E94570D8981882331
:1024C00011F410E01DC083E061E0A7010E94570DE8
:1024D0008981882311F411E013C083E062E0A70131
:1024E0000E94570D8981882311F412E009C083E00E
:1024F00063E0A7010E94570D8981882319F513E035
:1025000084EF91E0F4013197F1F70197D9F783E077
:10251000612FA7010E94570D8981882359F4E12F6B
:10252000F0E0EE0FFF1FEE0FFF1FEC0DFD1DE75853
:10253000FB4FB08083E0612FA7010E94570D898176
:102540008823C1F383E0602F41E00E94D90C0894F6
:10255000C11CD11C84E0C816D10409F0A3CF8B2D77
:102560000F90CF91DF911F910F91FF90EF90DF902F
:10257000CF90BF909F908F90089583E060E041E0FE
:102580000E94BD0D83E061E041E00E94BD0D83E04B
:1025900062E041E00E94BD0D83E063E041E00E9403
:1025A000BD0D83E06FE00E94390F83E06FE00E9471
:1025B000E00E08950F931F9381E064E041E00E94D4
:1025C000D90C00ED17E0C8010197F1F781E064E054
:1025D00040E00E94D90CC8010197F1F71F910F91BB
:1025E00008951F93182F81E066E040E00E94D90C07
:1025F00081E065E040E00E94D90C612F62956F7028
:1026000081E00E94B40E0E94DA1281E0612F0E94E4
:10261000B40E0E94DA121F91089588E10E94F1120F
:1026200080ED97E00197F1F708958CE10E94F11297
:1026300080ED97E00197F1F70895982F815084304D
:10264000C0F46623B1F06531A0F4913019F4862FFF
:10265000815810C0923019F4862F81540BC09330EA
:1026600019F4862F8D5606C0943021F4862F8D5292
:1026700001C080E80E94F11280ED97E00197F1F728
:10268000089581E00E94F11280E29EE40197F1F743
:1026900008951F93182F81E066E041E00E94D90C55
:1026A00081E065E040E00E94D90C612F62956F7077
:1026B00081E00E94B40E0E94DA1281E0612F0E9434
:1026C000B40E0E94DA121F9108950F931F93CF93B7
:1026D000DF93182F062F80E40E94F112C9E8D4E09E
:1026E00089910E94491384E0C139D807C9F7812F25
:1026F000602F0E941D1310E0812F0E9449131F5F5D
:102700001830D1F7DF91CF911F910F9108956F92FB
:102710007F928F929F92AF92BF92CF92DF92EF9271
:10272000FF920F931F935B016C0161157105810589
:10273000910521F480E30E94491356C097FF0BC016
:102740008DE20E944913D094C094B094A094A11C2F
:10275000B11CC11CD11C81E0682E712C812C912CE4
:10276000C401B3012AE030E040E050E00E941E1CAA
:102770007B018C01C601B5010E94861C3B014C0106
:102780006E0C7F1C801E911EC601B5012AE030E050
:1027900040E050E00E94861CC901DA015C016D0135
:1027A000A114B104C104D104D9F618C0C401B30105
:1027B0002AE030E040E050E00E94641C862F805DFB
:1027C0000E944913C401B3012AE030E040E050E028
:1027D0000E94641CC901DA013C014D0181E06816C8
:1027E00071048104910411F71F910F91FF90EF90F4
:1027F000DF90CF90BF90AF909F908F907F906F9021
:102800000895EF92FF920F931F937B018C010E941A
:102810009F050E948713C801B70120E030E040E027
:1028200050E00E941105882324F417FB109517F936
:102830001095C801B7010E949F050E9441059B01A8
:10284000AC01C801B7010E94DD0220E030E44CE198
:1028500056E40E943B037B018C010E947500232BF0
:10286000242B252B262B272B282B292B49F08EE2D6
:102870000E944913C801B7010E949F050E94871357
:102880001F910F91FF90EF9008951F93CF93DF93C7
:10289000EC0110E003C00E9449131F5FFE01E10F2D
:1028A000F11D80818823B9F7DF91CF911F910895A1
:1028B0000F931F9384EF91E028EC30E0F9013197FA
:1028C000F1F70197D9F781E060E041E00E945B0CED
:1028D00081E061E041E00E945B0C81E062E041E068
:1028E0000E945B0C81E063E041E00E945B0C81E0B0
:1028F00066E041E00E945B0C81E065E041E00E94FF
:102900005B0C81E064E041E00E945B0C82E00E948D
:10291000F11280E29EE40197F1F788E20E94F11241
:1029200000ED17E0C8010197F1F78CE00E94F11269
:10293000C8010197F1F70E94411386E00E94F1124D
:10294000C8010197F1F71F910F91089580E10E944E
:10295000F11280E20E94491380E10E94F112089571
:102960001F93CF93DF930E94411380E690E00E9473
:10297000451415E3C8ECD0E080E10E94F112812FEC
:102980000E94491380E197E2FE013197F1F7019728
:10299000D9F71150103381F782E190E06FEF0E9478
:1029A0004E0C83E080939104DF91CF911F910895A5
:1029B0000F931F930E9441138DE690E00E944514EF
:1029C00082E061E00E941D138EE00E94F11281E01E
:1029D0008093930410E088EE94E00E9414098093A1
:1029E0009404809194048823C1F41123B1F480915C
:1029F000E8048D3081F38091E8048F3061F3809199
:102A0000E804883041F38091E8040E9449138091E2
:102A1000E8048093D30411E0DECF809194048823EE
:102A2000D9F41431C8F48091E8048D3029F18091F3
:102A3000E8048F3009F18091E804883051F18091E9
:102A4000E8040E944913E12FF0E08091E804ED5280
:102A5000FB4F80831F5FBFCF80919404882309F0D0
:102A6000BACF143108F4B7CF8091E8048D3021F04B
:102A70008091E8048F3041F48CE00E94F112809143
:102A8000D004181721F509C08091E804883009F0B6
:102A9000A2CF0E94A61411509ECF00E013C0202F99
:102AA00030E0F901ED52FB4F80818823B1F01081B5
:102AB000C9018F5B9F4F0E94560C181711F010929E
:102AC00093040F5F8091D004081748F306C08091EB
:102AD000D004181711F0109293041F910F910895CC
:102AE0000F931F930E9441138CE790E00E944514BE
:102AF00082E061E00E941D138EE00E94F11281E0ED
:102B00008093920410E088EE94E00E941409809370
:102B10009404809194048823C1F41123B1F480912A
:102B2000E8048D3081F38091E8048F3061F3809167
:102B3000E804883041F38091E8040E9449138091B1
:102B4000E8048093D30411E0DECF809194048823BD
:102B5000D9F41431C8F48091E8048D3029F18091C2
:102B6000E8048F3009F18091E804883051F18091B8
:102B7000E8040E944913E12FF0E08091E804ED524F
:102B8000FB4F80831F5FBFCF80919404882309F09F
:102B9000BACF143108F4B7CF8091E8048D3021F01A
:102BA0008091E8048F3041F48CE00E94F112809112
:102BB000CF04181719F509C08091E804883009F08E
:102BC000A2CF0E94A61411509ECF00E012C0202F69
:102BD00030E0F901ED52FB4F80818823A9F010818C
:102BE000C90181960E94560C181711F01092920498
:102BF0000F5F8091D004801750F706C08091CF04FA
:102C0000181711F0109292041F910F910895CF930D
:102C1000DF93C8ECD0E00E9470150E94D814809118
:102C20009204882329F080919304882309F04EC0F0
:102C30000E9441138BE890E00E94451482E061E01D
:102C40000E941D138CE990E00E944514809191042C
:102C50008150809391046091910482E190E00E9400
:102C60004E0C809191048823A9F083E061E00E94DA
:102C70001D1388EA90E00E94451480919104805DC4
:102C80000E94491388E59BE1FE013197F1F7019716
:102C9000D9F7C1CF80919104882309F0BCCF83E09C
:102CA00061E00E941D1388EA90E00E944514809123
:102CB0009104805D0E94491388E893E1FE013197F9
:102CC000F1F70197D9F70E94B014A5CF0E944113E4
:102CD00086EB90E00E94451482E061E00E941D13A3
:102CE00083EC90E00E94451488E59BE128EC30E0FD
:102CF000F9013197F1F70197D9F7DF91CF91089555
:102D00000E9441138BEC90E00E94451482E061E048
:102D10000E941D1388ED90E00E94451484E06FE04E
:102D20000E94651384E060E10E941D138AEE90E02A
:102D30000E94451483E061E00E941D131092D004AC
:102D40008091D004882309F457C00E94411380EF7A
:102D500090E00E94451482E061E00E941D1381E032
:102D600091E00E94451485E30E9449138CE091E0B4
:102D70000E94451484E061E00E94651384E062E0F3
:102D80000E941D1382E191E00E94451488EE94E0B8
:102D90000E94140980939404809194048823B1F7CD
:102DA0008091E8048D3021F08091E8048F3071F734
:102DB0000E94411381E065E00E941D138BEC90E0BE
:102DC0000E94451482E061E00E941D1388ED90E0AE
:102DD0000E94451484E06FE00E94651384E060E186
:102DE0000E941D138AEE90E00E94451483E061E08A
:102DF0000E941D131092D0048EE00E94F11288EE02
:102E000094E00E9414098093940480919404882390
:102E100089F48091D004882369F48091E8048D308E
:102E200071F38091E8048F3051F38091E804883089
:102E300031F314C080919404882309F58091D00463
:102E40008431E8F48091E8048D3059F18091E804F0
:102E50008F3039F18091E804883089F18091E8045D
:102E60000E9449138091D0046091E80490E08F5B48
:102E70009F4F0E944E0C8091D0048F5F25C080919F
:102E80009404882309F0BBCF8091D004843108F4E6
:102E9000B6CF8091E8048D3021F08091E8048F3026
:102EA00049F48CE00E94F1128091D004853008F43E
:102EB00047CF0DC08091E804883009F0A0CF0E9470
:102EC000A6148091D00481508093D00498CF81E1E2
:102ED00090E060E00E944E0C6091D00484E190E0AC
:102EE0000E944E0C08950E94411381E065E00E940B
:102EF0001D138AE191E00E94451482E061E00E9486
:102F00001D1388ED90E00E94451484E06FE00E945C
:102F1000651384E060E10E941D138AEE90E00E9438
:102F2000451483E061E00E941D138EE00E94F112BF
:102F30001092CF048091CF04882309F457C00E94D7
:102F4000411387E291E00E94451482E061E00E9413
:102F50001D1381E091E00E94451486E30E9449130D
:102F60008CE091E00E94451484E061E00E946513CA
:102F700084E062E00E941D1382E191E00E9445140A
:102F800088EE94E00E941409809394048091940444
:102F90008823B1F78091E8048D3021F08091E80416
:102FA0008F3071F70E94411381E063E00E941D138E
:102FB00088E391E00E94451482E061E00E941D13C5
:102FC00088ED90E00E94451484E06FE00E94651354
:102FD00084E060E10E941D138AEE90E00E94451497
:102FE00083E061E00E941D131092CF0488EE94E00C
:102FF0000E9414098093940480919404882389F496
:103000008091CF04882369F48091E8048D3071F3B6
:103010008091E8048F3051F38091E804883031F3D7
:1030200014C080919404882301F58091CF048431E9
:10303000E0F48091E8048D3051F18091E8048F3004
:1030400031F18091E804883081F18091E8040E9498
:1030500049138091CF046091E80490E081960E942A
:103060004E0C8091CF048F5F25C0809194048823FB
:1030700009F0BCCF8091CF04843108F4B7CF8091A0
:10308000E8048D3021F08091E8048F3049F48CE021
:103090000E94F1128091CF04863008F44BCF0DC00E
:1030A0008091E804883009F0A1CF0E94A614809195
:1030B000CF0481508093CF0499CF80E190E060E00D
:1030C0000E944E0C6091CF0483E190E00E944E0C70
:1030D0000895FF920F931F9383E190E00E94560C96
:1030E0008093CF0484E190E00E94560C8093D0043A
:1030F00082E190E00E94560C8F3F31F082E190E037
:103100000E94560C8093910480E190E00E94560C3E
:103110008F3F89F488E491E00E94451488E893E1A8
:1031200028EC30E0F9013197F1F70197D9F70E94C7
:1031300041130E94731781E190E00E94560C8F3F6B
:1031400099F40E9480160E94411387E591E00E9445
:10315000451488E59BE128EC30E0F9013197F1F75F
:103160000197D9F70E94411380919104882311F4AB
:103170000E94B014FF240BC00F2D10E0C8018196EF
:103180000E94560C07511B4FF8018083F3948091E5
:10319000CF04F81688F31F910F91FF9008958AE6E7
:1031A00091E00E9445148BE791E00E94451481E96B
:1031B00091E00E94451488EE94E00E9414098093E7
:1031C0009404809194048823C9F48091E8048133A5
:1031D00029F0823339F08830E1F40CC08091AA04E0
:1031E000846003C08091AA048B7F8093AA0410920C
:1031F000D1040FC08DE00E94EE08F9CF80919404B5
:10320000843039F48091D1048091D1048F5F809310
:10321000D1048091E804883071F608958AE991E03C
:103220000E943F098DE00E94EE088BE791E00E942A
:103230003F098CEA91E00E943F098DE00E94EE0870
:1032400088EE94E00E941409809394048091940481
:103250008823B9F58091E804813329F0823331F075
:103260008830D1F50AC080E090E002C08AE590E0A5
:103270000E94C5101092D1042FC00E94411384EB0C
:1032800091E00E94451482E061E00E941D1384ECED
:1032900091E00E94451483E061E00E941D1383EDDC
:1032A00091E00E94451484E061E00E941D1382EECB
:1032B00091E00E9445148091AA04877F8093AA041C
:1032C0000BC080919404843039F48091D1048091B2
:1032D000D1048F5F8093D1048091E804883009F095
:1032E000AFCF089581EF91E00E943F098DE00E94E9
:1032F000EE088AEF91E00E943F098DE00E94EE08FF
:103300008DE092E00E943F098DE00E94EE0880E28D
:1033100092E00E943F098DE00E94EE088EE392E069
:103320000E943F098DE00E94EE0888EE94E00E9422
:1033300014098093940480919404882309F05BC05D
:103340008091E8048233D1F0833338F4883009F473
:103350004CC0813309F05AC006C08333C1F08433B6
:1033600009F054C03FC08DE00E94EE0880E190E07B
:103370006FEF0E944E0C0E9473171AC08DE00E94DE
:10338000EE0881E190E06FEF0E944E0C0FC08DE0DF
:103390000E94EE0880E190E06FEF0E944E0C81E108
:1033A00090E06FEF0E944E0C0E9473170E948016EF
:1033B00081EF91E00E943F098DE00E94EE088AEFC4
:1033C00091E00E943F098DE00E94EE088DE092E0BE
:1033D0000E943F098DE00E94EE0882E592E00E9483
:1033E0003F0903C00E94CF1811C08DE00E94EE0873
:1033F0001092D1040BC080919404843039F48091F0
:10340000D1048091D1048F5F8093D1048091E8042E
:10341000883009F08ACF08951F93CF93DF9380E718
:1034200092E00E9445148FE792E00E94451485E9DE
:1034300092E00E94451480EA92E00E94451486EBD7
:1034400092E00E94451481EC92E00E944514809124
:10345000AA0484608093AA048CEC92E00E94451434
:1034600011E0C8ECD0E088EE94E00E94140980934B
:10347000940480919404882309F077C08091E80433
:10348000833379F1843340F4813361F08233E0F4A3
:10349000883009F075C04EC0843381F1853309F05E
:1034A0006FC039C01092D10480E00E94AE0A88EE4D
:1034B00093E0FE013197F1F70197D9F780E00E9480
:1034C000BE0A1092D2045CC01092D1048091D20442
:1034D000882329F484E00E94BE0A1093D2048FE36B
:1034E00026C01092D1048091D204882329F484E06C
:1034F0000E94BE0A1093D2048EE719C01092D10424
:103500008091D204882329F484E00E94BE0A10939B
:10351000D2048DEB0CC01092D1048091D204882388
:1035200029F484E00E94BE0A1093D2048FEF0E9417
:10353000AE0A26C01092D10484EB91E00E9445149B
:1035400088EE92E00E94451483ED91E00E944514BC
:103550008EEF92E00E94451484E193E00E944514AE
:1035600080E293E00E9445140BC080919404843063
:1035700039F48091D1048091D1048F5F8093D1047C
:103580008091E804883009F06ECFDF91CF911F91D0
:1035900008951F930E94411384EB91E00E9445140B
:1035A00082E061E00E941D1384EC91E00E944514CA
:1035B00083E061E00E941D1383ED91E00E944514B9
:1035C00084E061E00E941D1382EE91E00E944514A8
:1035D0001FEF1093E80488EE94E00E941409809392
:1035E000940480919404882309F099C08091E804A0
:1035F000833339F1843358F4813389F08233C0F452
:10360000883009F484C0803309F094C036C0853313
:1036100041F1853308F1863309F08CC027C0109240
:10362000D1046091A1047091A2048091A30411C0FF
:103630001092D1046091A4047091A5048091A60415
:1036400008C01092D1046091A7047091A8048091E1
:10365000A9040E9495116EC01092D1040E940C1A08
:1036600009C01092D1040E940E1904C01092D10416
:103670000E9472191093E8045DC08091AA0483FD32
:1036800022C00E94411384EB91E00E94451482E025
:1036900061E00E941D1384E193E00E94451483E0E1
:1036A00061E00E941D1380E393E00E94451484E0D2
:1036B00061E00E941D138DE393E00E944514809108
:1036C000AA04886021C00E94411384EB91E00E940B
:1036D000451482E061E00E941D1384EC91E00E9499
:1036E000451483E061E00E941D1383ED91E00E9488
:1036F000451484E061E00E941D1382EE91E00E9477
:1037000045148091AA04877F8093AA0413C0109265
:10371000D1040E9441138091AA048160F5CF809169
:103720009404843039F48091D1048091D1048F5F66
:103730008093D1048091E804883009F04ACF1F912A
:1037400008950F931F93CF93DF9382E06FEF0E9452
:10375000510E83E06EEF0E94510E81E060E041E087
:103760000E945B0C81E061E041E00E945B0C0E94E2
:1037700058140E94660F0E94E0080E94691883E0B6
:1037800065E041E00E945B0C0E94560A83E067E01E
:1037900041E00E945B0C0E948C0A0E94E7108AE5BF
:1037A00090E00E94C51004E110E0C8ECD0E08091E8
:1037B000AA0480FF42C01092D10482608093AA04C0
:1037C0008DE493E00E94451488EE94E00E94140971
:1037D00080939404809194048823B1F78091E80445
:1037E0008D3091F70E94411382E067E00E941D1323
:1037F00088E693E00E9445148091CF049801281B2D
:103800003109C90162E070E00E94511C6F5F83E0E2
:103810000E941D1389EE94E00E94451480E197E216
:10382000FE013197F1F70197D9F78091AA048E7FB5
:103830008093AA040E94C91ABACFFFCF629FD00119
:10384000739FF001829FE00DF11D649FE00DF11D5B
:10385000929FF00D839FF00D749FF00D659FF00D0A
:103860009927729FB00DE11DF91F639FB00DE11DF7
:10387000F91FBD01CF0111240895AA1BBB1B51E103
:1038800007C0AA1FBB1FA617B70710F0A61BB70BD0
:10389000881F991F5A95A9F780959095BC01CD0175
:1038A000089597FB092E07260AD077FD04D0E5DF9F
:1038B00006D000201AF4709561957F4F0895F6F7B1
:1038C000909581959F4F0895A1E21A2EAA1BBB1BCC
:1038D000FD010DC0AA1FBB1FEE1FFF1FA217B307DC
:1038E000E407F50720F0A21BB30BE40BF50B661FF2
:1038F000771F881F991F1A9469F7609570958095B6
:1039000090959B01AC01BD01CF01089597FB092E55
:1039100005260ED057FD04D0D7DF0AD0001C38F49E
:1039200050954095309521953F4F4F4F5F4F0895EB
:10393000F6F790958095709561957F4F8F4F9F4FCB
:1039400008952F923F924F925F926F927F928F9243
:103950009F92AF92BF92CF92DF92EF92FF920F931E
:103960001F93CF93DF93CDB7DEB7CA1BDB0B0FB628
:10397000F894DEBF0FBECDBF09942A8839884888E5
:103980005F846E847D848C849B84AA84B984C8847B
:10399000DF80EE80FD800C811B81AA81B981CE0F72
:1039A000D11D0FB6F894DEBF0FBECDBFED01089557
:0439B000F894FFCFB9
:1039B40054696D65206F7574203A20200043686552
:1039C400636B2050617373576F726400436865635F
:1039D4006B20557365724E616D6500496E76616C3E
:1039E400696420557365726E616D65006F72205055
:1039F400617373776F7264005472696573204C65E8
:103A04006674203A20005375636365737366756C3E
:103A14006C79005369676E20696E00536574205099
:103A2400617373576F7264004D6178696D756D20B1
:103A340063686172203A20323000203A204F4B00F4
:103A440050617373576F7264204D7573742062658F
:103A5400004D6F7265207468616E200020436861B8
:103A64007200203A204578697400536574205573B8
:103A740065724E616D6500557365724E616D6520AA
:103A84004D7573742062650052652053657420552A
:103A94007365724E616D6500506C6561736520538A
:103AA40069676E20557000536176656420537563B1
:103AB4006365737366756C6C79004175746F204629
:103AC400616E20436F6E74726F6C00312D204F70E5
:103AD400656E20202020202020202020202020204F
:103AE40000322D20436C6F736500526563657074FA
:103AF400696F6E20446F6F72203A2000322D204C83
:103B04006F636B00526F6F6D204F7074696F6E73CB
:103B1400203A2000312D204C656431204F4E2F4F28
:103B2400464600322D204C656432204F4E2F4F46BE
:103B34004600332D204C656433204F4E2F4F4646AC
:103B44000053657474696E673A00312D20436861CF
:103B54006E676520557365724E616D6500322D2068
:103B64004368616E67652050617373576F726400B8
:103B7400332D204368616E676520557365724E610D
:103B84006D6520262050617373576F726400342D65
:103B9400204175746F2046616E20436F6E74726F9E
:103BA4006C00322D204368616E6765205573657221
:103BB4004E616D6520262050617373576F726400E7
:103BC40046616E20436F6E74726F6C203A20003130
:103BD4002D2046616E204F66662020202020202064
:103BE4002020202000322D20537065656420310090
:103BF400332D20537065656420322020202020203E
:103C0400202020202000342D20537065656420334B
:103C140000352D2053706565642034004175746F40
:103C24002046616E20436F6E74726F6C206973203E
:103C3400456E61626C656400312D204C65643120F1
:103C44004F4E2F4F46462020202020202000332D89
:103C5400204C656433204F4E2F4F464620202020B1
:103C640020202000342D20526F6F6D2046616E009D
:103C7400352D20526F6F6D2053657474696E670023
:103C8400352D20526F6F6D20446F6F7200362D20DA
:103C9400526F6F6D2053657474696E67005072655E
:103CA400737320656E74657220746F206F70656E17
:103CB4002073797374656D0057656C636F6D65204F
:103CC40000000000000000000000010202030303E2
:103CD400030404040404040404050505050505059A
:103CE4000505050505050505050606060606060679
:103CF4000606060606060606060606060606060660
:103D04000606060606060606060707070707070748
:103D1400070707070707070707070707070707072F
:103D2400070707070707070707070707070707071F
:103D3400070707070707070707070707070707070F
:103D440007070707070707070708080808080808F8
:103D540008080808080808080808080808080808DF
:103D640008080808080808080808080808080808CF
:103D740008080808080808080808080808080808BF
:103D840008080808080808080808080808080808AF
:103D9400080808080808080808080808080808089F
:103DA400080808080808080808080808080808088F
:103DB400080808080808080808080808080808087F
:103DC4000808080808080808083738392F34353631
:103DD4002A3132332D3F303D2B00010101091F08E8
:103DE40000030101010005000105000205000305AF
:0C3DF400000205010206010207010300A5
:00000001FF
