:100000000C942A000C94400D0C946C0D0C94980DDB
:100010000C942C0C0C94030C0C94DA0B0C94B10B78
:100020000C94880B0C945F0B0C94360B0C940D0BFA
:100030000C9447000C94C5090C9447000C94040AD6
:100040000C94D0110C9447000C9447000C9447007A
:100050000C94470011241FBECFE5D8E0DEBFCDBF12
:1000600015E0A0E6B0E0E2E8F1E402C005900D92F0
:10007000AE31B107D9F715E0AEE1B5E001C01D9290
:10008000A837B107E1F70E946E1F0C94BF200C94B3
:100090000000EF92FF920F931F937B018C0120E0F1
:1000A00030E040E05FE40E94E10488238CF0C80166
:1000B000B70120E030E040E05FE40E94DD020E94F2
:1000C0009F059B01AC01205030404040504806C085
:1000D000C801B7010E949F059B01AC01B901CA018B
:1000E0001F910F91FF90EF900895EF92FF920F9361
:1000F0001F937B018C0120E030E040E050E00E9443
:10010000110588230CF05CC0C801B70190580E940B
:10011000E9002195E1E0121608F0E0E03195F1E008
:10012000131608F0F0E0E32EEE1AE1E03E1508F0B9
:10013000E0E0FE2B4195A1E0141608F0A0E0F42EBB
:10014000FF1AE1E04F1508F0E0E0AE2B5195F1E029
:10015000151608F0F0E0052F0A1BE1E0501708F033
:10016000E0E0FE2B6195A1E0161608F0A0E0162F46
:100170001F1BE1E0611708F0E0E0AE2B7195F1E0A4
:10018000171608F0F0E0B72FBA1BE1E07B1708F074
:10019000E0E0FE2B8195A1E0181608F0A0E0382FD2
:1001A0003F1BF32FE1E0831708F0E0E0AE2B9195C1
:1001B0003E2D4F2D502F612F7B2F8F2F9A1B04C068
:1001C000C801B7010E94E9001F910F91FF90EF90C5
:1001D0000895A0E0B0E0EFEEF0E00C9488207B0101
:1001E0008C0120E030E040E85FE30E9411058823A5
:1001F0004CF4AA24BB24CC24DD24EE24FF2400E00C
:1002000010E086C0C801B70120E030E040E85FE4BC
:100210000E941105882354F4C801B7010E944900C7
:100220005B016C01EE24FF24870172C0C801B70195
:1002300020E030E040E85FE50E94110587FD0FC037
:10024000AA24AA94BB24BA94CC24CA94DD24DA94B8
:10025000EE24EA94FF24FA940FEF1FEF59C0C8016F
:10026000B70120E030E040E85FE20E943B037B0101
:100270008C0122243324210190E1A92EB12CC12C20
:10028000D12CC0E0D0E061E070E080E090E00A2C8A
:1002900004C0660F771F881F991F0A94D2F70E9427
:1002A000F3053B014C01C801B701A40193010E9471
:1002B000E104882364F02A283B284C285D28C801E3
:1002C000B701A40193010E9435047B018C01D694EF
:1002D000C794B794A7942196C530D105A1F6C8015B
:1002E000B70120E030E040E85FE40E943B030E9459
:1002F00049005B016C019B01A60160E070E080E0B9
:1003000090E0022D0E946C0659016A017B018C016C
:100310009501A601B701C801CDB7DEB7E2E10C94A3
:10032000A420A0E0B0E0E7E9F1E00C948820DC0133
:100330002B01FA019C91923008F439C1EB018881BC
:10034000823008F433C1943069F4843009F02FC14D
:1003500011969C9111978981981709F428C1A4EEF0
:10036000B3E025C1843009F421C18230A9F4923070
:1003700009F01DC19A01AD0188E0EA010990AE01C2
:10038000E90109929E018150C1F7E201898111962C
:100390009C918923818308C1923009F407C1129688
:1003A0002D903C901397EB018A819B811496AD9020
:1003B000BD90CD90DC901797EC80FD800E811F8161
:1003C0009101281B390BB90137FF04C06627772735
:1003D000621B730B603271050CF061C012161306BC
:1003E0006CF537014801062E04C0969487947794E3
:1003F00067940A94D2F721E030E040E050E004C076
:10040000220F331F441F551F6A95D2F721503040E9
:10041000404050402E213F214023512321153105DA
:100420004105510521F021E030E040E050E0790144
:100430008A01E628F728082919293CC0232BD1F185
:10044000260E371E35014601062E04C09694879469
:10045000779467940A94D2F721E030E040E050E0CE
:1004600004C0220F331F441F551F6A95D2F7215035
:100470003040404050402A213B214C215D21211534
:1004800031054105510521F021E030E040E050E028
:1004900059016A01A628B728C828D9280BC0821597
:1004A00093052CF01C01AA24BB24650103C0EE2493
:1004B000FF24870111969C91D20111968C91981777
:1004C00009F445C0992339F0A80197012A193B097D
:1004D0004C095D0906C0A60195012E193F09400B84
:1004E000510B57FD08C01182338222822483358349
:1004F000468357831DC081E081833382228288270F
:100500009927DC01821B930BA40BB50B8483958385
:10051000A683B7830DC0220F331F441F551F2483AA
:1005200035834683578382819381019793838283A6
:100530002481358146815781DA01C9010197A109DA
:10054000B1098F5F9F4FAF4FBF4328F30BC091831B
:1005500033822282EA0CFB1C0C1D1D1DE482F582F5
:100560000683178383E08083248135814681578108
:1005700057FF1AC0C901AA2797FDA095BA2F81700D
:100580009070A070B0705695479537952795822B3F
:10059000932BA42BB52B84839583A683B783828169
:1005A0009381019693838283DF0101C0D201CD0143
:1005B000CDB7DEB7E2E10C94A420A0E2B0E0E3EE18
:1005C000F2E00C94942069837A838B839C832D833F
:1005D0003E834F835887E9E0EE2EF12CEC0EFD1E92
:1005E000CE010196B7010E940F088E010F5E1F4FCA
:1005F000CE010596B8010E940F088A8991E08927EB
:100600008A8BC701B801AE01475E5F4F0E9491011E
:100610000E943A07A096E6E00C94B020A0E2B0E079
:10062000E4E1F3E00C94942069837A838B839C83C8
:100630002D833E834F835887F9E0EF2EF12CEC0E8B
:10064000FD1ECE010196B7010E940F088E010F5EBC
:100650001F4FCE010596B8010E940F08C701B801CF
:10066000AE01475E5F4F0E9491010E943A07A0963B
:10067000E6E00C94B020A0E2B0E0E1E4F3E00C94FA
:10068000882069837A838B839C832D833E834F8369
:100690005887CE010196BE01675F7F4F0E940F0809
:1006A000CE010596BE016F5E7F4F0E940F089985AF
:1006B000923088F089898230C8F0943019F4823001
:1006C00051F404C0843029F4923081F484EE93E034
:1006D000C6C0923049F420E09A858A89981321E0B7
:1006E0002A87CE010996BBC0823049F420E09A8562
:1006F0008A89981321E02A8BCE014196B0C02D84BF
:100700003E844F8458886D887E888F88988CEE242C
:10071000FF248701AA24BB24650140E050E060E08B
:1007200070E0E0E0F0E0C10181709070892BE9F0A9
:10073000E60CF71C081D191D9A01AB012A0D3B1D83
:100740004C1D5D1D80E090E0A0E0B0E0E614F704F1
:100750000805190520F481E090E0A0E0B0E0BA01BE
:10076000A901480F591F6A1F7B1FAA0CBB1CCC1C78
:10077000DD1C97FE08C081E090E0A0E0B0E0A82A70
:10078000B92ACA2ADB2A3196E032F10549F0660C13
:10079000771C881C991C5694479437942794C3CF90
:1007A000FA85EA892B893C898B859C85280F391F1E
:1007B0002E5F3F4F17C0CA0181709070892B61F086
:1007C00016950795F794E79480E090E0A0E0B0E8F4
:1007D000E82AF92A0A2B1B2B76956795579547959A
:1007E0002F5F3F4F77FDE7CF0CC0440F551F661FAB
:1007F000771F17FD4160EE0CFF1C001F111F2150D9
:100800003040403090E0590790E0690790E4790764
:1008100060F32B8F3C8FDB01CA018F779070A07043
:10082000B07080349105A105B10561F447FD0AC09F
:10083000E114F1040105110529F0405C5F4F6F4F91
:100840007F4F40781A8EFE1711F081E08A8F4D8F0E
:100850005E8F6F8F78A383E0898FCE0149960E94C7
:100860003A07A096E2E10C94A420A8E1B0E0EBE303
:10087000F4E00C94902069837A838B839C832D838E
:100880003E834F835887B9E0EB2EF12CEC0EFD1E12
:10089000CE010196B7010E940F088E010F5E1F4F17
:1008A000CE010596B8010E940F082985223008F470
:1008B0007EC03989323010F4B8017CC08A859A89AB
:1008C00089278A87243011F0223031F4231709F068
:1008D0006EC064EE73E06EC0343039F41D861E863F
:1008E0001F86188A1C861B8604C0323021F484E0DF
:1008F0008987B7015FC02B853C858B899C89281B24
:10090000390B3C872B87ED84FE840F851889AD88D1
:10091000BE88CF88D88CEA14FB040C051D0540F472
:10092000EE0CFF1C001F111F215030403C872B870D
:1009300020E030E040E050E080E090E0A0E0B0E473
:1009400060E070E0EA14FB040C051D0540F0282B64
:10095000392B4A2B5B2BEA18FB080C091D09B695AD
:10096000A79597958795EE0CFF1C001F111F6F5FD1
:100970007F4F6F31710531F7DA01C9018F779070C0
:10098000A070B07080349105A105B10561F427FD18
:100990000AC0E114F1040105110529F0205C3F4F64
:1009A0004F4F5F4F20782D873E874F87588BBE0172
:1009B000675F7F4FCB010E943A076896EAE00C948C
:1009C000AC20A8E1B0E0E7EEF4E00C949420698359
:1009D0007A838B839C832D833E834F83588789E062
:1009E000E82EF12CEC0EFD1ECE010196B7010E94FF
:1009F0000F088E010F5E1F4FCE010596B8010E94B1
:100A00000F088985823040F08989823028F0C7013B
:100A1000B8010E94870801C08FEF6896E6E00C9449
:100A2000B020A8E1B0E0E7E1F5E00C949420698300
:100A30007A838B839C832D833E834F83588789E001
:100A4000E82EF12CEC0EFD1ECE010196B7010E949E
:100A50000F088E010F5E1F4FCE010596B8010E9450
:100A60000F088985823040F08989823028F0C701DB
:100A7000B8010E94870801C081E06896E6E00C9406
:100A8000B020A8E0B0E0E7E4F5E00C9491209B01F1
:100A9000AC0183E08983DA01C9018827B7FD83951A
:100AA0009927AA27BB27B82E2115310541055105E5
:100AB00019F482E089833AC08823A9F0203080E0CD
:100AC000380780E0480780E8580729F460E070E0C4
:100AD00080E09FEC30C0EE24FF248701E21AF30A85
:100AE000040B150B02C079018A018EE1C82ED12CAE
:100AF000DC82CB82ED82FE820F831887C801B701AA
:100B00000E94EB0601971816190684F4082E04C0FB
:100B1000EE0CFF1C001F111F0A94D2F7ED82FE821B
:100B20000F831887C81AD90ADC82CB82BA82CE0119
:100B300001960E943A072896E9E00C94AD20ACE0BB
:100B4000B0E0E5EAF5E00C94982069837A838B8322
:100B50009C83CE010196BE016B5F7F4F0E940F0800
:100B60008D81823061F1823050F1843021F48E81A8
:100B7000882351F12EC02F81388537FD20C06E812A
:100B80002F3131051CF06623F9F023C08EE190E08F
:100B9000821B930B29853A854B855C8504C056954D
:100BA0004795379527958A95D2F76623B1F05095EA
:100BB0004095309521953F4F4F4F5F4F0EC020E03D
:100BC00030E040E050E009C02FEF3FEF4FEF5FE72C
:100BD00004C020E030E040E050E8B901CA012C96A2
:100BE000E2E00C94B420A8E0B0E0E9EFF5E00C946A
:100BF00090207B018C01611571058105910519F427
:100C000082E0898360C083E089838EE1C82ED12C85
:100C1000DC82CB82ED82FE820F831887C801B70188
:100C20000E94EB06FC013197F7FF3BC022273327D8
:100C30002E1B3F0B57016801022E04C0D694C794A7
:100C4000B794A7940A94D2F740E050E060E070E0D7
:100C500081E090E0A0E0B0E004C0880F991FAA1FD7
:100C6000BB1F2A95D2F70197A109B1098E219F21B7
:100C7000A023B1230097A105B10521F041E050E088
:100C800060E070E04A295B296C297D294D835E83F1
:100C90006F8378878EE190E08E1B9F0B9C838B8304
:100CA00012C0309781F00E2E04C0EE0CFF1C001F06
:100CB000111F0A94D2F7ED82FE820F831887CE1A95
:100CC000DF0ADC82CB821A82CE0101960E943A07AB
:100CD0002896EAE00C94AC20EF92FF920F93DF93FA
:100CE000CF93CDB7DEB760970FB6F894DEBF0FBED7
:100CF000CDBFA82F002309F461C07E010894E11C38
:100D0000F11C88E0F70111928A95E9F729833A836B
:100D10004B835C836D837E83AF83988780E2801BE7
:100D2000E82FFF27E7FDF09549815A816B817C818F
:100D3000181684F019861A861B861C868827992720
:100D40008E1B9F0B04C0440F551F661F771F8A958B
:100D5000D2F728C0202F332727FD3095DB01CA01A9
:100D6000022E04C0880F991FAA1FBB1F0A94D2F736
:100D700089879A87AB87BC8704C076956795579516
:100D80004795EA95D2F78D819E81AF81B88504C0E1
:100D9000880F991FAA1FBB1F2A95D2F7482B592BE2
:100DA0006A2B7B2B4D875E876F87788B29853A85E9
:100DB0004B855C856D857E85AF8598898A2F609689
:100DC0000FB6F894DEBF0FBECDBFCF91DF910F916C
:100DD000FF90EF900895EF92FF920F931F937B0186
:100DE0008C0180E0E81680E0F80681E0080780E0EA
:100DF000180788F48FEFE816F1040105110531F0AA
:100E000028F088E090E0A0E0B0E017C080E090E03B
:100E1000A0E0B0E012C080E0E81680E0F80680E0D4
:100E2000080781E0180728F088E190E0A0E0B0E032
:100E300004C080E190E0A0E0B0E020E230E040E0DB
:100E400050E0281B390B4A0B5B0B04C01695079525
:100E5000F794E7948A95D2F7F701E451FC4F80812B
:100E6000281B310941095109C9011F910F91FF90B8
:100E7000EF900895DF92EF92FF920F931F93FC0182
:100E8000E480F58006811781D1808081823048F42A
:100E900080E090E0A0E1B0E0E82AF92A0A2B1B2BC1
:100EA000A5C0843009F49FC0823021F4EE24FF24D1
:100EB000870105C0E114F1040105110519F4E0E012
:100EC000F0E096C0628173819FEF623879070CF081
:100ED0005BC022E83FEF261B370B2A3131052CF08F
:100EE00020E030E040E050E02AC0B801A701022E27
:100EF00004C076956795579547950A94D2F781E097
:100F000090E0A0E0B0E004C0880F991FAA1FBB1FAB
:100F10002A95D2F70197A109B1098E219F21A0231B
:100F2000B1230097A105B10521F081E090E0A0E098
:100F3000B0E09A01AB01282B392B4A2B5B2BDA014D
:100F4000C9018F779070A070B07080349105A105B1
:100F5000B10539F427FF09C0205C3F4F4F4F5F4F69
:100F600004C0215C3F4F4F4F5F4FE0E0F0E0203086
:100F7000A0E03A07A0E04A07A0E45A0710F0E1E039
:100F8000F0E079018A0127C06038710564F5FB0142
:100F9000E158FF4FD801C7018F779070A070B070F3
:100FA00080349105A105B10539F4E7FE0DC080E458
:100FB00090E0A0E0B0E004C08FE390E0A0E0B0E0FB
:100FC000E80EF91E0A1F1B1F17FF05C0169507958F
:100FD000F794E794319687E016950795F794E79490
:100FE0008A95D1F705C0EE24FF248701EFEFF0E0EA
:100FF0006E2F679566276795902F9F77D794DD248E
:10100000D7948E2F8695492F462B582F5D29B701EF
:10101000CA011F910F91FF90EF90DF900895FC019E
:10102000DB01408151812281622F6F7770E0221FA6
:101030002227221F9381892F880F822B282F30E0AF
:10104000991F9927991F11969C9311972115310586
:10105000A9F5411551056105710511F482E037C00C
:1010600082E89FEF13969C938E9312979A01AB019F
:1010700067E0220F331F441F551F6A95D1F783E0A5
:101080008C930DC0220F331F441F551F12968D9154
:101090009C911397019713969C938E9312972030EF
:1010A00080E0380780E0480780E4580758F314963A
:1010B0002D933D934D935C93179708952F3F3105E2
:1010C00079F4411551056105710519F484E08C939B
:1010D000089564FF03C081E08C9312C01C9210C07D
:1010E0002F57304013963C932E93129783E08C93A6
:1010F00087E0440F551F661F771F8A95D1F77064EC
:1011000014964D935D936D937C93179708951F9359
:10111000DC01FB019C91923008F447C08081823051
:1011200008F443C0943051F411961C91843099F521
:101130008181682F70E0611B71093FC0843021F00C
:10114000923031F48230B9F18181882389F12DC048
:1011500011961C9111978230F1F081811817D9F402
:1011600012962D913C911397828193818217930758
:1011700094F028173907BCF014968D919D910D902D
:10118000BC91A02D248135814681578128173907CC
:101190004A075B0718F4112341F00AC0821793072E
:1011A000A407B50740F4112319F061E070E005C011
:1011B0006FEF7FEF02C060E070E0CB011F910895F8
:1011C000599810BC83E389B95898529886E880BD35
:1011D000579856985598549A539A0895282F809165
:1011E0002005882311F083E0089580E090E0A0E0DE
:1011F000B0E003C00196A11DB11D5D9909C0803109
:1012000037E2930730E0A30730E0B30799F708C04F
:1012100080519742A040B04019F02CB980E001C045
:1012200084E0109220050895FC01009711F482E0FB
:10123000089580912005882311F083E0089580E0CF
:1012400090E0A0E0B0E003C00196A11DB11D5F9940
:1012500009C0803127E2920720E0A20720E0B20710
:1012600099F709C080519742A040B04021F08CB15D
:10127000808380E001C084E0109220050895CF9320
:10128000DF93009711F482E00AC0EC0105C00E94D0
:10129000EE082196882319F488818823C1F7DF910D
:1012A000CF910895FC0180912005882311F083E0FF
:1012B00008953097A9F06115710591F081E0809350
:1012C0002005F0931F05E0931E057093220560939F
:1012D00021051092260580818CB9569A80E00895E8
:1012E00082E00895AF92BF92CF92DF92EF92FF9289
:1012F0000F931F93CF93DF93EC015A016B0100977B
:1013000011F482E016C0EE24FF2487010CC0CE0148
:101310008E0D9F1D0E941409882359F40894E11C26
:10132000F11C011D111DEA14FB040C051D0578F3C9
:1013300080E0DF91CF911F910F91FF90EF90DF90B0
:10134000CF90BF90AF900895BC0180912005882375
:1013500011F083E0089561157105A9F0211531059B
:1013600091F081E08093200570932405609323051C
:1013700030932205209321054093250510922605E0
:10138000579A80E0089582E008951F920F920FB659
:101390000F9211242F933F934F935F936F937F93FB
:1013A0008F939F93AF93BF93EF93FF9390912605F5
:1013B0008CB1E0912305F0912405E90FF11D8083A4
:1013C0009F5F9093260580912505981761F41092F0
:1013D000260510922005E0912105F0912205309715
:1013E00009F009955798FF91EF91BF91AF919F91A7
:1013F0008F917F916F915F914F913F912F910F90BE
:101400000FBE0F901F9018951F920F920FB60F925C
:1014100011242F933F934F935F936F937F938F93F9
:101420009F93AF93BF93EF93FF93809126058F5FB8
:1014300080932605E0911E05F0911F05E80FF11D30
:10144000E081EE2369F41092260510922005E091C8
:101450002105F0912205309709F00995569801C0B1
:10146000ECB9FF91EF91BF91AF919F918F917F91D7
:101470006F915F914F913F912F910F900FBE0F9001
:101480001F90189583B7806483BF83B7886083BF3C
:1014900083B78F7E83BF83B7806283BF1CBE83B751
:1014A000887F83BF83B783BF08958FB58E7F8FBD3D
:1014B0008FB582608FBD8EB588608EBD8EB5806120
:1014C0008EBD1BBC1ABC19BC18BC80E29EE497BD43
:1014D00086BD8EB580648EBD8FB58F7B8FBD8FB579
:1014E00080688FBD8FB58F7E8FBD8FB580628FBDB9
:1014F00089B78B7F89BF89B78F7E89BF89B7877F7F
:1015000089BF89B78F7D89BF8EB5887F8EBD8EB527
:1015100082608EBD089582B5886082BD85B58F7B5F
:1015200085BD85B5877F85BD14BC89B7806489BFBB
:1015300085B5887F85BD85B5856085BD089582BFE9
:1015400008959DBD8CBD089584BD08958CBF0895F8
:101550009BBD8ABD089599BD88BD089583BD08953A
:1015600097BD86BD089582B708952CB53DB5C901D4
:10157000089584B508959BBD8ABD089595B5987F5B
:1015800095BD95B5982B95BD089593B7987F93BF5A
:1015900093B7982B93BF08958EB580648EBD89B79D
:1015A000806289BF0895813029F48EB580648EBD34
:1015B00080E00895882311F081E008958EB58F7B37
:1015C0008EBD80E0089589B7806289BF089589B78C
:1015D0008F7D89BF089526B537B5C901089581B5B6
:1015E000887F81BD81B5866081BD089581B58860A1
:1015F00081BD089581B5886181BD11BC08950097B2
:1016000011F482E00895E62FF0E0EE0FFF1FE95D90
:10161000FA4F9183808380E008951F920F920FB656
:101620000F9211242F933F934F935F936F937F9368
:101630008F939F93AF93BF93EF93FF93E0913D05FB
:10164000F0913E05309709F00995FF91EF91BF9118
:10165000AF919F918F917F916F915F914F913F914A
:101660002F910F900FBE0F901F9018951F920F9201
:101670000FB60F9211242F933F934F935F936F9365
:101680007F938F939F93AF93BF93EF93FF93E091DB
:101690003B05F0913C05309709F00995FF91EF91DA
:1016A000BF91AF919F918F917F916F915F914F917A
:1016B0003F912F910F900FBE0F901F9018951F9282
:1016C0000F920FB60F9211242F933F934F935F9376
:1016D0006F937F938F939F93AF93BF93EF93FF93FA
:1016E000E0913905F0913A05309709F00995FF919D
:1016F000EF91BF91AF919F918F917F916F915F918A
:101700004F913F912F910F900FBE0F901F90189502
:101710001F920F920FB60F9211242F933F934F9366
:101720005F936F937F938F939F93AF93BF93EF9349
:10173000FF93E0913705F0913805309709F009954E
:10174000FF91EF91BF91AF919F918F917F916F9199
:101750005F914F913F912F910F900FBE0F901F906F
:1017600018951F920F920FB60F9211242F933F934B
:101770004F935F936F937F938F939F93AF93BF9399
:10178000EF93FF93E0913505F0913605309709F01E
:101790000995FF91EF91BF91AF919F918F917F91AB
:1017A0006F915F914F913F912F910F900FBE0F90CE
:1017B0001F9018951F920F920FB60F9211242F931E
:1017C0003F934F935F936F937F938F939F93AF93C9
:1017D000BF93EF93FF93E0913305F0913405309779
:1017E00009F00995FF91EF91BF91AF919F918F9172
:1017F0007F916F915F914F913F912F910F900FBE0D
:101800000F901F9018951F920F920FB60F921124F0
:101810002F933F934F935F936F937F938F939F93F8
:10182000AF93BF93EF93FF93E0913105F0913205B1
:10183000309709F00995FF91EF91BF91AF919F917A
:101840008F917F916F915F914F913F912F910F9069
:101850000FBE0F901F9018951F920F920FB60F9208
:1018600011242F933F934F935F936F937F938F93A5
:101870009F93AF93BF93EF93FF93E0912F05F09168
:101880003005309709F00995FF91EF91BF91AF9125
:101890009F918F917F916F915F914F913F912F9188
:1018A0000F900FBE0F901F9018958FB780688FBF55
:1018B00008958FB78F778FBF089585B78E7F85BFC7
:1018C00085B7826085BF0895E82F762F862F8650D2
:1018D000823008F069C0770F7C50E13009F44CC0C9
:1018E000E130D0F1E23021F0E33009F05DC01BC0FF
:1018F00065B7472F50E021E030E0C901072E02C054
:10190000880F991F0A94E2F78095862385BF85B7D3
:101910004F5F5F4F02C0220F331F4A95E2F72095B9
:10192000282325BF41C065B7472F50E081E090E0F4
:101930009C01072E02C0220F331F0A94E2F7622B8C
:1019400065BF25B74F5F5F4F02C0880F991F4A954B
:10195000E2F78095822327C065B7272F30E041E06A
:1019600050E0CA01072E02C0880F991F0A94E2F7BF
:101970008095862385BF0EC065B7272F30E041E0F4
:1019800050E0CA01072E02C0880F991F0A94E2F79F
:10199000682B65BF85B72F5F3F4F02C0440F551FAF
:1019A0002A95E2F7842B85BF753061F4EE2319F098
:1019B000E13041F404C084B78F7B84BF089584B7BD
:1019C000806484BF0895382F8550833010F081E003
:1019D00008952BB781E090E002C0880F991F3A95D7
:1019E000E2F7809582238BBF80E00895382F8550E1
:1019F000833010F081E008952BB781E090E002C0C1
:101A0000880F991F3A95E2F7282B2BBF80E00895A5
:101A10009AB721E030E002C0220F331F8A95E2F727
:101A2000922B9ABF08954AB721E030E0082E02C0F9
:101A3000220F331F0A94E2F750E02423352302C01B
:101A4000359527958A95E2F7822F08950097B1F092
:101A5000663029F490933805809337050DC06730C0
:101A600029F490933A058093390506C0653031F426
:101A700090933C0580933B0580E0089581E00895B4
:101A80001F920F920FB60F9211242F933F934F93F3
:101A90005F936F937F938F939F93AF93BF93EF93D6
:101AA000FF93E0913705F0913805309721F00995C3
:101AB0008AB780648ABFFF91EF91BF91AF919F91E8
:101AC0008F917F916F915F914F913F912F910F90E7
:101AD0000FBE0F901F9018951F920F920FB60F9286
:101AE00011242F933F934F935F936F937F938F9323
:101AF0009F93AF93BF93EF93FF93E0913905F091DC
:101B00003A05309721F009958AB780688ABFFF911E
:101B1000EF91BF91AF919F918F917F916F915F9165
:101B20004F913F912F910F900FBE0F901F901895DE
:101B30001F920F920FB60F9211242F933F934F9342
:101B40005F936F937F938F939F93AF93BF93EF9325
:101B5000FF93E0913B05F0913C05309721F009950A
:101B60008AB780628ABFFF91EF91BF91AF919F9139
:101B70008F917F916F915F914F913F912F910F9036
:101B80000FBE0F901F9018959FBB8EBB6DBBE29A46
:101B9000E19AE199FECF08958EBB9FBBE09A8DB389
:101BA0000895843008F077C0683008F074C0413080
:101BB000B1F5813099F0813030F08230D1F083304E
:101BC00009F06BC021C02AB381E090E002C0880F09
:101BD000991F6A95E2F7282B2ABB5BC027B381E0E7
:101BE00090E002C0880F991F6A95E2F7282B27BB67
:101BF00050C024B381E090E002C0880F991F6A951D
:101C0000E2F7282B24BB45C021B381E090E002C05D
:101C1000880F991F6A95E2F7282B21BB3AC044230D
:101C2000D1F5813099F0813028F08230D9F08330BD
:101C3000A1F524C02AB381E090E002C0880F991F6B
:101C40006A95E2F7809582238ABB23C027B381E09F
:101C500090E002C0880F991F6A95E2F78095822371
:101C600087BB17C024B381E090E002C0880F991FA2
:101C70006A95E2F78095822384BB0BC021B381E093
:101C800090E002C0880F991F6A95E2F78095822341
:101C900081BB81E0089580E0089581E0089584305B
:101CA00008F077C0683008F074C04130B1F5813079
:101CB00099F0813030F08230D1F0833009F06BC080
:101CC00021C02BB381E090E002C0880F991F6A9574
:101CD000E2F7282B2BBB5BC028B381E090E002C069
:101CE000880F991F6A95E2F7282B28BB50C025B3AF
:101CF00081E090E002C0880F991F6A95E2F7282BD7
:101D000025BB45C022B381E090E002C0880F991F37
:101D10006A95E2F7282B22BB3AC04423D1F58130E3
:101D200099F0813028F08230D9F08330A1F524C0B9
:101D30002BB381E090E002C0880F991F6A95E2F70B
:101D4000809582238BBB23C028B381E090E002C042
:101D5000880F991F6A95E2F78095822388BB17C088
:101D600025B381E090E002C0880F991F6A95E2F7E1
:101D70008095822385BB0BC022B381E090E002C036
:101D8000880F991F6A95E2F78095822382BB81E0D4
:101D9000089580E0089581E00895FA01843028F5DF
:101DA000683018F5813049F0813028F0823039F000
:101DB0008330C9F406C029B305C026B303C023B3DA
:101DC00001C020B381E090E0062E02C0880F991F69
:101DD0000A94E2F730E08223932302C09595879519
:101DE0006A95E2F7808381E0089580E00895843069
:101DF000C0F56830B0F5813091F0813028F0823044
:101E0000C9F0833061F521C02BB381E090E002C0BE
:101E1000880F991F6A95E2F728272BBB20C028B3AB
:101E200081E090E002C0880F991F6A95E2F72827A9
:101E300028BB15C025B381E090E002C0880F991F30
:101E40006A95E2F7282725BB0AC022B381E090E01B
:101E500002C0880F991F6A95E2F7282722BB81E00C
:101E6000089580E00895843008F08FC0683008F04D
:101E70008CC0813049F1813038F0823009F444C09F
:101E8000833009F080C060C0413091F480B78B7F0F
:101E900080BF3AB381E090E002C0880F991F6A9535
:101EA000E2F7282F209523232ABB2BB3822B0AC0CD
:101EB0002BB381E090E002C0880F991F6A95E2F78A
:101EC000809582238BBB5FC0413091F480B78B7FBC
:101ED00080BF37B381E090E002C0880F991F6A95F8
:101EE000E2F7282F2095232327BB28B3822B0AC093
:101EF00028B381E090E002C0880F991F6A95E2F74D
:101F00008095822388BB3FC0413091F480B78B7F9E
:101F100080BF34B381E090E002C0880F991F6A95BA
:101F2000E2F7282F2095232324BB25B3822B0AC058
:101F300025B381E090E002C0880F991F6A95E2F70F
:101F40008095822385BB1FC0413091F480B78B7F81
:101F500080BF31B381E090E002C0880F991F6A957D
:101F6000E2F7282F2095232321BB22B3822B0AC01E
:101F700022B381E090E002C0880F991F6A95E2F7D2
:101F80008095822382BB81E0089580E008958430AB
:101F900090F4813049F0813028F0823039F083307C
:101FA00051F406C06ABB05C067BB03C064BB01C077
:101FB00061BB81E0089580E00895843090F4813021
:101FC00049F0813028F0823039F0833051F406C076
:101FD0006BBB05C068BB03C065BB01C062BB81E0D1
:101FE000089580E00895FB01843098F4813049F031
:101FF000813028F0823039F0833059F406C089B33B
:1020000005C086B303C083B301C080B3808381E081
:10201000089580E00895843010F080E008958130C4
:1020200059F0813028F0823059F0833061F40DC0CE
:102030008BB380958BBB07C088B3809588BB03C0EA
:1020400085B3809585BB81E0089582B3809582BB7E
:1020500081E00895843010F080E008956F70813041
:1020600071F0813028F0823089F08330A9F416C0F5
:102070008BB3807F8BBB8BB3682B6BBB0DC088B3DE
:10208000807F88BB88B3682B68BB06C085B3807F20
:1020900085BB85B3682B65BB81E0089582B3807FE3
:1020A00082BB82B3682B62BB81E00895843010F05C
:1020B00080E008956295607F813071F0813028F072
:1020C000823089F08330A9F416C08BB38F708BBB3C
:1020D0008BB3682B6BBB0DC088B38F7088BB88B384
:1020E000682B68BB06C085B38F7085BB85B3682B32
:1020F00065BB81E0089582B38F7082BB82B3682B89
:1021000062BB81E00895843010F080E008956F7024
:10211000813071F0813028F0823089F08330A9F469
:1021200016C08AB3807F8ABB8AB3682B6ABB0DC096
:1021300087B3807F87BB87B3682B67BB06C084B338
:10214000807F84BB84B3682B64BB81E0089581B336
:10215000807F81BB81B3682B61BB81E008958430AF
:1021600010F080E008956295607F813071F08130D9
:1021700028F0823089F08330A9F416C08AB38F70BA
:102180008ABB8AB3682B6ABB0DC087B38F7087BBCD
:1021900087B3682B67BB06C084B38F7084BB84B3DE
:1021A000682B64BB81E0089581B38F7081BB81B3DC
:1021B000682B61BB81E008953E9A3F983D9886B1B7
:1021C000887F86B986B1876086B93598379A339803
:1021D0000895379A089537980895339A0895339853
:1021E0000895982F823020F0833011F081E0089517
:1021F00087B18F7387B987B19295990F990F907CAA
:10220000892B87B980E00895982F883010F081E0FD
:10221000089586B1887F86B986B1892B86B980E01A
:102220000895882311F43D980895813011F081E0DC
:1022300008953D9A80E00895883019F4359880E03B
:102240000895883010F081E00895359A80B78F7135
:1022500080BF80B780BF80E00895982FFB01611593
:10226000710511F482E0089580913F05882311F0F3
:1022700083E00895903230F487B1807E87B987B1CA
:10228000892B87B9369A80E090E0A0E0B0E003C0E7
:102290000196A11DB11D349B06C08055934CA040F2
:1022A000B04051F415C0803523EC920720E0A2071E
:1022B00020E0B20769F70CC0349A84B145B1342FDD
:1022C00020E090E0282B392B3183208380E001C06F
:1022D00081E010923F050895982F6115710511F165
:1022E00041155105F9F080913F05882311F083E0F5
:1022F000089581E080933F051092420570933E055A
:1023000060933D055093410540934005903230F471
:1023100087B1807E87B987B1892B87B9369A339A7E
:1023200080E0089582E00895FC010097B9F1A08152
:10233000B181109799F1458156814115510571F18F
:10234000228133812115310549F180913F05882390
:1023500011F083E0089581E080933F05809342056A
:1023600030933E0520933D05B0934405A09343056B
:102370008481809345055093410540934005109218
:1023800046059C91903230F487B1807E87B987B141
:10239000982B97B9369A339A80E0089582E0089591
:1023A0001F920F920FB60F9211242F933F934F93CA
:1023B0005F936F937F938F939F93AF93BF93EF93AD
:1023C000FF9380914205882371F424B145B1E091D7
:1023D0003D05F0913E05942F80E030E0822B932B59
:1023E000918380831EC08130A9F55091460524B1A8
:1023F00045B1852F90E0880F991FE0913D05F09140
:102400003E05E80FF91F942F80E030E0822B932BDC
:10241000918380835F5F50934605809145055817EF
:1024200049F410923F05E0914005F091410509956E
:10243000339810C0E0914305F0914405E50FF11D7C
:10244000E081E03230F487B1807E87B987B1E82B34
:10245000E7B9369AFF91EF91BF91AF919F918F911C
:102460007F916F915F914F913F912F910F900FBE90
:102470000F901F9018951DBC1CBC992787FD909547
:10248000A92FB92FBC01CD010E94410521E63BE0F7
:1024900046EB5BE30E943B0320E030E040EC5FE36F
:1024A0000E940E0320E030E04AE754E40E943B0320
:1024B0000E9449007BBD6ABD089583E065E041E06C
:1024C0000E94D10D0895CF92DF92EF92FF920F9369
:1024D0001F93DF93CF9300D0CDB7DEB78C016B0194
:1024E000FC01818190E028EE33E0829F7001839FA0
:1024F000F00C929FF00C11248081BE016F5F7F4F22
:102500000E942D11F8018281882389F4B70180E0AF
:1025100090E029813A8140E050E00E9405203AE0B5
:1025200096958795779567953A95D1F70FC0813045
:1025300081F4B70180E090E029813A8140E050E0E9
:102540000E940520672F782F892F9927F601718324
:10255000608380E00F900F90CF91DF911F910F91DA
:10256000FF90EF90DF90CF900895CF92DF92EF929F
:10257000FF920F931F93DF93CF9300D0CDB7DEB7B9
:102580008C016B01FC01818190E028EE33E0829F99
:102590007001839FF00C929FF00C11248081BE018A
:1025A0006F5F7F4F0E942D11F8018281882389F48B
:1025B000B70180E090E029813A8140E050E00E943C
:1025C00005205AE096958795779567955A95D1F7A6
:1025D0000FC0813071F4B70180E090E029813A8129
:1025E00040E050E00E940520672F782F892F99271F
:1025F000CB016AE070E00E942420F601608380E055
:102600000F900F90CF91DF911F910F91FF90EF905E
:10261000DF90CF900895DF93CF9300D00F92CDB786
:10262000DEB7962F6983672F7A838B83892F0E9469
:10263000F70E0F900F900F90CF91DF910895DF93D9
:10264000CF9300D00F92CDB7DEB7262F69837A8360
:102650008B83672F813019F4822F40E004C08823D8
:1026600021F4822F41E00E944F0E0F900F900F90A7
:10267000CF91DF910895DF93CF9300D00F92CDB724
:10268000DEB7262F69837A838B83672F813019F415
:10269000822F41E004C0882321F4822F40E00E9471
:1026A0004F0E0F900F900F90CF91DF910895DF9311
:1026B000CF9300D00F92CDB7DEB7962F6983672FE7
:1026C0007A838B83892F41E00E94D10D0F900F9068
:1026D0000F90CF91DF910895EF92FF920F931F9388
:1026E000DF93CF9300D0CDB7DEB78C017B01FC0127
:1026F0008081BE016F5F7F4F0E942D11F8018281A2
:10270000882359F469817A8180E090E00E94F30582
:1027100020E030E040E85AE30CC08130B1F4698138
:102720007A8180E090E00E94F30520E030E040E80C
:102730005BE30E943B0320E030E048EC52E40E945F
:102740003B030E944900F701608380E00F900F90E7
:10275000CF91DF911F910F91FF90EF9008958F928D
:102760009F92BF92CF92DF92EF92FF920F931F93AF
:10277000DF93CF930F92CDB7DEB7BB24BA94CC24AE
:10278000DD247E010894E11CF11C98EC892E912C2B
:102790000C2D0C5F83E0602F40E00E944F0E83E021
:1027A00060E0A7010E94CD0E8981882311F410E01A
:1027B0001DC083E061E0A7010E94CD0E89818823BE
:1027C00011F411E013C083E062E0A7010E94CD0E76
:1027D0008981882311F412E009C083E063E0A70136
:1027E0000E94CD0E8981882319F513E084EF91E0D2
:1027F000F4013197F1F70197D9F783E0612FA70131
:102800000E94CD0E8981882359F4E12FF0E0EE0F6C
:10281000FF1FEE0FFF1FEC0DFD1DE451FB4FB080BD
:1028200083E0612FA7010E94CD0E89818823C1F327
:1028300083E0602F41E00E944F0E0894C11CD11C20
:1028400084E0C816D10409F0A3CF8B2D0F90CF914F
:10285000DF911F910F91FF90EF90DF90CF90BF908D
:102860009F908F90089583E060E041E00E94330FD5
:1028700083E061E041E00E94330F83E062E041E0E9
:102880000E94330F83E063E041E00E94330F83E056
:102890006FE00E94AF1083E06FE00E945610089531
:1028A0000F931F9381E064E041E00E944F0E00ED22
:1028B00017E0C8010197F1F781E064E040E00E9471
:1028C0004F0EC8010197F1F71F910F9108951F93C3
:1028D000182F81E066E040E00E944F0E81E065E045
:1028E00040E00E944F0E612F62956F7082E00E945F
:1028F0002A100E94501482E0612F0E942A100E9428
:1029000050141F91089588E10E94671480ED97E0AC
:102910000197F1F708958CE10E94671480ED97E02C
:102920000197F1F70895982F81508430C0F4662301
:10293000B1F06531A0F4913019F4862F815810C0A0
:10294000923019F4862F81540BC0933019F4862FDE
:102950008D5606C0943021F4862F8D5201C080E838
:102960000E94671480ED97E00197F1F7089581E0E8
:102970000E94671480E29EE40197F1F708951F9387
:10298000182F81E066E041E00E944F0E81E065E093
:1029900040E00E944F0E612F62956F7082E00E94AE
:1029A0002A100E94501482E0612F0E942A100E9477
:1029B00050141F9108950F931F93CF93DF93182FF7
:1029C000062F80E40E946714CCEFD4E089910E9426
:1029D000BF1485E0C430D807C9F7812F602F0E944B
:1029E000931410E0812F0E94BF141F5F1830D1F79D
:1029F000DF91CF911F910F9108956F927F928F92E7
:102A00009F92AF92BF92CF92DF92EF92FF920F937D
:102A10001F935B016C01611571058105910521F41E
:102A200080E30E94BF1456C097FF0BC08DE20E9446
:102A3000BF14D094C094B094A094A11CB11CC11C2C
:102A4000D11C81E0682E712C812C912CC401B30122
:102A50002AE030E040E050E00E9405207B018C013C
:102A6000C601B5010E946D203B014C016E0C7F1C1C
:102A7000801E911EC601B5012AE030E040E050E022
:102A80000E946D20C901DA015C016D01A114B1043D
:102A9000C104D104D9F618C0C401B3012AE030E062
:102AA00040E050E00E944B20862F805D0E94BF14C2
:102AB000C401B3012AE030E040E050E00E944B2026
:102AC000C901DA013C014D0181E0681671048104FD
:102AD000910411F71F910F91FF90EF90DF90CF902D
:102AE000BF90AF909F908F907F906F900895EF92DE
:102AF000FF920F931F937B018C010E949F050E9400
:102B0000FD14C801B70120E030E040E050E00E9431
:102B10001105882324F417FB109517F91095C801A7
:102B2000B7010E949F050E9441059B01AC01C801AD
:102B3000B7010E94DD0220E030E44CE156E40E943F
:102B40003B037B018C010E947500232B242B252B3A
:102B5000262B272B282B292B49F08EE20E94BF140D
:102B6000C801B7010E949F050E94FD141F910F919B
:102B7000FF90EF9008951F93CF93DF93EC0110E047
:102B800003C00E94BF141F5FFE01E10FF11D808191
:102B90008823B9F7DF91CF911F9108950F931F9369
:102BA00084EF91E028EC30E0F9013197F1F70197DB
:102BB000D9F782E060E041E00E94D10D82E061E05F
:102BC00041E00E94D10D82E062E041E00E94D10D1F
:102BD00082E063E041E00E94D10D81E066E041E0E7
:102BE0000E94D10D81E065E041E00E94D10D81E0BD
:102BF00064E041E00E94D10D82E00E94671480E20F
:102C00009EE40197F1F788E20E94671400ED17E057
:102C1000C8010197F1F78CE00E946714C801019781
:102C2000F1F70E94B71486E00E946714C80101976B
:102C3000F1F71F910F91089580E10E94671480E2DF
:102C40000E94BF1480E10E94671408951F93CF93E0
:102C5000DF930E94B71480E690E00E94BB1515E355
:102C6000C8ECD0E080E10E946714812F0E94BF145D
:102C700080E197E2FE013197F1F70197D9F7115002
:102C8000103381F782E190E06FEF0E94C40D83E082
:102C900080930405DF91CF911F9108950F931F93A7
:102CA0000E94B7148DE690E00E94BB1582E061E0BF
:102CB0000E9493148EE00E94671481E080930605C1
:102CC00010E080E695E00E9414098093070580914A
:102CD00007058823C1F41123B1F4809160058D307C
:102CE00081F3809160058F3061F3809160058830B9
:102CF00041F3809160050E94BF148091600580932C
:102D00004B0511E0DECF809107058823D9F41F30F1
:102D1000C8F4809160058D3029F1809160058F3075
:102D200009F180916005883051F1809160050E9421
:102D3000BF14E12FF0E080916005E55BFA4F8083DE
:102D40001F5FBFCF80910705882309F0BACF1F30DE
:102D500008F4B7CF809160058D3021F08091600537
:102D60008F3041F48CE00E94671480914805181759
:102D700021F509C080916005883009F0A2CF0E943A
:102D80001C1611509ECF00E013C0202F30E0F90137
:102D9000E55BFA4F80818823B1F01081C9018F5B18
:102DA0009F4F0E94CC0D181711F0109206050F5F6F
:102DB00080914805081748F306C080914805181708
:102DC00011F0109206051F910F9108950F931F9314
:102DD0000E94B7148CE790E00E94BB1582E061E08E
:102DE0000E9493148EE00E94671481E08093050591
:102DF00010E080E695E00E94140980930705809119
:102E000007058823C1F41123B1F4809160058D304A
:102E100081F3809160058F3061F380916005883087
:102E200041F3809160050E94BF14809160058093FA
:102E30004B0511E0DECF809107058823D9F41431CA
:102E4000C8F4809160058D3029F1809160058F3044
:102E500009F180916005883051F1809160050E94F0
:102E6000BF14E12FF0E080916005E55BFA4F8083AD
:102E70001F5FBFCF80910705882309F0BACF1431B7
:102E800008F4B7CF809160058D3021F08091600506
:102E90008F3041F48CE00E94671480914705181729
:102EA00019F509C080916005883009F0A2CF0E9411
:102EB0001C1611509ECF00E012C0202F30E0F90107
:102EC000E55BFA4F80818823A9F01081C9018196C2
:102ED0000E94CC0D181711F0109205050F5F80911C
:102EE0004805801750F706C080914705181711F064
:102EF000109205051F910F910895CF93DF93C8ECB1
:102F0000D0E00E94E6160E944E16809105058823A7
:102F100029F080910605882309F04EC00E94B7145D
:102F20008BE890E00E94BB1582E061E00E94931460
:102F30008CE990E00E94BB1580910405815080933C
:102F400004056091040582E190E00E94C40D809127
:102F500004058823A9F083E061E00E94931488EAC5
:102F600090E00E94BB1580910405805D0E94BF1413
:102F700088E59BE1FE013197F1F70197D9F7C1CFC1
:102F800080910405882309F0BCCF83E061E00E94B2
:102F9000931488EA90E00E94BB1580910405805D3F
:102FA0000E94BF1488E893E1FE013197F1F7019781
:102FB000D9F70E942616A5CF0E94B71486EB90E0A1
:102FC0000E94BB1582E061E00E94931483EC90E0C4
:102FD0000E94BB1588E59BE128EC30E0F9013197B0
:102FE000F1F70197D9F7DF91CF9108950E94B714B7
:102FF0008BEC90E00E94BB1582E061E00E9493148C
:1030000088ED90E00E94BB156FE070E080E090E0FA
:103010000E94FD1484E06FE00E94DB1484E060E114
:103020000E94931488EE90E00E94BB1583E061E05B
:103030000E9493141092480580914805882309F452
:103040005DC00E94B7148EEE90E00E94BB1582E036
:1030500061E00E9493148FEF90E00E94BB1584E31F
:103060000E94BF148AE091E00E94BB1584E061E0F9
:103070000E94DB1484E062E00E94931480E191E0FE
:103080000E94BB1580E695E00E9414098093070515
:10309000809107058823B1F7809160058D3021F07C
:1030A000809160058F3071F70E94B71481E065E070
:1030B0000E9493148BEC90E00E94BB1582E061E0CB
:1030C0000E94931488ED90E00E94BB156FE070E0C1
:1030D00080E090E00E94FD1484E06FE00E94DB1429
:1030E00084E060E10E94931488EE90E00E94BB159A
:1030F00083E061E00E949314109248058EE00E94E4
:10310000671480E695E00E9414098093070580917A
:103110000705882389F480914805882369F4809104
:1031200060058D3071F3809160058F3051F380918F
:103130006005883031F314C080910705882309F5B4
:10314000809148058F30E8F4809160058D3059F109
:10315000809160058F3039F180916005883089F168
:10316000809160050E94BF148091480560916005C0
:1031700090E08F5B9F4F0E94C40D809148058F5F48
:1031800025C080910705882309F0BBCF80914805B1
:103190008F3008F4B6CF809160058D3021F080919A
:1031A00060058F3049F48CE00E94671480914805D7
:1031B000853008F441CF0DC080916005883009F05A
:1031C000A0CF0E941C16809148058150809348052D
:1031D00098CF81E190E060E00E94C40D60914805C5
:1031E00084E190E00E94C40D0895FF920F931F9315
:1031F0000E94B71481E065E00E94931488E191E099
:103200000E94BB1582E061E00E94931488ED90E07B
:103210000E94BB1564E170E080E090E00E94FD1424
:1032200084E06FE00E94DB1484E060E10E9493146C
:1032300088EE90E00E94BB1583E061E00E94931449
:103240008EE00E94671410924705809147058823FD
:1032500009F45DC00E94B71485E291E00E94BB159D
:1032600082E061E00E9493148FEF90E00E94BB1512
:1032700087E30E94BF148AE091E00E94BB1584E0BE
:1032800061E00E94DB1484E062E00E94931480E11C
:1032900091E00E94BB1580E695E00E94140980939E
:1032A0000705809107058823B1F7809160058D306F
:1032B00021F0809160058F3071F70E94B71481E092
:1032C00063E00E94931486E391E00E94BB1582E0C4
:1032D00061E00E94931488ED90E00E94BB1564E1C8
:1032E00070E080E090E00E94FD1484E06FE00E94B6
:1032F000DB1484E060E10E94931488EE90E00E9469
:10330000BB1583E061E00E9493141092470580E6AC
:1033100095E00E9414098093070580910705882392
:1033200089F480914705882369F4809160058D3088
:1033300071F3809160058F3051F380916005883082
:1033400031F314C080910705882301F5809147056A
:103350008431E0F4809160058D3051F180916005F9
:103360008F3031F180916005883081F18091600566
:103370000E94BF14809147056091600590E081969E
:103380000E94C40D809147058F5F25C0809107057D
:10339000882309F0BCCF80914705843108F4B7CF6A
:1033A000809160058D3021F0809160058F3049F467
:1033B0008CE00E94671480914705883008F445CF5F
:1033C0000DC080916005883009F0A1CF0E941C16C5
:1033D0008091470581508093470599CF80E190E027
:1033E00060E00E94C40D6091470583E190E00E9477
:1033F000C40DFF240BC00F2D10E0C80181960E9460
:10340000CC0D0F591A4FF8018083F3948091470532
:10341000F81688F3E0914705F0E0EF59FA4F108273
:103420001F910F91FF900895FF920F931F9383E1D7
:1034300090E00E94CC0D8093470584E190E00E94CB
:10344000CC0D8093480582E190E00E94CC0D8F3F27
:1034500031F082E190E00E94CC0D8093040580E180
:1034600090E00E94CC0D8F3F89F486E491E00E94A9
:10347000BB1588E893E128EC30E0F9013197F1F7CA
:103480000197D9F70E94B7140E94F51881E190E0E6
:103490000E94CC0D8F3F99F40E94F6170E94B7143A
:1034A00085E591E00E94BB1588E59BE128EC30E0C2
:1034B000F9013197F1F70197D9F70E94B71480917C
:1034C0000405882311F40E942616FF240BC00F2D3B
:1034D00010E0C80181960E94CC0D0F591A4FF801D7
:1034E0008083F39480914705F81688F31F910F911C
:1034F000FF90089581E061E00E94F70E08950E9418
:10350000B714089588E691E00E94BB1589E791E021
:103510000E94BB158FE891E00E94BB1580E695E004
:103520000E94140980930705809107058823C9F438
:1035300080916005813329F0823339F08830E1F4DD
:103540000CC080911D05846003C080911D058B7F98
:1035500080931D05109249050FC08DE00E94EE0872
:10356000F9CF80910705843039F480914905809125
:1035700049058F5F8093490580916005883071F619
:10358000089588E991E00E943F098DE00E94EE08CD
:1035900089E791E00E943F098AEA91E00E943F0991
:1035A0008DE00E94EE0880E695E00E941409809369
:1035B0000705809107058823B9F58091600581335F
:1035C00029F0823331F08830D1F50AC080E090E0F4
:1035D00002C08AE590E00E943B12109249052FC07C
:1035E0000E94B71482EB91E00E94BB1582E061E07B
:1035F0000E94931482EC91E00E94BB1583E061E08D
:103600000E94931481ED91E00E94BB1584E061E07B
:103610000E94931480EE91E00E94BB1580911D05DD
:10362000877F80931D050BC080910705843039F496
:1036300080914905809149058F5F8093490580916C
:103640006005883009F0AFCF08958FEE91E00E94B9
:103650003F098DE00E94EE0888EF91E00E943F094B
:103660008DE00E94EE088BE092E00E943F098DE021
:103670000E94EE088EE192E00E943F098DE00E94D8
:10368000EE088CE392E00E943F098DE00E94EE0874
:1036900080E695E00E941409809307058091070554
:1036A000882309F05BC0809160058233D1F08333B9
:1036B00038F4883009F44CC0813309F05AC006C090
:1036C0008333C1F0843309F054C03FC08DE00E94C1
:1036D000EE0880E190E06FEF0E94C40D0E94F518A3
:1036E0001AC08DE00E94EE0881E190E06FEF0E9429
:1036F000C40D0FC08DE00E94EE0880E190E06FEFF6
:103700000E94C40D81E190E06FEF0E94C40D0E9401
:10371000F5180E94F6178FEE91E00E943F098DE0A8
:103720000E94EE0888EF91E00E943F098DE00E9420
:10373000EE088BE092E00E943F098DE00E94EE08C7
:1037400080E592E00E943F0903C00E94821A11C0E6
:103750008DE00E94EE08109249050BC0809107058C
:10376000843039F480914905809149058F5F8093B9
:10377000490580916005883009F08ACF08951F932C
:10378000CF93DF930E94B7148EE692E00E94BB15A0
:1037900082E061E00E9493148DE792E00E94BB15E5
:1037A00083E992E00E94BB158EE992E00E94BB156E
:1037B00084EB92E00E94BB158FEB92E00E94BB1558
:1037C00080911D0582FF04C08AEC92E00E94BB1527
:1037D00011E0C8ECD0E080E695E00E9414098093E7
:1037E000070580910705882309F077C0809160055F
:1037F000833379F1843340F4813361F08233E0F430
:10380000883009F075C04EC0843381F1853309F0EA
:103810006FC039C01092490580E00E94A60A88EE68
:1038200093E0FE013197F1F70197D9F780E00E940C
:10383000C50A10924A055CC01092490580914A055C
:10384000882329F484E00E94C50A10934A058FE377
:1038500026C01092490580914A05882329F484E006
:103860000E94C50A10934A058EE719C010924905B7
:1038700080914A05882329F484E00E94C50A1093A8
:103880004A058DEB0CC01092490580914A058823AA
:1038900029F484E00E94C50A10934A058FEF0E9424
:1038A000A60A26C01092490582EB91E00E94BB1542
:1038B00086EE92E00E94BB1581ED91E00E94BB155F
:1038C0008CEF92E00E94BB1582E193E00E94BB1551
:1038D0008EE193E00E94BB150BC0809107058430F8
:1038E00039F480914905809149058F5F809349059E
:1038F00080916005883009F06ECFDF91CF911F91E4
:1039000008950E94B7148EE293E00E94BB1582E0F6
:1039100061E00E9493148DE393E00E94BB158FEF4A
:103920008093600581E195E065E775E00E946C1386
:10393000809160058133A9F480917505823388F404
:1039400080911D0586FD0DC084E065E00E94931402
:1039500082E593E00E94BB1580911D0580648093F1
:103960001D0580917505833300F180911D058F7BC6
:1039700080931D0584E065E00E94931483E693E044
:103980000E94BB1580E695E00E941409809307050C
:1039900080910705882309F050C080916005883028
:1039A00071F1823309F049C021C0809175058233DD
:1039B00008F043C084E065E00E94931480911D05E7
:1039C00086FD04C084E793E00E94BB1580E695E085
:1039D0000E9414098093070580910705882369F5E3
:1039E00080916005883059F0813339F560911A056E
:1039F00070911B0580911C050E940B131EC00E9434
:103A0000B71482EB91E00E94BB1582E061E00E9456
:103A1000931482EC91E00E94BB1583E061E00E9468
:103A2000931481ED91E00E94BB1584E061E00E9457
:103A3000931480EE91E00E94BB1580916005883060
:103A400009F070CF08950E94B71485E893E00E94B2
:103A5000BB1582E061E00E9493148DE393E00E9425
:103A6000BB158FEF809360058EE095E065E775E00C
:103A70000E946C13809160058133A9F480917505D3
:103A8000823388F480911D0585FD0DC084E065E0DA
:103A90000E94931482E593E00E94BB1580911D055E
:103AA000806280931D0580917505833300F18091BC
:103AB0001D058F7D80931D0584E065E00E949314B1
:103AC00083E693E00E94BB1580E695E00E9414090E
:103AD0008093070580910705882309F059C08091DC
:103AE00060058830B9F1823309F052C024C080915A
:103AF0007505823308F04CC084E065E00E949314A1
:103B000080911D0585FD04C084E793E00E94BB15EC
:103B100080E695E00E9414098093070580910705CF
:103B20008823B1F580916005813329F0823361F0FB
:103B3000883071F50FC0609117057091180580915C
:103B400019050E940B1324C080911D058F7D809361
:103B50001D051EC00E94B71482EB91E00E94BB15A8
:103B600082E061E00E94931482EC91E00E94BB1518
:103B700083E061E00E94931481ED91E00E94BB1507
:103B800084E061E00E94931480EE91E00E94BB15F6
:103B900080916005883009F067CF08950E94B714BE
:103BA00084E993E00E94BB1582E061E00E949314D7
:103BB0008DE393E00E94BB158FEF809360058BE04F
:103BC00095E065E775E00E946C1380916005813394
:103BD000A9F480917505823388F480911D0584FDD8
:103BE0000DC084E065E00E94931482E593E00E949A
:103BF000BB1580911D05806180931D058091750521
:103C0000833300F180911D058F7E80931D0584E034
:103C100065E00E94931483E693E00E94BB1580E662
:103C200095E00E9414098093070580910705882379
:103C300009F059C0809160058830B9F1823309F0EC
:103C400052C024C080917505823308F04CC084E0D6
:103C500065E00E94931480911D0584FD04C084E7F3
:103C600093E00E94BB1580E695E00E9414098093C2
:103C70000705809107058823B1F5809160058133A0
:103C800029F0823361F0883071F50FC0609114051E
:103C900070911505809116050E940B1324C0809128
:103CA0001D058F7E80931D051EC00E94B71482EBF8
:103CB00091E00E94BB1582E061E00E94931482ECC7
:103CC00091E00E94BB1583E061E00E94931481EDB6
:103CD00091E00E94BB1584E061E00E94931480EEA5
:103CE00091E00E94BB1580916005883009F067CF94
:103CF00008951F9380911D0583FD22C00E94B71473
:103D000082EB91E00E94BB1582E061E00E94931477
:103D100082E193E00E94BB1583E061E00E9493146E
:103D200083EA93E00E94BB1584E061E00E94931453
:103D300080EB93E00E94BB1580911D05886021C037
:103D40000E94B71482EB91E00E94BB1582E061E013
:103D50000E94931482EC91E00E94BB1583E061E025
:103D60000E94931481ED91E00E94BB1584E061E014
:103D70000E94931480EE91E00E94BB1580911D0576
:103D8000877F80931D051FEF1093600580E695E007
:103D90000E9414098093070580910705882309F084
:103DA0008BC0809160058333F9F0843358F48133FC
:103DB00089F08233A0F4883009F476C0803309F0AA
:103DC00086C028C08533D1F0853398F0863309F05A
:103DD0007EC019C0109249050E94CE1D18C01092D5
:103DE00049050E94231D13C0109249050E94811CA1
:103DF0000EC0109249050E94BF1B09C010924905D0
:103E00000E94C11A04C0109249050E94251B1093FC
:103E100060055DC080911D0583FD22C00E94B7141E
:103E200082EB91E00E94BB1582E061E00E94931456
:103E300082E193E00E94BB1583E061E00E9493144D
:103E400083EA93E00E94BB1584E061E00E94931432
:103E500080EB93E00E94BB1580911D05886021C016
:103E60000E94B71482EB91E00E94BB1582E061E0F2
:103E70000E94931482EC91E00E94BB1583E061E004
:103E80000E94931481ED91E00E94BB1584E061E0F3
:103E90000E94931480EE91E00E94BB1580911D0555
:103EA000877F80931D0513C0109249050E94B714A7
:103EB00080911D058160F5CF80910705843039F42C
:103EC00080914905809149058F5F809349058091D4
:103ED0006005883009F058CF1F9108950F931F9304
:103EE000CF93DF9382E06FEF0E94C70F83E06EEF06
:103EF0000E94C70F81E060E041E00E94D10D81E0A7
:103F000061E041E00E94D10D0E94CE150E94DC10BC
:103F10000E94E0080E94141A83E065E041E00E94DC
:103F2000D10D0E94550A81E063E041E00E94D10D6D
:103F30000E94420A0E948B0A8AE79AE165E00E9489
:103F4000FF0A0E945D128AE590E00E943B120E94E7
:103F5000550C86E00E94F60C81E066E00E94640C3D
:103F60008FE79AE166E00E94260D83E062E040E080
:103F70000E94D10D04E110E0C8ECD0E080911D0555
:103F800080FF42C010924905826080931D0580EC3D
:103F900093E00E94BB1580E695E00E94140980938F
:103FA0000705809107058823B1F7809160058D3062
:103FB00091F70E94B71482E067E00E9493148BEDA2
:103FC00093E00E94BB15809147059801281B310999
:103FD000C90162E070E00E9438206F5F83E00E94B8
:103FE000931481E695E00E94BB1580E197E2FE0103
:103FF0003197F1F70197D9F780911D058E7F809356
:104000001D050E94791EBACFFFCF629FD001739F1A
:10401000F001829FE00DF11D649FE00DF11D929F64
:10402000F00D839FF00D749FF00D659FF00D9927A3
:10403000729FB00DE11DF91F639FB00DE11DF91FC7
:10404000BD01CF0111240895AA1BBB1B51E107C07C
:10405000AA1FBB1FA617B70710F0A61BB70B881F18
:10406000991F5A95A9F780959095BC01CD010895A7
:1040700097FB092E07260AD077FD04D0E5DF06D08E
:1040800000201AF4709561957F4F0895F6F790958A
:1040900081959F4F0895A1E21A2EAA1BBB1BFD011B
:1040A0000DC0AA1FBB1FEE1FFF1FA217B307E40717
:1040B000F50720F0A21BB30BE40BF50B661F771F6F
:1040C000881F991F1A9469F760957095809590954F
:1040D0009B01AC01BD01CF01089597FB092E052678
:1040E0000ED057FD04D0D7DF0AD0001C38F450950D
:1040F0004095309521953F4F4F4F5F4F0895F6F70C
:1041000090958095709561957F4F8F4F9F4F089543
:104110002F923F924F925F926F927F928F929F92D7
:10412000AF92BF92CF92DF92EF92FF920F931F93C5
:10413000CF93DF93CDB7DEB7CA1BDB0B0FB6F89476
:10414000DEBF0FBECDBF09942A88398848885F84B6
:104150006E847D848C849B84AA84B984C884DF8027
:10416000EE80FD800C811B81AA81B981CE0FD11D0B
:104170000FB6F894DEBF0FBECDBFED010895F894E1
:02418000FFCF6F
:1041820054696D65206F7574203A2020004368657C
:10419200636B2050617373576F7264004368656389
:1041A2006B20557365724E616D6500496E76616C68
:1041B200696420557365726E616D65006F7220507F
:1041C200617373776F7264005472696573204C6512
:1041D2006674203A20005375636365737366756C69
:1041E2006C79005369676E20696E005365742050C4
:1041F200617373576F7264004D6178696D756D20DC
:1042020063686172203A2000203A204F4B005061CF
:104212007373576F7264204D757374206265004D1D
:104222006F7265207468616E2000204368617200BD
:10423200203A20457869740053657420557365727D
:104242004E616D6500557365724E616D65204D75E9
:10425200737420626500526520536574205573653E
:10426200724E616D6500506C6561736520536967BC
:104272006E205570005361766564205375636365E3
:10428200737366756C6C79004175746F2046616E4C
:1042920020436F6E74726F6C00312D204F70656E0B
:1042A200202020202020202020202020202000321A
:1042B2002D20436C6F736500526563657074696F7E
:1042C2006E20446F6F72203A2000322D204C6F63B3
:1042D2006B00526F6F6D204F7074696F6E73203A6E
:1042E2002000312D204C656431204F4E2F4F464621
:1042F20000322D204C656432204F4E2F4F4646002F
:10430200332D204C656433204F4E2F4F46460053C9
:10431200657474696E673A00312D204368616E6777
:104322006520557365724E616D6500322D204368BC
:10433200616E67652050617373576F726400332D2D
:10434200204368616E676520557365724E616D65C5
:1043520020262050617373576F726400342D204100
:1043620075746F2046616E20436F6E74726F6C00BD
:10437200322D204368616E676520557365724E6108
:104382006D6520262050617373576F726400466119
:104392006E20436F6E74726F6C203A2000312D20B4
:1043A20046616E204F66662020202020202020209B
:1043B200202000322D205370656564203100332D9A
:1043C2002053706565642032202020202020202088
:1043D20020202000342D2053706565642033003581
:1043E2002D2053706565642034004175746F20463A
:1043F200616E20436F6E74726F6C20697320456E1C
:1044020061626C656400312D204C656431204F4E31
:104412002F4F46462020202020202000332D204CE4
:10442200656433204F4E2F4F464620202020202007
:104432002000342D20526F6F6D2046616E00352DA5
:1044420020526F6F6D2053657474696E67004C6102
:104452006D7033204F7074696F6E203A0031203ACC
:10446200204F4E2020202020202032203A204F466C
:10447200460020204C616D70206861732045727285
:104482006F72004C454420537461747573203A2056
:104492004F4E20004C454420537461747573203A8A
:1044A200204F4646004C616D7032204F7074696F28
:1044B2006E203A004C616D7031204F7074696F6EDE
:1044C200203A00352D20526F6F6D20446F6F7200BD
:1044D200362D20526F6F6D2053657474696E6700BC
:1044E200507265737320656E74657220746F206FED
:1044F20070656E2073797374656D0057656C636FB8
:104502006D652000000000000000000000010202B2
:104512000303030304040404040404040505050559
:104522000505050505050505050505050606060635
:104532000606060606060606060606060606060619
:104542000606060606060606060606060707070705
:1045520007070707070707070707070707070707E9
:1045620007070707070707070707070707070707D9
:1045720007070707070707070707070707070707C9
:1045820007070707070707070707070708080808B5
:104592000808080808080808080808080808080899
:1045A2000808080808080808080808080808080889
:1045B2000808080808080808080808080808080879
:1045C2000808080808080808080808080808080869
:1045D2000808080808080808080808080808080859
:1045E2000808080808080808080808080808080849
:1045F2000808080808080808080808080808080839
:104602000808080808080808080808083738392F71
:104612003435362A3132332D3F303D2B0001010132
:10462200091F080003010101000500010500020540
:0E463200000305000205010303010204010B51
:00000001FF
